{"contracts/ReefERC20/ReefERC20.sol":{"REEFERC20":{"abi":[{"anonymous":false,"inputs":[{"indexed":true,"internalType":"address","name":"owner","type":"address"},{"indexed":true,"internalType":"address","name":"spender","type":"address"},{"indexed":false,"internalType":"uint256","name":"value","type":"uint256"}],"name":"Approval","type":"event"},{"anonymous":false,"inputs":[{"indexed":true,"internalType":"address","name":"from","type":"address"},{"indexed":true,"internalType":"address","name":"to","type":"address"},{"indexed":false,"internalType":"uint256","name":"value","type":"uint256"}],"name":"Transfer","type":"event"},{"inputs":[{"internalType":"address","name":"owner","type":"address"},{"internalType":"address","name":"spender","type":"address"}],"name":"allowance","outputs":[{"internalType":"uint256","name":"","type":"uint256"}],"stateMutability":"view","type":"function"},{"inputs":[{"internalType":"address","name":"spender","type":"address"},{"internalType":"uint256","name":"amount","type":"uint256"}],"name":"approve","outputs":[{"internalType":"bool","name":"","type":"bool"}],"stateMutability":"nonpayable","type":"function"},{"inputs":[{"internalType":"address","name":"account","type":"address"}],"name":"balanceOf","outputs":[{"internalType":"uint256","name":"","type":"uint256"}],"stateMutability":"view","type":"function"},{"inputs":[],"name":"currencyId","outputs":[{"internalType":"uint256","name":"","type":"uint256"}],"stateMutability":"pure","type":"function"},{"inputs":[],"name":"decimals","outputs":[{"internalType":"uint8","name":"","type":"uint8"}],"stateMutability":"pure","type":"function"},{"inputs":[{"internalType":"address","name":"spender","type":"address"},{"internalType":"uint256","name":"subtractedValue","type":"uint256"}],"name":"decreaseAllowance","outputs":[{"internalType":"bool","name":"","type":"bool"}],"stateMutability":"nonpayable","type":"function"},{"inputs":[{"internalType":"address","name":"spender","type":"address"},{"internalType":"uint256","name":"addedValue","type":"uint256"}],"name":"increaseAllowance","outputs":[{"internalType":"bool","name":"","type":"bool"}],"stateMutability":"nonpayable","type":"function"},{"inputs":[],"name":"name","outputs":[{"internalType":"string","name":"","type":"string"}],"stateMutability":"pure","type":"function"},{"inputs":[],"name":"symbol","outputs":[{"internalType":"string","name":"","type":"string"}],"stateMutability":"pure","type":"function"},{"inputs":[],"name":"totalSupply","outputs":[{"internalType":"uint256","name":"","type":"uint256"}],"stateMutability":"view","type":"function"},{"inputs":[{"internalType":"address","name":"recipient","type":"address"},{"internalType":"uint256","name":"amount","type":"uint256"}],"name":"transfer","outputs":[{"internalType":"bool","name":"","type":"bool"}],"stateMutability":"nonpayable","type":"function"},{"inputs":[{"internalType":"address","name":"sender","type":"address"},{"internalType":"address","name":"recipient","type":"address"},{"internalType":"uint256","name":"amount","type":"uint256"}],"name":"transferFrom","outputs":[{"internalType":"bool","name":"","type":"bool"}],"stateMutability":"nonpayable","type":"function"}],"evm":{"assembly":"// RO data = 0/0 bytes\n// RW data = 240/65824 bytes\n// Stack size = 32768 bytes\n\n// Instructions = 4489\n// Code size = 15390 bytes\n\n      : @0 (gas: 1)\n     0: jump @14 if a0 == a1\n      : @1 (gas: 9)\n     3: a3 = a1 << 0x20\n     6: a3 = a3 >> 0x20\n     9: a4 = a0 << 0x20\n    12: a4 = a4 >> 0x20\n    15: a4 = a4 + a2\n    18: a3 = a3 - a4\n    21: a4 = a2 << 0x1\n    24: a4 = -a4\n    26: jump @7 if a4 >=u a3\n      : @2 (gas: 1)\n    29: jump @11 if a0 >=u a1\n      : @3 (gas: 1)\n    32: jump @14 if a2 == 0\n      : @4 (gas: 3)\n    35: a2 = a2 + a0\n    38: a3 = a0\n    40: fallthrough\n      : @5 (gas: 6)\n    41: a4 = u8 [a1]\n    43: a1 = a1 + 0x1\n    46: a5 = a3 + 0x1\n    49: u8 [a3] = a4\n    51: a3 = a5\n    53: jump @5 if a5 != a2\n      : @6 (gas: 1)\n    56: jump @14\n      : @7 (gas: 1)\n    58: jump @14 if a2 == 0\n      : @8 (gas: 3)\n    61: a2 = a2 + a0\n    64: a3 = a0\n    66: fallthrough\n      : @9 (gas: 6)\n    67: a4 = u8 [a1]\n    69: a1 = a1 + 0x1\n    72: a5 = a3 + 0x1\n    75: u8 [a3] = a4\n    77: a3 = a5\n    79: jump @9 if a5 != a2\n      : @10 (gas: 1)\n    82: jump @14\n      : @11 (gas: 1)\n    84: jump @14 if a2 == 0\n      : @12 (gas: 2)\n    87: i32 a3 = a2 + 0xffffffffffffffff\n    90: fallthrough\n      : @13 (gas: 7)\n    91: a4 = a1 + a3\n    94: a4 = u8 [a4]\n    96: a2 = a2 + 0xffffffffffffffff\n    99: a5 = a0 + a3\n   102: u8 [a5] = a4\n   104: i32 a3 = a3 + 0xffffffffffffffff\n   107: jump @13 if a2 != 0\n      : @14 (gas: 1)\n   110: ret\n      : @15 (gas: 2)\n   112: a1 = i32 [0x200f8]\n   117: jump @44 if a1 == 0\n      : @16 (gas: 4)\n   121: a0 = 0x30120\n   126: i32 a0 = a0 + 0\n   128: ecalli 10 // 'set_immutable_data'\n   130: jump @44\n      : @17 (gas: 8)\n   133: sp = sp + 0xfffffffffffffff0\n   136: u64 [sp + 0x8] = ra\n   139: u64 [sp] = s0\n   141: a2 = a1\n   143: s0 = a0\n   145: a1 = 0x20\n   148: a0 = a2\n   150: ra = 2, jump @26\n      : @18 [@dyn 1] (gas: 100)\n   155: a1 = u8 [a0 + 0x1]\n   158: a2 = u8 [a0]\n   160: a3 = u8 [a0 + 0x2]\n   163: a4 = u8 [a0 + 0x3]\n   166: a1 = a1 << 0x8\n   169: a1 = a1 | a2\n   172: a3 = a3 << 0x10\n   175: a4 = a4 << 0x18\n   178: a3 = a3 | a4\n   181: a1 = a1 | a3\n   184: a2 = u8 [a0 + 0x5]\n   187: a3 = u8 [a0 + 0x4]\n   190: a4 = u8 [a0 + 0x6]\n   193: a5 = u8 [a0 + 0x7]\n   196: a2 = a2 << 0x8\n   199: a2 = a2 | a3\n   202: a4 = a4 << 0x10\n   205: a5 = a5 << 0x18\n   208: a4 = a4 | a5\n   211: a2 = a2 | a4\n   214: a2 = a2 << 0x20\n   217: t0 = a2 | a1\n   220: a2 = u8 [a0 + 0x9]\n   223: a3 = u8 [a0 + 0x8]\n   226: a4 = u8 [a0 + 0xa]\n   229: a5 = u8 [a0 + 0xb]\n   232: a2 = a2 << 0x8\n   235: a2 = a2 | a3\n   238: a4 = a4 << 0x10\n   241: a5 = a5 << 0x18\n   244: a4 = a4 | a5\n   247: a2 = a2 | a4\n   250: a3 = u8 [a0 + 0xd]\n   253: a4 = u8 [a0 + 0xc]\n   256: a5 = u8 [a0 + 0xe]\n   259: a1 = u8 [a0 + 0xf]\n   262: a3 = a3 << 0x8\n   265: a3 = a3 | a4\n   268: a5 = a5 << 0x10\n   271: a1 = a1 << 0x18\n   274: a1 = a1 | a5\n   277: a1 = a1 | a3\n   280: a1 = a1 << 0x20\n   283: t1 = a1 | a2\n   286: a1 = u8 [a0 + 0x11]\n   289: a3 = u8 [a0 + 0x10]\n   292: a4 = u8 [a0 + 0x12]\n   295: a5 = u8 [a0 + 0x13]\n   298: a1 = a1 << 0x8\n   301: a1 = a1 | a3\n   304: a4 = a4 << 0x10\n   307: a5 = a5 << 0x18\n   310: a4 = a4 | a5\n   313: a1 = a1 | a4\n   316: a3 = u8 [a0 + 0x15]\n   319: a4 = u8 [a0 + 0x14]\n   322: a5 = u8 [a0 + 0x16]\n   325: a2 = u8 [a0 + 0x17]\n   328: a3 = a3 << 0x8\n   331: a3 = a3 | a4\n   334: a5 = a5 << 0x10\n   337: a2 = a2 << 0x18\n   340: a2 = a2 | a5\n   343: a2 = a2 | a3\n   346: a2 = a2 << 0x20\n   349: a3 = a2 | a1\n   352: a1 = u8 [a0 + 0x19]\n   355: a2 = u8 [a0 + 0x18]\n   358: a4 = u8 [a0 + 0x1a]\n   361: a5 = u8 [a0 + 0x1b]\n   364: a1 = a1 << 0x8\n   367: a1 = a1 | a2\n   370: a4 = a4 << 0x10\n   373: a5 = a5 << 0x18\n   376: a4 = a4 | a5\n   379: a1 = a1 | a4\n   382: a2 = u8 [a0 + 0x1d]\n   385: a4 = u8 [a0 + 0x1c]\n   388: a5 = u8 [a0 + 0x1e]\n   391: a0 = u8 [a0 + 0x1f]\n   394: a2 = a2 << 0x8\n   397: a2 = a2 | a4\n   400: a5 = a5 << 0x10\n   403: a0 = a0 << 0x18\n   406: a0 = a0 | a5\n   409: a0 = a0 | a2\n   412: a0 = a0 << 0x20\n   415: a0 = a0 | a1\n   418: a0 = reverse a0\n   420: a1 = reverse a3\n   422: a2 = reverse t1\n   424: a3 = reverse t0\n   426: u64 [s0 + 0x18] = a3\n   429: u64 [s0 + 0x10] = a2\n   432: u64 [s0 + 0x8] = a1\n   435: u64 [s0] = a0\n   437: ra = u64 [sp + 0x8]\n   440: s0 = u64 [sp]\n   442: sp = sp + 0x10\n   445: ret\n      : @19 (gas: 12)\n   447: sp = sp + 0xffffffffffffffd8\n   450: u64 [sp + 0x20] = ra\n   453: u64 [sp + 0x18] = s0\n   456: u64 [sp + 0x10] = s1\n   459: a2 = u64 [a1]\n   461: u64 [sp + 0x8] = a2\n   464: a2 = u64 [a1 + 0x8]\n   467: u64 [sp] = a2\n   469: s0 = u64 [a1 + 0x10]\n   472: s1 = u64 [a1 + 0x18]\n   475: a1 = 0x20\n   478: ra = 4, jump @26\n      : @20 [@dyn 2] (gas: 71)\n   483: a1 = reverse s1\n   485: a2 = reverse s0\n   487: a3 = u64 [sp]\n   489: a3 = reverse a3\n   491: a4 = u64 [sp + 0x8]\n   494: a4 = reverse a4\n   496: u8 [a0 + 0x18] = a4\n   499: u8 [a0 + 0x10] = a3\n   502: u8 [a0 + 0x8] = a2\n   505: u8 [a0] = a1\n   507: a5 = a4 >> 0x38\n   510: u8 [a0 + 0x1f] = a5\n   513: a5 = a4 >> 0x30\n   516: u8 [a0 + 0x1e] = a5\n   519: a5 = a4 >> 0x28\n   522: u8 [a0 + 0x1d] = a5\n   525: a5 = a4 >> 0x20\n   528: u8 [a0 + 0x1c] = a5\n   531: a5 = a4 >> 0x18\n   534: u8 [a0 + 0x1b] = a5\n   537: a5 = a4 >> 0x10\n   540: u8 [a0 + 0x1a] = a5\n   543: a4 = a4 >> 0x8\n   546: u8 [a0 + 0x19] = a4\n   549: a4 = a3 >> 0x38\n   552: u8 [a0 + 0x17] = a4\n   555: a4 = a3 >> 0x30\n   558: u8 [a0 + 0x16] = a4\n   561: a4 = a3 >> 0x28\n   564: u8 [a0 + 0x15] = a4\n   567: a4 = a3 >> 0x20\n   570: u8 [a0 + 0x14] = a4\n   573: a4 = a3 >> 0x18\n   576: u8 [a0 + 0x13] = a4\n   579: a4 = a3 >> 0x10\n   582: u8 [a0 + 0x12] = a4\n   585: a3 = a3 >> 0x8\n   588: u8 [a0 + 0x11] = a3\n   591: a3 = a2 >> 0x38\n   594: u8 [a0 + 0xf] = a3\n   597: a3 = a2 >> 0x30\n   600: u8 [a0 + 0xe] = a3\n   603: a3 = a2 >> 0x28\n   606: u8 [a0 + 0xd] = a3\n   609: a3 = a2 >> 0x20\n   612: u8 [a0 + 0xc] = a3\n   615: a3 = a2 >> 0x18\n   618: u8 [a0 + 0xb] = a3\n   621: a3 = a2 >> 0x10\n   624: u8 [a0 + 0xa] = a3\n   627: a2 = a2 >> 0x8\n   630: u8 [a0 + 0x9] = a2\n   633: a2 = a1 >> 0x38\n   636: u8 [a0 + 0x7] = a2\n   639: a2 = a1 >> 0x30\n   642: u8 [a0 + 0x6] = a2\n   645: a2 = a1 >> 0x28\n   648: u8 [a0 + 0x5] = a2\n   651: a2 = a1 >> 0x20\n   654: u8 [a0 + 0x4] = a2\n   657: a2 = a1 >> 0x18\n   660: u8 [a0 + 0x3] = a2\n   663: a2 = a1 >> 0x10\n   666: u8 [a0 + 0x2] = a2\n   669: a1 = a1 >> 0x8\n   672: u8 [a0 + 0x1] = a1\n   675: ra = u64 [sp + 0x20]\n   678: s0 = u64 [sp + 0x18]\n   681: s1 = u64 [sp + 0x10]\n   684: sp = sp + 0x28\n   687: ret\n      : @21 (gas: 43)\n   689: sp = sp + 0xffffffffffffffa0\n   692: u64 [sp + 0x58] = ra\n   695: u64 [sp + 0x50] = s0\n   698: u64 [sp + 0x48] = s1\n   701: s0 = sp + 0x60\n   704: sp = sp & 0xffffffffffffffe0\n   707: s1 = a0\n   709: a0 = u64 [a1 + 0x18]\n   712: a2 = u64 [a1 + 0x10]\n   715: a3 = u64 [a1 + 0x8]\n   718: a1 = u64 [a1]\n   720: a0 = reverse a0\n   722: a2 = reverse a2\n   724: a3 = reverse a3\n   726: a1 = reverse a1\n   728: u64 [sp + 0x18] = a1\n   731: u64 [sp + 0x10] = a3\n   734: u64 [sp + 0x8] = a2\n   737: u64 [sp] = a0\n   739: u64 [sp + 56] = 0\n   742: u64 [sp + 48] = 0\n   745: u64 [sp + 40] = 0\n   748: u64 [sp + 32] = 0\n   751: u32 [sp + 64] = 0x20\n   755: i32 a1 = sp + 0\n   757: i32 a3 = sp + 0x20\n   760: i32 a4 = sp + 0x40\n   763: a2 = 0xffffffffffffffff\n   766: a0 = 0\n   768: ecalli 6 // 'get_storage'\n   770: a0 = u64 [sp + 0x38]\n   773: a1 = u64 [sp + 0x30]\n   776: a2 = u64 [sp + 0x28]\n   779: a3 = u64 [sp + 0x20]\n   782: a0 = reverse a0\n   784: a1 = reverse a1\n   786: a2 = reverse a2\n   788: a3 = reverse a3\n   790: u64 [s1 + 0x18] = a3\n   793: u64 [s1 + 0x10] = a2\n   796: u64 [s1 + 0x8] = a1\n   799: u64 [s1] = a0\n   801: t0 = 6, jump @608\n      : @22 [@dyn 3] (gas: 1)\n   806: ret\n      : @23 (gas: 33)\n   808: sp = sp + 0xffffffffffffff20\n   812: u64 [sp + 0xd8] = ra\n   816: u64 [sp + 0xd0] = s0\n   820: u64 [sp + 0xc8] = s1\n   824: s0 = sp + 0xe0\n   828: sp = sp & 0xffffffffffffffe0\n   831: a5 = u64 [a4]\n   833: u64 [sp + 0x40] = a5\n   836: a5 = u64 [a4 + 0x8]\n   839: u64 [sp + 0x48] = a5\n   842: a5 = u64 [a4 + 0x10]\n   845: u64 [sp + 0x50] = a5\n   848: a4 = u64 [a4 + 0x18]\n   851: u64 [sp + 0x58] = a4\n   854: t0 = 0x8\n   857: a4 = u64 [a3]\n   859: u64 [sp + 0x18] = a4\n   862: a4 = u64 [a3 + 0x8]\n   865: u64 [sp + 0x20] = a4\n   868: a4 = u64 [a3 + 0x10]\n   871: u64 [sp + 0x28] = a4\n   874: a3 = u64 [a3 + 0x18]\n   877: u64 [sp + 0x30] = a3\n   880: s1 = u64 [a2]\n   882: a3 = u64 [a2 + 0x8]\n   885: u64 [sp] = a3\n   887: a3 = u64 [a2 + 0x10]\n   890: u64 [sp + 0x8] = a3\n   893: a2 = u64 [a2 + 0x18]\n   896: u64 [sp + 0x10] = a2\n   899: u64 [sp + 0x38] = a1\n   902: ra = 0xa\n   905: jump @26\n      : @24 [@dyn 4] (gas: 2)\n   908: u64 [sp + 0x38] = a1\n   911: ra = 10, jump @26\n      : @25 [@dyn 5] (gas: 46)\n   916: a1 = reverse s1\n   918: u64 [sp + 0x78] = a1\n   921: a1 = u64 [sp]\n   923: a1 = reverse a1\n   925: u64 [sp + 0x70] = a1\n   928: a1 = u64 [sp + 0x8]\n   931: a1 = reverse a1\n   933: u64 [sp + 0x68] = a1\n   936: a1 = u64 [sp + 0x10]\n   939: a1 = reverse a1\n   941: u64 [sp + 0x60] = a1\n   944: a1 = u64 [sp + 0x18]\n   947: a1 = reverse a1\n   949: u64 [sp + 0x98] = a1\n   953: a1 = u64 [sp + 0x20]\n   956: a1 = reverse a1\n   958: u64 [sp + 0x90] = a1\n   962: a1 = u64 [sp + 0x28]\n   965: a1 = reverse a1\n   967: u64 [sp + 0x88] = a1\n   971: a1 = u64 [sp + 0x30]\n   974: a1 = reverse a1\n   976: u64 [sp + 0x80] = a1\n   980: a1 = u64 [sp + 0x40]\n   983: a1 = reverse a1\n   985: u64 [sp + 0xb8] = a1\n   989: a1 = u64 [sp + 0x48]\n   992: a1 = reverse a1\n   994: u64 [sp + 0xb0] = a1\n   998: a1 = u64 [sp + 0x50]\n  1001: a1 = reverse a1\n  1003: u64 [sp + 0xa8] = a1\n  1007: a1 = u64 [sp + 0x58]\n  1010: a1 = reverse a1\n  1012: u64 [sp + 0xa0] = a1\n  1016: i32 a2 = a0 + 0\n  1018: a3 = i32 [sp + 0x38]\n  1021: i32 a0 = sp + 0x60\n  1024: a1 = 0x3\n  1027: ecalli 5 // 'deposit_event'\n  1029: sp = s0 + 0xffffffffffffff20\n  1033: ra = u64 [sp + 0xd8]\n  1037: s0 = u64 [sp + 0xd0]\n  1041: s1 = u64 [sp + 0xc8]\n  1045: sp = sp + 0xe0\n  1049: ret\n      : @26 (gas: 2)\n  1051: i32 a2 = a0 >> 0x10\n  1054: jump @31 if a2 != 0\n      : @27 (gas: 4)\n  1057: a1 = a1 + a0\n  1060: i32 a1 = a1 + 0x1f\n  1063: a1 = a1 & 0xffffffffffffffe0\n  1066: jump @31 if a1 >u 65536\n      : @28 (gas: 3)\n  1072: a2 = 0x200f4\n  1077: a3 = i32 [0x200f4]\n  1082: jump @30 if a3 >=u a1\n      : @29 (gas: 2)\n  1085: u32 [0x200f4] = a1\n  1090: fallthrough\n      : @30 (gas: 4)\n  1091: a1 = 0x20100\n  1096: i32 a0 = a0 + 0\n  1098: a0 = a0 + a1\n  1101: ret\n      : @31 (gas: 1)\n  1103: trap\n      : @32 (gas: 6)\n  1104: sp = sp + 0xfffffffffffffff0\n  1107: u64 [sp + 0x8] = ra\n  1110: u64 [sp] = s0\n  1112: s0 = a0 & 0x1\n  1115: ecalli 3 // 'call_data_size'\n  1117: fallthrough\n      : @33 (gas: 2)\n  1118: u32 [0x200f0] = a0\n  1123: jump @35 if s0 == 0\n      : @34 (gas: 3)\n  1126: ra = 0xc\n  1129: t0 = 0x10\n  1132: jump @597\n      : @35 [@dyn 6] (gas: 3)\n  1135: ra = 0xe\n  1138: t0 = 0x18\n  1141: jump @597\n      : @36 [@dyn 7] (gas: 1)\n  1144: t0 = 16, jump @597\n      : @37 [@dyn 8] (gas: 1)\n  1149: ra = 18, jump @19\n      : @38 [@dyn 9] (gas: 7)\n  1154: u64 [sp + 56] = 0\n  1157: u64 [sp + 48] = 0\n  1160: u64 [sp + 40] = 0\n  1163: u64 [sp + 32] = 0\n  1166: i32 a0 = sp + 0x20\n  1169: ecalli 12 // 'value_transferred'\n  1171: fallthrough\n      : @39 (gas: 8)\n  1172: a0 = u64 [sp + 0x30]\n  1175: a1 = u64 [sp + 0x38]\n  1178: a2 = u64 [sp + 0x28]\n  1181: a3 = u64 [sp + 0x20]\n  1184: a1 = a1 | a2\n  1187: a0 = a0 | a3\n  1190: a0 = a0 | a1\n  1193: jump @41 if a0 == 0\n      : @40 (gas: 8)\n  1196: a1 = 0x20100\n  1201: i32 a1 = a1 + 0\n  1203: a0 = 0x1\n  1206: a2 = 0\n  1208: ra = 0x16\n  1211: ecalli 9 // 'seal_return'\n  1213: t0 = 0x18\n  1216: jump @597\n      : @41 (gas: 2)\n  1219: a1 = i32 [0x200f4]\n  1224: jump @43 if a1 >u 127\n      : @42 (gas: 2)\n  1228: u32 [0x200f4] = 0x80\n  1235: fallthrough\n      : @43 (gas: 6)\n  1236: a0 = 0x20100\n  1241: i32 a0 = a0 + 0x80\n  1245: a1 = 0\n  1247: a2 = 0\n  1249: ecalli 1 // 'call_data_copy'\n  1251: jump @15\n      : @44 (gas: 3)\n  1254: a0 = 0x80\n  1258: a1 = 0\n  1260: ra = 20, jump @26\n      : @45 [@dyn 10] (gas: 7)\n  1265: i32 a1 = a0 + 0\n  1267: a0 = 0\n  1269: a2 = 0\n  1271: ra = 0x16\n  1274: ecalli 9 // 'seal_return'\n  1276: t0 = 0x18\n  1279: jump @597\n      : @46 [@dyn 11] (gas: 1)\n  1282: t0 = 24, jump @597\n      : @47 [@dyn 12] (gas: 1)\n  1287: ra = 26, jump @19\n      : @48 [@dyn 13] (gas: 2)\n  1292: a0 = i32 [0x200f0]\n  1297: jump @74 if a0 <u 4\n      : @49 (gas: 5)\n  1302: i32 a0 = sp + 0x20\n  1305: a1 = 0\n  1307: ra = 0x1c\n  1310: ecalli 2 // 'call_data_load'\n  1312: fallthrough\n      : @50 [@dyn 14] (gas: 3)\n  1313: a0 = i32 [sp + 0x3c]\n  1316: a1 = 0xffffffff95d89b41\n  1322: jump @67 if a0 == a1\n      : @51 (gas: 1)\n  1326: jump @62 if a0 == 2757214935\n      : @52 (gas: 2)\n  1333: a1 = 0xffffffffa9059cbb\n  1339: jump @71 if a0 == a1\n      : @53 (gas: 1)\n  1343: jump @66 if a0 == 3714247998\n      : @54 (gas: 2)\n  1351: a1 = 0x6fdde03\n  1357: jump @65 if a0 == a1\n      : @55 (gas: 2)\n  1360: a1 = 0x95ea7b3\n  1366: jump @70 if a0 == a1\n      : @56 (gas: 1)\n  1370: jump @63 if a0 == 404098525\n      : @57 (gas: 2)\n  1377: a1 = 0x1feeece2\n  1383: jump @64 if a0 == a1\n      : @58 (gas: 1)\n  1386: jump @68 if a0 == 599290589\n      : @59 (gas: 2)\n  1393: a1 = 0x313ce567\n  1399: jump @69 if a0 == a1\n      : @60 (gas: 1)\n  1402: jump @72 if a0 != 961581905\n      : @61 (gas: 1)\n  1410: ra = 30, jump @267\n      : @62 [@dyn 15] (gas: 1)\n  1415: ra = 32, jump @353\n      : @63 [@dyn 16] (gas: 14)\n  1420: ra = 0x22\n  1423: sp = sp + 0xfffffffffffffe00\n  1427: u64 [sp + 0x1f8] = ra\n  1431: u64 [sp + 0x1f0] = s0\n  1435: u64 [sp + 0x1e8] = s1\n  1439: s0 = sp + 0x200\n  1443: sp = sp & 0xffffffffffffffe0\n  1446: u64 [sp + 376] = 0\n  1450: u64 [sp + 368] = 0\n  1454: u64 [sp + 360] = 0\n  1458: u64 [sp + 352] = 0\n  1462: i32 a0 = sp + 0x160\n  1466: ecalli 12 // 'value_transferred'\n  1468: jump @162\n      : @64 [@dyn 17] (gas: 3)\n  1471: ra = 0x24\n  1474: t0 = 0xbe\n  1478: jump @606\n      : @65 [@dyn 18] (gas: 3)\n  1481: ra = 0x26\n  1484: t0 = 0x46\n  1487: jump @607\n      : @66 [@dyn 19] (gas: 1)\n  1490: ra = 40, jump @418\n      : @67 [@dyn 20] (gas: 3)\n  1495: ra = 0x2a\n  1498: t0 = 0x15a\n  1502: jump @607\n      : @68 [@dyn 21] (gas: 1)\n  1505: ra = 44, jump @207\n      : @69 [@dyn 22] (gas: 3)\n  1510: ra = 0x2e\n  1513: t0 = 0x104\n  1517: jump @606\n      : @70 [@dyn 23] (gas: 3)\n  1520: ra = 0x30\n  1523: t0 = 0x80\n  1527: jump @605\n      : @71 [@dyn 24] (gas: 3)\n  1530: ra = 0x32\n  1533: t0 = 0x1ac\n  1537: jump @605\n      : @72 [@dyn 25] (gas: 1)\n  1540: jump @74 if a0 != 1889567281\n      : @73 (gas: 1)\n  1547: ra = 52, jump @296\n      : @74 [@dyn 26] (gas: 7)\n  1552: a1 = 0x20100\n  1557: i32 a1 = a1 + 0\n  1559: a0 = 0x1\n  1562: a2 = 0\n  1564: ra = 0x36\n  1567: ecalli 9 // 'seal_return'\n  1569: fallthrough\n      : @75 [@dyn 27] (gas: 22)\n  1570: sp = sp + 0xfffffffffffffee0\n  1574: u64 [sp + 0x118] = ra\n  1578: u64 [sp + 0x110] = s0\n  1582: u64 [sp + 0x108] = s1\n  1586: s0 = sp + 0x120\n  1590: sp = sp & 0xfffffffffffffff0\n  1593: a4 = u64 [a1 + 0x10]\n  1596: a3 = u64 [a1 + 0x18]\n  1599: a5 = u64 [a1 + 0x8]\n  1602: t0 = u64 [a1]\n  1604: u64 [sp + 0x68] = a3\n  1607: u64 [sp + 0x78] = a5\n  1610: a1 = a5 | a3\n  1613: a3 = t0 | a4\n  1616: a3 = a3 | a1\n  1619: a3 = a3 >> 0x20\n  1622: u64 [sp + 0x70] = a4\n  1625: a1 = a1 | a4\n  1628: a1 = a1 << 0x20\n  1631: a1 = a1 | a3\n  1634: u64 [sp + 0x8] = a0\n  1637: jump @90 if a1 != 0\n      : @76 (gas: 15)\n  1641: a0 = u64 [a2 + 0x18]\n  1644: u64 [sp + 0x48] = a0\n  1647: s1 = u64 [a2 + 0x10]\n  1650: a0 = u64 [a2 + 0x8]\n  1653: u64 [sp + 0x50] = a0\n  1656: a0 = u64 [a2]\n  1658: u64 [sp + 0x58] = a0\n  1661: u64 [sp + 248] = 0\n  1665: u64 [sp + 240] = 0\n  1669: u64 [sp + 232] = 0\n  1673: a1 = sp + 0xe0\n  1677: u64 [sp + 224] = 0x20\n  1682: a0 = t0\n  1684: u64 [sp + 0x60] = t0\n  1687: ra = 56, jump @19\n      : @77 [@dyn 28] (gas: 12)\n  1692: a1 = u64 [sp + 0x58]\n  1695: a0 = a1 | s1\n  1698: a2 = u64 [sp + 0x48]\n  1701: a3 = u64 [sp + 0x50]\n  1704: a2 = a2 | a3\n  1707: a0 = a0 | a2\n  1710: a0 = a0 >> 0x20\n  1713: u64 [sp + 0x20] = s1\n  1716: a2 = a2 | s1\n  1719: a2 = a2 << 0x20\n  1722: a0 = a0 | a2\n  1725: jump @90 if a0 != 0\n      : @78 (gas: 2)\n  1729: a0 = sp + 0xc0\n  1733: ra = 58, jump @17\n      : @79 [@dyn 29] (gas: 13)\n  1738: a0 = u64 [sp + 0x70]\n  1741: a1 = u64 [sp + 0x68]\n  1744: a1 = a1 | a0\n  1747: a0 = 0x100000000\n  1757: u64 [sp + 0x10] = a0\n  1760: a0 = 0xffffffe0\n  1770: a2 = u64 [sp + 0x60]\n  1773: a0 = a2 <u a0\n  1776: a3 = u64 [sp + 0x78]\n  1779: a0 = 0 if a3 != 0\n  1781: u64 [sp + 0x18] = a1\n  1784: a0 = 0 if a1 != 0\n  1786: jump @90 if a0 == 0\n      : @80 (gas: 16)\n  1790: a3 = u64 [sp + 0xd8]\n  1794: a4 = u64 [sp + 0xd0]\n  1798: a5 = u64 [sp + 0xc8]\n  1802: a1 = u64 [sp + 0xc0]\n  1806: i32 a0 = a2 + 0x20\n  1809: u64 [sp + 0x28] = a1\n  1812: u64 [sp + 0xa0] = a1\n  1816: u64 [sp + 0x30] = a5\n  1819: u64 [sp + 0xa8] = a5\n  1823: u64 [sp + 0x38] = a4\n  1826: u64 [sp + 0xb0] = a4\n  1830: a1 = sp + 0xa0\n  1834: u64 [sp + 0x40] = a3\n  1837: u64 [sp + 0xb8] = a3\n  1841: s1 = a2\n  1843: ra = 60, jump @19\n      : @81 [@dyn 30] (gas: 8)\n  1848: a0 = u64 [sp + 0x10]\n  1851: a0 = a0 + 0xffffffffffffffc0\n  1854: a0 = s1 <u a0\n  1857: a1 = u64 [sp + 0x78]\n  1860: a0 = 0 if a1 != 0\n  1862: a1 = u64 [sp + 0x18]\n  1865: a0 = 0 if a1 != 0\n  1867: jump @90 if a0 == 0\n      : @82 (gas: 10)\n  1871: a0 = u64 [sp + 0x48]\n  1874: a1 = u64 [sp + 0x20]\n  1877: a0 = a0 | a1\n  1880: a1 = 0xffffffe0\n  1890: a3 = u64 [sp + 0x58]\n  1893: a1 = a3 <u a1\n  1896: a4 = u64 [sp + 0x50]\n  1899: a1 = 0 if a4 != 0\n  1901: a1 = 0 if a0 != 0\n  1903: jump @90 if a1 == 0\n      : @83 (gas: 13)\n  1907: a2 = s1\n  1909: a1 = u64 [sp + 0x28]\n  1912: a5 = u64 [sp + 0x38]\n  1915: a0 = a1 | a5\n  1918: a4 = u64 [sp + 0x40]\n  1921: s1 = u64 [sp + 0x30]\n  1924: a4 = a4 | s1\n  1927: a0 = a0 | a4\n  1930: a0 = a0 >> 0x20\n  1933: a4 = a4 | a5\n  1936: a4 = a4 << 0x20\n  1939: a0 = a0 | a4\n  1942: jump @90 if a0 != 0\n      : @84 (gas: 5)\n  1946: i32 a0 = a2 + 0x40\n  1949: i32 a3 = a3 + 0x20\n  1952: u64 [sp + 0x58] = a3\n  1955: s1 = a1\n  1957: ra = 62, jump @26\n      : @85 [@dyn 31] (gas: 4)\n  1962: u64 [sp + 0x50] = a0\n  1965: a0 = u64 [sp + 0x58]\n  1968: a1 = s1\n  1970: ra = 64, jump @26\n      : @86 [@dyn 32] (gas: 4)\n  1975: a1 = a0\n  1977: a0 = u64 [sp + 0x50]\n  1980: a2 = s1\n  1982: ra = 66, jump @0\n      : @87 [@dyn 33] (gas: 27)\n  1987: a0 = u64 [sp + 0x60]\n  1990: a0 = a0 + s1\n  1993: a1 = a0 <u s1\n  1996: a2 = u64 [sp + 0x78]\n  1999: a4 = u64 [sp + 0x30]\n  2002: a2 = a2 + a4\n  2005: a2 = a2 + a1\n  2008: a3 = a2 ^ a4\n  2011: a4 = a2 <u a4\n  2014: a4 = a1 if a3 == 0\n  2017: a1 = u64 [sp + 0x70]\n  2020: a3 = u64 [sp + 0x38]\n  2023: a1 = a1 + a3\n  2026: a3 = a1 <u a3\n  2029: a5 = u64 [sp + 0x68]\n  2032: s1 = u64 [sp + 0x40]\n  2035: a5 = a5 + s1\n  2038: a3 = a3 + a5\n  2041: a4 = a4 + a1\n  2044: a1 = a4 <u a1\n  2047: a1 = a1 + a3\n  2050: a1 = a1 | a4\n  2053: a3 = 0xffffffc0\n  2063: a3 = a0 <u a3\n  2066: a3 = 0 if a2 != 0\n  2068: a3 = 0 if a1 != 0\n  2070: jump @90 if a3 == 0\n      : @88 (gas: 7)\n  2074: i32 a0 = a0 + 0x40\n  2077: u64 [sp + 152] = 0\n  2081: u64 [sp + 144] = 0\n  2085: u64 [sp + 136] = 0\n  2089: a1 = sp + 0x80\n  2093: u64 [sp + 128] = 0\n  2097: ra = 68, jump @19\n      : @89 [@dyn 34] (gas: 35)\n  2102: s1 = u64 [sp + 0x28]\n  2105: s1 = s1 + 0x1f\n  2108: a0 = 0x1ffffffe0\n  2118: a0 = a0 & s1\n  2121: a1 = u64 [sp + 0x60]\n  2124: a0 = a0 + a1\n  2127: a1 = a0 <u a1\n  2130: a3 = u64 [sp + 0x78]\n  2133: a2 = a3 + a1\n  2136: a3 = a2 <u a3\n  2139: a3 = a1 if a1 == 0\n  2142: a1 = u64 [sp + 0x70]\n  2145: a3 = a3 + a1\n  2148: a1 = a3 <u a1\n  2151: a4 = u64 [sp + 0x68]\n  2154: a1 = a1 + a4\n  2157: a4 = a0 + 0x40\n  2160: a0 = a4 <u a0\n  2163: a5 = a2 + a0\n  2166: a2 = a5 <u a2\n  2169: a2 = a0 if a0 == 0\n  2172: a2 = a2 + a3\n  2175: a0 = a2 <u a3\n  2178: a0 = a0 + a1\n  2181: a1 = u64 [sp + 0x8]\n  2184: u64 [a1] = a4\n  2186: u64 [a1 + 0x8] = a5\n  2189: u64 [a1 + 0x10] = a2\n  2192: u64 [a1 + 0x18] = a0\n  2195: sp = s0 + 0xfffffffffffffee0\n  2199: ra = u64 [sp + 0x118]\n  2203: s0 = u64 [sp + 0x110]\n  2207: s1 = u64 [sp + 0x108]\n  2211: sp = sp + 0x120\n  2215: ret\n      : @90 (gas: 1)\n  2217: trap\n      : @91 [@dyn 35] (gas: 2)\n  2218: ecalli 12 // 'value_transferred'\n  2220: fallthrough\n      : @92 (gas: 8)\n  2221: a0 = u64 [sp + 0x150]\n  2225: a1 = u64 [sp + 0x158]\n  2229: a2 = u64 [sp + 0x148]\n  2233: a3 = u64 [sp + 0x140]\n  2237: a1 = a1 | a2\n  2240: a0 = a0 | a3\n  2243: a0 = a0 | a1\n  2246: jump @109 if a0 != 0\n      : @93 (gas: 2)\n  2250: a0 = i32 [0x200f0]\n  2255: jump @110 if a0 <=u 3\n      : @94 (gas: 7)\n  2260: u64 [sp + 280] = 0\n  2264: u64 [sp + 272] = 0\n  2268: u64 [sp + 256] = 0x40\n  2273: a0 = sp + 0x120\n  2277: a1 = sp + 0x100\n  2281: u64 [sp + 264] = 0\n  2285: ra = 72, jump @440\n      : @95 [@dyn 36] (gas: 5)\n  2290: a4 = u64 [sp + 0x138]\n  2294: s1 = u64 [sp + 0x130]\n  2298: a3 = u64 [sp + 0x128]\n  2302: a0 = u64 [sp + 0x120]\n  2306: t0 = 74, jump @593\n      : @96 [@dyn 37] (gas: 1)\n  2311: jump @108 if a1 != 0\n      : @97 (gas: 9)\n  2315: u64 [sp + 248] = 0\n  2319: u64 [sp + 240] = 0\n  2323: u64 [sp + 232] = 0\n  2327: a1 = sp + 0xe0\n  2331: u64 [sp + 224] = 0x4\n  2336: u64 [sp + 0x38] = a0\n  2339: u64 [sp + 0x30] = a3\n  2342: u64 [sp + 0x28] = a4\n  2345: ra = 76, jump @19\n      : @98 [@dyn 38] (gas: 1)\n  2350: t0 = 78, jump @602\n      : @99 [@dyn 39] (gas: 1)\n  2355: jump @108 if a1 == 0\n      : @100 (gas: 8)\n  2359: i32 a0 = a2 + 0x20\n  2362: u64 [sp + 208] = 0\n  2366: u64 [sp + 200] = 0\n  2370: a1 = 0x5265656600000000\n  2380: u64 [sp + 0xd8] = a1\n  2384: a1 = sp + 0xc0\n  2388: u64 [sp + 192] = 0\n  2392: ra = 80, jump @19\n      : @101 [@dyn 40] (gas: 3)\n  2397: a0 = sp + 0xa0\n  2401: a1 = 0x40\n  2404: ra = 82, jump @17\n      : @102 [@dyn 41] (gas: 1)\n  2409: t0 = 84, jump @590\n      : @103 [@dyn 42] (gas: 1)\n  2414: ra = 86, jump @75\n      : @104 [@dyn 43] (gas: 1)\n  2419: t0 = 88, jump @609\n      : @105 [@dyn 44] (gas: 1)\n  2424: jump @108 if a0 != 0\n      : @106 (gas: 1)\n  2427: t0 = 90, jump @594\n      : @107 [@dyn 45] (gas: 18)\n  2432: t0 = a1 - a5\n  2435: a1 = a1 <u a5\n  2438: a3 = a3 <u t2\n  2441: a5 = u64 [sp + 0x38]\n  2444: a5 = a5 - a2\n  2447: a5 = a5 - a3\n  2450: a5 = a5 - a1\n  2453: a0 = a0 - a4\n  2456: a0 = a0 - ra\n  2459: s1 = s1 - t1\n  2462: a0 = a0 | a5\n  2465: a2 = s1 | t0\n  2468: a2 = a2 | a0\n  2471: a0 = a0 | t0\n  2474: a2 = a2 >> 0x20\n  2477: a0 = a0 << 0x20\n  2480: a0 = a0 | a2\n  2483: jump @112 if a0 == 0\n      : @108 (gas: 1)\n  2486: trap\n      : @109 (gas: 2)\n  2487: a1 = 0x20100\n  2492: jump @111\n      : @110 (gas: 2)\n  2494: a1 = 0x20100\n  2499: fallthrough\n      : @111 (gas: 5)\n  2500: i32 a1 = a1 + 0\n  2502: a0 = 0x1\n  2505: a2 = 0\n  2507: ecalli 9 // 'seal_return'\n  2509: fallthrough\n      : @112 (gas: 3)\n  2510: a0 = t1\n  2512: a1 = s1\n  2514: ra = 92, jump @26\n      : @113 [@dyn 46] (gas: 7)\n  2519: i32 a1 = a0 + 0\n  2521: i32 a2 = s1 + 0\n  2523: a0 = 0\n  2525: ra = 0x5e\n  2528: ecalli 9 // 'seal_return'\n  2530: t0 = 0x60\n  2533: jump @622\n      : @114 [@dyn 47] (gas: 1)\n  2536: t0 = 96, jump @622\n      : @115 [@dyn 48] (gas: 5)\n  2541: a1 = 0x4\n  2544: ra = 0x62\n  2547: ecalli 2 // 'call_data_load'\n  2549: t0 = 0x64\n  2552: jump @601\n      : @116 [@dyn 49] (gas: 1)\n  2555: t0 = 100, jump @601\n      : @117 [@dyn 50] (gas: 1)\n  2560: jump @120 if a3 == 0\n      : @118 (gas: 1)\n  2563: t0 = 102, jump @613\n      : @119 [@dyn 51] (gas: 1)\n  2568: ret\n      : @120 (gas: 8)\n  2570: a1 = 0x20100\n  2575: i32 a1 = a1 + 0\n  2577: a0 = 0x1\n  2580: a2 = 0\n  2582: ra = 0x68\n  2585: ecalli 9 // 'seal_return'\n  2587: t0 = 0x6a\n  2590: jump @612\n      : @121 [@dyn 52] (gas: 1)\n  2593: t0 = 106, jump @612\n      : @122 [@dyn 53] (gas: 4)\n  2598: ra = 0x6c\n  2601: ecalli 2 // 'call_data_load'\n  2603: t0 = 0x6e\n  2606: jump @601\n      : @123 [@dyn 54] (gas: 1)\n  2609: t0 = 110, jump @601\n      : @124 [@dyn 55] (gas: 1)\n  2614: jump @127 if a3 == 0\n      : @125 (gas: 1)\n  2617: t0 = 112, jump @613\n      : @126 [@dyn 56] (gas: 1)\n  2622: ret\n      : @127 (gas: 8)\n  2624: a1 = 0x20100\n  2629: i32 a1 = a1 + 0\n  2631: a0 = 0x1\n  2634: a2 = 0\n  2636: ra = 0x72\n  2639: ecalli 9 // 'seal_return'\n  2641: t0 = 0x74\n  2644: jump @612\n      : @128 [@dyn 57] (gas: 1)\n  2647: t0 = 116, jump @612\n      : @129 [@dyn 58] (gas: 2)\n  2652: ecalli 2 // 'call_data_load'\n  2654: t0 = 118, jump @604\n      : @130 [@dyn 59] (gas: 1)\n  2659: ret\n      : @131 [@dyn 60] (gas: 3)\n  2661: a1 = 0x44\n  2664: ecalli 2 // 'call_data_load'\n  2666: t0 = 122, jump @604\n      : @132 [@dyn 61] (gas: 1)\n  2671: ret\n      : @133 (gas: 12)\n  2673: a3 = u64 [a1 + 0x10]\n  2676: t0 = u64 [a1 + 0x18]\n  2679: a5 = u64 [a1 + 0x8]\n  2682: a4 = u64 [a1]\n  2684: a1 = a5 | t0\n  2687: a2 = a4 | a3\n  2690: a2 = a2 | a1\n  2693: a2 = a2 >> 0x20\n  2696: a1 = a1 | a3\n  2699: a1 = a1 << 0x20\n  2702: a1 = a1 | a2\n  2705: jump @137 if a1 != 0\n      : @134 (gas: 26)\n  2708: sp = sp + 0xffffffffffffffa0\n  2711: u64 [sp + 0x58] = ra\n  2714: u64 [sp + 0x50] = s0\n  2717: u64 [sp + 0x48] = s1\n  2720: s0 = sp + 0x60\n  2723: sp = sp & 0xfffffffffffffff0\n  2726: s1 = a0\n  2728: a0 = a4 + 0x20\n  2731: u64 [sp + 0x18] = a0\n  2734: a0 = a0 <u a4\n  2737: a1 = a5 + a0\n  2740: u64 [sp + 0x10] = a1\n  2743: a1 = a1 <u a5\n  2746: a1 = a0 if a0 == 0\n  2749: a1 = a1 + a3\n  2752: u64 [sp] = a1\n  2754: a0 = a1 <u a3\n  2757: a0 = a0 + t0\n  2760: u64 [sp + 0x8] = a0\n  2763: u64 [sp + 56] = 0\n  2766: u64 [sp + 48] = 0\n  2769: u64 [sp + 32] = 0x1\n  2773: a1 = sp + 0x20\n  2776: u64 [sp + 40] = 0\n  2779: a0 = a4\n  2781: ra = 124, jump @19\n      : @135 [@dyn 62] (gas: 9)\n  2786: a0 = u64 [sp + 0x10]\n  2789: u64 [s1 + 0x8] = a0\n  2792: a0 = u64 [sp + 0x18]\n  2795: u64 [s1] = a0\n  2797: a0 = u64 [sp]\n  2799: u64 [s1 + 0x10] = a0\n  2802: a0 = u64 [sp + 0x8]\n  2805: u64 [s1 + 0x18] = a0\n  2808: t0 = 126, jump @608\n      : @136 [@dyn 63] (gas: 1)\n  2813: ret\n      : @137 (gas: 1)\n  2815: trap\n      : @138 [@dyn 64] (gas: 2)\n  2816: ecalli 12 // 'value_transferred'\n  2818: fallthrough\n      : @139 (gas: 8)\n  2819: a0 = u64 [sp + 0x110]\n  2823: a1 = u64 [sp + 0x118]\n  2827: a2 = u64 [sp + 0x108]\n  2831: a3 = u64 [sp + 0x100]\n  2835: a1 = a1 | a2\n  2838: a0 = a0 | a3\n  2841: a0 = a0 | a1\n  2844: jump @150 if a0 != 0\n      : @140 (gas: 3)\n  2847: a0 = i32 [0x200f0]\n  2852: a1 = 0x43\n  2855: jump @151 if a1 >=u a0\n      : @141 (gas: 4)\n  2858: a0 = sp + 0xe0\n  2862: ra = 0x82\n  2866: t0 = 0x60\n  2869: jump @622\n      : @142 [@dyn 65] (gas: 1)\n  2872: t0 = 132, jump @615\n      : @143 [@dyn 66] (gas: 15)\n  2878: ecalli 2 // 'call_data_load'\n  2880: a0 = u64 [sp + 0x120]\n  2884: u64 [sp + 0x18] = a0\n  2887: a0 = u64 [sp + 0x128]\n  2891: u64 [sp + 0x10] = a0\n  2894: a0 = u64 [sp + 0x130]\n  2898: u64 [sp + 0x8] = a0\n  2901: a0 = u64 [sp + 0x138]\n  2905: u64 [sp] = a0\n  2907: s1 = 0x30100\n  2912: i32 a0 = s1 + 0\n  2914: ra = 0x86\n  2918: ecalli 4 // 'caller'\n  2920: t0 = 0x88\n  2924: jump @588\n      : @144 [@dyn 67] (gas: 1)\n  2927: t0 = 136, jump @588\n      : @145 [@dyn 68] (gas: 1)\n  2933: ra = 138, jump @472\n      : @146 [@dyn 69] (gas: 3)\n  2939: a0 = sp + 0x60\n  2942: a1 = 0x40\n  2945: ra = 140, jump @17\n      : @147 [@dyn 70] (gas: 1)\n  2951: t0 = 142, jump @591\n      : @148 [@dyn 71] (gas: 1)\n  2957: jump @153 if a0 == 0\n      : @149 (gas: 1)\n  2960: trap\n      : @150 (gas: 2)\n  2961: a1 = 0x20100\n  2966: jump @152\n      : @151 (gas: 2)\n  2968: a1 = 0x20100\n  2973: fallthrough\n      : @152 (gas: 5)\n  2974: i32 a1 = a1 + 0\n  2976: a0 = 0x1\n  2979: a2 = 0\n  2981: ecalli 9 // 'seal_return'\n  2983: fallthrough\n      : @153 (gas: 7)\n  2984: u64 [sp + 88] = 0\n  2987: u64 [sp + 80] = 0\n  2990: u64 [sp + 72] = 0\n  2993: a1 = sp + 0x40\n  2996: u64 [sp + 64] = 0x1\n  3000: a0 = s1\n  3002: ra = 144, jump @19\n      : @154 [@dyn 72] (gas: 3)\n  3008: a1 = 0x20\n  3011: a0 = s1\n  3013: ra = 146, jump @26\n      : @155 [@dyn 73] (gas: 1)\n  3019: t0 = 148, jump @619\n      : @156 [@dyn 74] (gas: 3)\n  3025: ra = 0x96\n  3029: ecalli 9 // 'seal_return'\n  3031: fallthrough\n      : @157 [@dyn 75] (gas: 12)\n  3032: a4 = u64 [a1 + 0x10]\n  3035: t0 = u64 [a1 + 0x18]\n  3038: a5 = u64 [a1 + 0x8]\n  3041: t1 = u64 [a1]\n  3043: a1 = a5 | t0\n  3046: a3 = t1 | a4\n  3049: a3 = a3 | a1\n  3052: a3 = a3 >> 0x20\n  3055: a1 = a1 | a4\n  3058: a1 = a1 << 0x20\n  3061: a1 = a1 | a3\n  3064: jump @161 if a1 != 0\n      : @158 (gas: 30)\n  3067: sp = sp + 0xffffffffffffffa0\n  3070: u64 [sp + 0x58] = ra\n  3073: u64 [sp + 0x50] = s0\n  3076: u64 [sp + 0x48] = s1\n  3079: s0 = sp + 0x60\n  3082: sp = sp & 0xfffffffffffffff0\n  3085: s1 = a0\n  3087: t2 = u64 [a2 + 0x18]\n  3090: ra = u64 [a2 + 0x10]\n  3093: a3 = u64 [a2 + 0x8]\n  3096: a2 = u64 [a2]\n  3098: a0 = t1 + 0x20\n  3101: u64 [sp + 0x18] = a0\n  3104: a0 = a0 <u t1\n  3107: a1 = a5 + a0\n  3110: u64 [sp + 0x10] = a1\n  3113: a5 = a1 <u a5\n  3116: a5 = a0 if a0 == 0\n  3119: a5 = a5 + a4\n  3122: u64 [sp] = a5\n  3124: a0 = a5 <u a4\n  3127: a0 = a0 + t0\n  3130: u64 [sp + 0x8] = a0\n  3133: u64 [sp + 0x20] = a2\n  3136: u64 [sp + 0x28] = a3\n  3139: u64 [sp + 0x30] = ra\n  3142: a1 = sp + 0x20\n  3145: u64 [sp + 0x38] = t2\n  3148: a0 = t1\n  3150: ra = 152, jump @19\n      : @159 [@dyn 76] (gas: 9)\n  3156: a0 = u64 [sp]\n  3158: u64 [s1 + 0x10] = a0\n  3161: a0 = u64 [sp + 0x10]\n  3164: u64 [s1 + 0x8] = a0\n  3167: a0 = u64 [sp + 0x18]\n  3170: u64 [s1] = a0\n  3172: a0 = u64 [sp + 0x8]\n  3175: u64 [s1 + 0x18] = a0\n  3178: t0 = 154, jump @608\n      : @160 [@dyn 77] (gas: 1)\n  3184: ret\n      : @161 (gas: 1)\n  3186: trap\n      : @162 (gas: 8)\n  3187: a0 = u64 [sp + 0x170]\n  3191: a1 = u64 [sp + 0x178]\n  3195: a2 = u64 [sp + 0x168]\n  3199: a3 = u64 [sp + 0x160]\n  3203: a1 = a1 | a2\n  3206: a0 = a0 | a3\n  3209: a0 = a0 | a1\n  3212: jump @184 if a0 != 0\n      : @163 (gas: 4)\n  3216: a0 = 0x200f0\n  3221: u64 [sp + 0x30] = a0\n  3224: a0 = i32 [0x200f0]\n  3229: jump @185 if a0 <=u 3\n      : @164 (gas: 7)\n  3234: u64 [sp + 312] = 0\n  3238: u64 [sp + 304] = 0\n  3242: u64 [sp + 288] = 0x40\n  3247: a0 = sp + 0x140\n  3251: a1 = sp + 0x120\n  3255: u64 [sp + 296] = 0\n  3259: ra = 156, jump @440\n      : @165 [@dyn 78] (gas: 5)\n  3265: a4 = u64 [sp + 0x158]\n  3269: s1 = u64 [sp + 0x150]\n  3273: a3 = u64 [sp + 0x148]\n  3277: a0 = u64 [sp + 0x140]\n  3281: t0 = 158, jump @593\n      : @166 [@dyn 79] (gas: 1)\n  3287: jump @183 if a1 != 0\n      : @167 (gas: 8)\n  3291: a1 = u64 [sp + 0x30]\n  3294: a1 = i32 [a1]\n  3296: u64 [sp + 0x18] = a1\n  3299: a1 = 0x40\n  3302: u64 [sp + 0x38] = a0\n  3305: u64 [sp + 0x28] = a3\n  3308: u64 [sp + 0x20] = a4\n  3311: ra = 160, jump @26\n      : @168 [@dyn 80] (gas: 11)\n  3317: i32 a0 = a0 + 0\n  3319: a1 = 0x40\n  3322: a2 = u64 [sp + 0x18]\n  3325: ecalli 1 // 'call_data_copy'\n  3327: u64 [sp + 280] = 0\n  3331: u64 [sp + 272] = 0\n  3335: u64 [sp + 264] = 0\n  3339: a1 = sp + 0x100\n  3343: u64 [sp + 256] = 0\n  3347: a0 = u64 [sp + 0x38]\n  3350: ra = 162, jump @19\n      : @169 [@dyn 81] (gas: 9)\n  3356: a2 = u64 [sp + 0x38]\n  3359: a0 = u64 [sp + 0x20]\n  3362: a0 = a0 | s1\n  3365: a1 = 0xffffffe0\n  3375: a1 = a2 <u a1\n  3378: a3 = u64 [sp + 0x28]\n  3381: a1 = 0 if a3 != 0\n  3383: a1 = 0 if a0 != 0\n  3385: jump @183 if a1 == 0\n      : @170 (gas: 7)\n  3389: i32 a0 = a2 + 0x20\n  3392: u64 [sp + 248] = 0\n  3396: u64 [sp + 240] = 0\n  3400: u64 [sp + 232] = 0\n  3404: a1 = sp + 0xe0\n  3408: u64 [sp + 224] = 0\n  3412: ra = 164, jump @19\n      : @171 [@dyn 82] (gas: 7)\n  3418: u64 [sp + 184] = 0\n  3422: u64 [sp + 176] = 0\n  3426: u64 [sp + 168] = 0\n  3430: a0 = sp + 0xc0\n  3434: a1 = sp + 0xa0\n  3438: u64 [sp + 160] = 0x20\n  3443: ra = 166, jump @440\n      : @172 [@dyn 83] (gas: 5)\n  3449: a0 = u64 [sp + 0xd8]\n  3453: a1 = u64 [sp + 0xd0]\n  3457: a2 = u64 [sp + 0xc8]\n  3461: a3 = u64 [sp + 0xc0]\n  3465: t0 = 168, jump @614\n      : @173 [@dyn 84] (gas: 1)\n  3471: jump @183 if a0 != 0\n      : @174 (gas: 6)\n  3475: a0 = u64 [sp + 0x30]\n  3478: s1 = i32 [a0]\n  3480: a1 = 0x20\n  3483: a0 = a3\n  3485: u64 [sp + 0x30] = a3\n  3488: ra = 170, jump @26\n      : @175 [@dyn 85] (gas: 16)\n  3494: i32 a0 = a0 + 0\n  3496: a1 = 0x20\n  3499: a2 = s1\n  3501: ecalli 1 // 'call_data_copy'\n  3503: ecalli 8 // 'ref_time_left'\n  3505: s1 = 0x30100\n  3510: u64 [0x30108] = 0\n  3515: u64 [0x30100] = 0\n  3520: u32 [0x30110] = 0x40000\n  3528: u64 [sp + 408] = 0\n  3532: u64 [sp + 400] = 0\n  3536: u64 [sp + 392] = 0\n  3540: u64 [sp + 384] = 0\n  3544: a1 = 0x40\n  3547: a0 = u64 [sp + 0x38]\n  3550: ra = 172, jump @26\n      : @176 [@dyn 86] (gas: 4)\n  3556: u64 [sp + 0x38] = a0\n  3559: a1 = 0x20\n  3562: a0 = u64 [sp + 0x30]\n  3565: ra = 174, jump @26\n      : @177 [@dyn 87] (gas: 30)\n  3571: u32 [sp + 416] = 0x20\n  3576: u64 [sp + 472] = 0\n  3580: u64 [sp + 464] = 0\n  3584: u64 [sp + 456] = 0\n  3588: u64 [sp + 448] = 0\n  3592: s1 = s1 << 0x20\n  3595: s1 = s1 >> 0x20\n  3598: a1 = 0x1800000000\n  3608: s1 = s1 | a1\n  3611: a1 = sp + 0x180\n  3615: a1 = a1 << 0x20\n  3618: a1 = a1 >> 0x20\n  3621: a2 = sp + 0x1c0\n  3625: a2 = a2 << 0x20\n  3628: a3 = a2 | a1\n  3631: a1 = u64 [sp + 0x38]\n  3634: a1 = a1 << 0x20\n  3637: a1 = a1 >> 0x20\n  3640: a2 = 0x4000000000\n  3650: a4 = a1 | a2\n  3653: a0 = a0 << 0x20\n  3656: a0 = a0 >> 0x20\n  3659: a1 = sp + 0x1a0\n  3663: a1 = a1 << 0x20\n  3666: a5 = a1 | a0\n  3669: a1 = 0xffffffffffffffff\n  3672: a2 = 0xffffffffffffffff\n  3675: a0 = s1\n  3677: ecalli 0 // 'call'\n  3678: fallthrough\n      : @178 (gas: 1)\n  3679: jump @187 if a0 != 0\n      : @179 (gas: 3)\n  3682: a0 = sp + 0x80\n  3686: a1 = u64 [sp + 0x30]\n  3689: ra = 176, jump @17\n      : @180 [@dyn 88] (gas: 11)\n  3695: a0 = u64 [sp + 0x98]\n  3699: u64 [sp + 0x38] = a0\n  3702: a0 = u64 [sp + 0x90]\n  3706: u64 [sp + 0x30] = a0\n  3709: a0 = u64 [sp + 0x88]\n  3713: u64 [sp + 0x28] = a0\n  3716: a0 = u64 [sp + 0x80]\n  3720: u64 [sp + 0x20] = a0\n  3723: a0 = sp + 0x60\n  3726: a1 = 0x40\n  3729: ra = 178, jump @17\n      : @181 [@dyn 89] (gas: 1)\n  3735: t0 = 180, jump @591\n      : @182 [@dyn 90] (gas: 1)\n  3741: jump @188 if a0 == 0\n      : @183 (gas: 1)\n  3744: trap\n      : @184 (gas: 2)\n  3745: a1 = 0x20100\n  3750: jump @186\n      : @185 (gas: 2)\n  3752: a1 = 0x20100\n  3757: fallthrough\n      : @186 (gas: 6)\n  3758: i32 a1 = a1 + 0\n  3760: a0 = 0x1\n  3763: a2 = 0\n  3765: ecalli 9 // 'seal_return'\n  3767: a1 = 0x20100\n  3772: jump @186\n      : @187 (gas: 2)\n  3774: a1 = 0x20100\n  3779: jump @186\n      : @188 (gas: 11)\n  3781: a0 = u64 [sp + 0x20]\n  3784: u64 [sp + 0x40] = a0\n  3787: a0 = u64 [sp + 0x28]\n  3790: u64 [sp + 0x48] = a0\n  3793: a0 = u64 [sp + 0x30]\n  3796: u64 [sp + 0x50] = a0\n  3799: a1 = sp + 0x40\n  3802: a0 = u64 [sp + 0x38]\n  3805: u64 [sp + 0x58] = a0\n  3808: a0 = s1\n  3810: ra = 182, jump @19\n      : @189 [@dyn 91] (gas: 3)\n  3816: a1 = 0x20\n  3819: a0 = s1\n  3821: ra = 184, jump @26\n      : @190 [@dyn 92] (gas: 1)\n  3827: t0 = 186, jump @619\n      : @191 [@dyn 93] (gas: 4)\n  3833: ra = 0xbc\n  3837: ecalli 9 // 'seal_return'\n  3839: t0 = 0xbe\n  3843: jump @606\n      : @192 [@dyn 94] (gas: 1)\n  3846: t0 = 190, jump @606\n      : @193 [@dyn 95] (gas: 2)\n  3852: ecalli 12 // 'value_transferred'\n  3854: fallthrough\n      : @194 (gas: 8)\n  3855: a0 = u64 [sp + 0x50]\n  3858: a1 = u64 [sp + 0x58]\n  3861: a2 = u64 [sp + 0x48]\n  3864: a3 = u64 [sp + 0x40]\n  3867: a1 = a1 | a2\n  3870: a0 = a0 | a3\n  3873: a0 = a0 | a1\n  3876: jump @200 if a0 != 0\n      : @195 (gas: 2)\n  3879: a0 = i32 [0x200f0]\n  3884: jump @201 if a0 <=u 3\n      : @196 (gas: 3)\n  3888: a0 = sp + 0x20\n  3891: a1 = 0x40\n  3894: ra = 192, jump @17\n      : @197 [@dyn 96] (gas: 1)\n  3900: t0 = 194, jump @611\n      : @198 [@dyn 97] (gas: 1)\n  3906: jump @203 if a0 == 0\n      : @199 (gas: 1)\n  3909: trap\n      : @200 (gas: 2)\n  3910: a1 = 0x20100\n  3915: jump @202\n      : @201 (gas: 2)\n  3917: a1 = 0x20100\n  3922: fallthrough\n      : @202 (gas: 5)\n  3923: i32 a1 = a1 + 0\n  3925: a0 = 0x1\n  3928: a2 = 0\n  3930: ecalli 9 // 'seal_return'\n  3932: fallthrough\n      : @203 (gas: 7)\n  3933: u64 [sp + 24] = 0\n  3936: u64 [sp + 16] = 0\n  3939: u64 [sp + 8] = 0\n  3942: a1 = sp\n  3944: u64 [sp + 0] = 0\n  3946: a0 = s1\n  3948: ra = 196, jump @19\n      : @204 [@dyn 98] (gas: 3)\n  3954: a1 = 0x20\n  3957: a0 = s1\n  3959: ra = 198, jump @26\n      : @205 [@dyn 99] (gas: 1)\n  3965: t0 = 200, jump @619\n      : @206 [@dyn 100] (gas: 3)\n  3971: ra = 0xca\n  3975: ecalli 9 // 'seal_return'\n  3977: fallthrough\n      : @207 [@dyn 101] (gas: 15)\n  3978: sp = sp + 0xfffffffffffffbc0\n  3982: a0 = sp + 0x400\n  3986: u64 [a0 + 0x38] = ra\n  3989: u64 [a0 + 0x30] = s0\n  3992: u64 [a0 + 0x28] = s1\n  3995: s0 = sp + 0x440\n  3999: sp = sp & 0xffffffffffffffe0\n  4002: s1 = sp\n  4004: u64 [s1 + 1016] = 0\n  4008: u64 [s1 + 1008] = 0\n  4012: u64 [s1 + 1000] = 0\n  4016: u64 [s1 + 992] = 0\n  4020: i32 a0 = s1 + 0x3e0\n  4024: ecalli 12 // 'value_transferred'\n  4026: fallthrough\n      : @208 (gas: 9)\n  4027: a4 = s1 + 0x300\n  4031: a0 = u64 [a4 + 0xf0]\n  4035: a1 = u64 [a4 + 0xf8]\n  4039: a2 = u64 [a4 + 0xe8]\n  4043: a3 = u64 [a4 + 0xe0]\n  4047: a1 = a1 | a2\n  4050: a0 = a0 | a3\n  4053: a0 = a0 | a1\n  4056: jump @247 if a0 != 0\n      : @209 (gas: 3)\n  4060: a0 = i32 [0x200f0]\n  4065: a1 = 0x63\n  4068: jump @248 if a1 >=u a0\n      : @210 (gas: 4)\n  4072: a0 = s1 + 0x3c0\n  4076: ra = 0xcc\n  4080: t0 = 0x60\n  4083: jump @622\n      : @211 [@dyn 102] (gas: 12)\n  4086: a0 = u64 [s1 + 0x3d8]\n  4090: u64 [s1 + 0x60] = a0\n  4093: a0 = u64 [s1 + 0x3d0]\n  4097: u64 [s1 + 0x68] = a0\n  4100: a0 = u64 [s1 + 0x3c8]\n  4104: u64 [s1 + 0x70] = a0\n  4107: a0 = u64 [s1 + 0x3c0]\n  4111: u64 [s1 + 0x78] = a0\n  4114: a0 = s1 + 0x3a0\n  4118: ra = 0xce\n  4122: t0 = 0x6a\n  4125: jump @612\n      : @212 [@dyn 103] (gas: 12)\n  4128: a0 = u64 [s1 + 0x3a0]\n  4132: u64 [s1 + 0x58] = a0\n  4135: a0 = u64 [s1 + 0x3a8]\n  4139: u64 [s1 + 0x30] = a0\n  4142: a0 = u64 [s1 + 0x3b0]\n  4146: u64 [s1 + 0x28] = a0\n  4149: a0 = u64 [s1 + 0x3b8]\n  4153: u64 [s1 + 0x20] = a0\n  4156: a0 = s1 + 0x380\n  4160: ra = 0xd0\n  4164: t0 = 0x78\n  4167: jump @622\n      : @213 [@dyn 104] (gas: 32)\n  4170: a0 = u64 [s1 + 0x398]\n  4174: a1 = u64 [s1 + 0x390]\n  4178: a2 = u64 [s1 + 0x388]\n  4182: a3 = u64 [s1 + 0x380]\n  4186: u64 [s1 + 0x50] = a0\n  4189: u64 [s1 + 0x338] = a0\n  4193: u64 [s1 + 0x48] = a1\n  4196: u64 [s1 + 0x330] = a1\n  4200: u64 [s1 + 0x40] = a2\n  4203: u64 [s1 + 0x328] = a2\n  4207: u64 [s1 + 0x38] = a3\n  4210: u64 [s1 + 0x320] = a3\n  4214: a0 = u64 [s1 + 0x20]\n  4217: u64 [s1 + 0x358] = a0\n  4221: a0 = u64 [s1 + 0x28]\n  4224: u64 [s1 + 0x350] = a0\n  4228: a0 = u64 [s1 + 0x30]\n  4231: u64 [s1 + 0x348] = a0\n  4235: a0 = u64 [s1 + 0x58]\n  4238: u64 [s1 + 0x340] = a0\n  4242: a0 = u64 [s1 + 0x60]\n  4245: u64 [s1 + 0x378] = a0\n  4249: a0 = u64 [s1 + 0x68]\n  4252: u64 [s1 + 0x370] = a0\n  4256: a0 = u64 [s1 + 0x70]\n  4259: u64 [s1 + 0x368] = a0\n  4263: a0 = s1 + 0x360\n  4267: a1 = s1 + 0x340\n  4271: a2 = s1 + 0x320\n  4275: a3 = u64 [s1 + 0x78]\n  4278: u64 [s1 + 0x360] = a3\n  4282: ra = 210, jump @519\n      : @214 [@dyn 105] (gas: 13)\n  4288: a0 = u64 [s1 + 0x68]\n  4291: a0 = a0 << 0x20\n  4294: a0 = a0 >> 0x20\n  4297: u64 [s1 + 792] = 0\n  4301: a2 = s1 + 0x300\n  4305: u64 [a2 + 0x10] = a0\n  4308: a0 = u64 [s1 + 0x70]\n  4311: u64 [a2 + 0x8] = a0\n  4314: a1 = s1 + 0x300\n  4318: a0 = u64 [s1 + 0x78]\n  4321: u64 [a2] = a0\n  4323: a0 = 0\n  4325: ra = 212, jump @19\n      : @215 [@dyn 106] (gas: 7)\n  4331: u64 [s1 + 760] = 0\n  4335: u64 [s1 + 752] = 0\n  4339: u64 [s1 + 744] = 0\n  4343: a0 = 0x20\n  4346: a1 = s1 + 0x2e0\n  4350: u64 [s1 + 736] = 0\n  4354: ra = 214, jump @19\n      : @216 [@dyn 107] (gas: 2)\n  4360: a1 = i32 [0x200f4]\n  4365: jump @218 if a1 >u 63\n      : @217 (gas: 2)\n  4369: u32 [0x200f4] = 0x40\n  4375: fallthrough\n      : @218 (gas: 31)\n  4376: a0 = sp + 0xffffffffffffffe0\n  4379: a2 = a0 & 0xffffffffffffffe0\n  4382: u64 [s1 + 0x58] = a2\n  4385: sp = a2\n  4387: a0 = 0x20100\n  4392: i32 a0 = a0 + 0\n  4394: i32 a2 = a2 + 0\n  4396: a1 = 0x40\n  4399: ecalli 7 // 'hash_keccak_256'\n  4401: a3 = u64 [s1 + 0x58]\n  4404: a0 = u64 [a3 + 0x18]\n  4407: a1 = u64 [a3 + 0x10]\n  4410: a2 = u64 [a3 + 0x8]\n  4413: a3 = u64 [a3]\n  4415: a0 = reverse a0\n  4417: u64 [s1 + 0x30] = a0\n  4420: a0 = reverse a1\n  4422: u64 [s1 + 0x28] = a0\n  4425: a0 = reverse a2\n  4427: u64 [s1 + 0x20] = a0\n  4430: a0 = reverse a3\n  4432: u64 [s1 + 0x18] = a0\n  4435: a0 = 0x30100\n  4440: u64 [s1 + 0x58] = a0\n  4443: i32 a0 = a0 + 0\n  4445: u64 [s1 + 0x10] = a0\n  4448: ra = 0xd8\n  4452: ecalli 4 // 'caller'\n  4454: a2 = u64 [s1 + 0x58]\n  4457: t0 = 0xda\n  4461: jump @587\n      : @219 [@dyn 108] (gas: 2)\n  4464: a2 = u64 [s1 + 0x58]\n  4467: t0 = 218, jump @587\n      : @220 [@dyn 109] (gas: 16)\n  4473: u64 [s1 + 664] = 0\n  4477: a2 = u64 [s1 + 0x18]\n  4480: u64 [s1 + 0x2b8] = a2\n  4484: a2 = u64 [s1 + 0x20]\n  4487: u64 [s1 + 0x2b0] = a2\n  4491: a2 = u64 [s1 + 0x28]\n  4494: u64 [s1 + 0x2a8] = a2\n  4498: a2 = u64 [s1 + 0x30]\n  4501: u64 [s1 + 0x2a0] = a2\n  4505: u64 [s1 + 0x290] = a1\n  4509: u64 [s1 + 0x288] = a0\n  4513: a0 = s1 + 0x2c0\n  4517: a1 = s1 + 0x2a0\n  4521: a2 = s1 + 0x280\n  4525: u64 [s1 + 0x280] = a3\n  4529: ra = 220, jump @457\n      : @221 [@dyn 110] (gas: 12)\n  4535: a0 = u64 [s1 + 0x2d8]\n  4539: a1 = u64 [s1 + 0x2d0]\n  4543: a2 = u64 [s1 + 0x2c8]\n  4547: a3 = u64 [s1 + 0x2c0]\n  4551: a4 = s1 + 0x400\n  4555: u64 [a4 + 0x18] = a0\n  4558: u64 [a4 + 0x10] = a1\n  4561: u64 [a4 + 0x8] = a2\n  4564: u64 [a4] = a3\n  4566: a0 = s1 + 0x260\n  4570: a1 = s1 + 0x400\n  4574: ra = 222, jump @21\n      : @222 [@dyn 111] (gas: 22)\n  4580: a1 = u64 [s1 + 0x278]\n  4584: ra = u64 [s1 + 0x268]\n  4588: t2 = u64 [s1 + 0x270]\n  4592: a3 = u64 [s1 + 0x260]\n  4596: a0 = u64 [s1 + 0x50]\n  4599: a4 = a1 ^ a0\n  4602: t0 = u64 [s1 + 0x40]\n  4605: a5 = ra ^ t0\n  4608: a2 = ra <u t0\n  4611: t1 = u64 [s1 + 0x38]\n  4614: u64 [s1 + 0x28] = a3\n  4617: a3 = a3 <u t1\n  4620: a3 = a2 if a5 != 0\n  4623: u64 [s1 + 0x30] = a1\n  4626: a2 = a1 <u a0\n  4629: a1 = u64 [s1 + 0x48]\n  4632: a5 = t2 <u a1\n  4635: a5 = a2 if a4 != 0\n  4638: a2 = t2 ^ a1\n  4641: a2 = a2 | a4\n  4644: a3 = a5 if a2 != 0\n  4647: jump @237 if a3 == 0\n      : @223 (gas: 3)\n  4651: a0 = s1 + 0x120\n  4655: a1 = 0x40\n  4658: ra = 224, jump @17\n      : @224 [@dyn 112] (gas: 13)\n  4664: a1 = s1 + 0x100\n  4668: a4 = u64 [a1 + 0x38]\n  4671: a5 = u64 [a1 + 0x30]\n  4674: a3 = u64 [a1 + 0x28]\n  4677: a0 = u64 [a1 + 0x20]\n  4680: a2 = a3 | a4\n  4683: a1 = a0 | a5\n  4686: a1 = a1 | a2\n  4689: a1 = a1 >> 0x20\n  4692: a2 = a2 | a5\n  4695: a2 = a2 << 0x20\n  4698: a1 = a1 | a2\n  4701: jump @246 if a1 != 0\n      : @225 (gas: 11)\n  4705: u64 [s1 + 272] = 0\n  4709: u64 [s1 + 264] = 0\n  4713: u64 [s1 + 256] = 0\n  4717: a2 = 0x8c379a000000000\n  4727: a1 = s1 + 0x100\n  4731: u64 [s1 + 0x118] = a2\n  4735: u64 [s1 + 0x78] = a0\n  4738: u64 [s1 + 0x70] = a3\n  4741: u64 [s1 + 0x68] = a4\n  4744: u64 [s1 + 0x60] = a5\n  4747: ra = 226, jump @19\n      : @226 [@dyn 113] (gas: 11)\n  4753: a1 = u64 [s1 + 0x78]\n  4756: a0 = u64 [s1 + 0x68]\n  4759: a3 = u64 [s1 + 0x60]\n  4762: a3 = a3 | a0\n  4765: a4 = 0x100000000\n  4775: a0 = 0xfffffffc\n  4785: a0 = a1 <u a0\n  4788: a2 = u64 [s1 + 0x70]\n  4791: a0 = 0 if a2 != 0\n  4793: a0 = 0 if a3 != 0\n  4795: jump @246 if a0 == 0\n      : @227 (gas: 9)\n  4799: i32 a0 = a1 + 0x4\n  4802: u64 [s1 + 248] = 0\n  4806: u64 [s1 + 240] = 0\n  4810: u64 [s1 + 224] = 0x20\n  4815: a1 = s1 + 0xe0\n  4819: u64 [s1 + 232] = 0\n  4823: u64 [s1 + 0x68] = a3\n  4826: u64 [s1 + 0x60] = a4\n  4829: ra = 228, jump @19\n      : @228 [@dyn 114] (gas: 9)\n  4835: a1 = u64 [s1 + 0x78]\n  4838: a0 = u64 [s1 + 0x60]\n  4841: a0 = a0 + 0xffffffffffffffdc\n  4844: a0 = a1 <u a0\n  4847: a2 = u64 [s1 + 0x70]\n  4850: a0 = 0 if a2 != 0\n  4852: a2 = u64 [s1 + 0x68]\n  4855: a0 = 0 if a2 != 0\n  4857: jump @246 if a0 == 0\n      : @229 (gas: 7)\n  4861: i32 a0 = a1 + 0x24\n  4864: u64 [s1 + 216] = 0\n  4868: u64 [s1 + 208] = 0\n  4872: u64 [s1 + 192] = 0x28\n  4877: a1 = s1 + 0xc0\n  4881: u64 [s1 + 200] = 0\n  4885: ra = 230, jump @19\n      : @230 [@dyn 115] (gas: 4)\n  4891: a4 = u64 [s1 + 0x68]\n  4894: a3 = u64 [s1 + 0x70]\n  4897: a1 = u64 [s1 + 0x78]\n  4900: t0 = 232, jump @616\n      : @231 [@dyn 116] (gas: 1)\n  4906: jump @246 if a0 == 0\n      : @232 (gas: 12)\n  4910: i32 a0 = a1 + 0x44\n  4913: a1 = u64 [0x20000]\n  4918: u64 [s1 + 0xb8] = a1\n  4922: a1 = u64 [0x20008]\n  4927: u64 [s1 + 0x60] = a2\n  4930: a2 = u64 [0x20010]\n  4935: a3 = u64 [0x20018]\n  4940: u64 [s1 + 0xb0] = a1\n  4944: u64 [s1 + 0xa8] = a2\n  4948: a1 = s1 + 0xa0\n  4952: u64 [s1 + 0xa0] = a3\n  4956: ra = 234, jump @19\n      : @233 [@dyn 117] (gas: 9)\n  4962: a2 = u64 [s1 + 0x78]\n  4965: a0 = u64 [s1 + 0x60]\n  4968: a0 = a0 + 0xffffffffffffff9c\n  4971: a0 = a2 <u a0\n  4974: a1 = u64 [s1 + 0x70]\n  4977: a0 = 0 if a1 != 0\n  4979: a1 = u64 [s1 + 0x68]\n  4982: a0 = 0 if a1 != 0\n  4984: jump @246 if a0 == 0\n      : @234 (gas: 8)\n  4988: i32 a0 = a2 + 0x64\n  4991: a1 = u64 [0x20020]\n  4996: u64 [s1 + 144] = 0\n  5000: u64 [s1 + 136] = 0\n  5004: u64 [s1 + 0x98] = a1\n  5008: a1 = s1 + 0x80\n  5012: u64 [s1 + 128] = 0\n  5016: ra = 236, jump @19\n      : @235 [@dyn 118] (gas: 3)\n  5022: a1 = 0x84\n  5026: a0 = u64 [s1 + 0x78]\n  5029: ra = 238, jump @26\n      : @236 [@dyn 119] (gas: 6)\n  5035: i32 a1 = a0 + 0\n  5037: a0 = 0x1\n  5040: a2 = 0x84\n  5044: ra = 0xf0\n  5048: ecalli 9 // 'seal_return'\n  5050: fallthrough\n      : @237 [@dyn 120] (gas: 14)\n  5051: u64 [s1 + 0x200] = t1\n  5055: a2 = u64 [s1 + 0x28]\n  5058: u64 [s1 + 0x220] = a2\n  5062: u64 [s1 + 0x208] = t0\n  5066: u64 [s1 + 0x228] = ra\n  5070: u64 [s1 + 0x210] = a1\n  5074: u64 [s1 + 0x230] = t2\n  5078: u64 [s1 + 0x218] = a0\n  5082: a0 = s1 + 0x240\n  5086: a1 = s1 + 0x220\n  5090: a2 = s1 + 0x200\n  5094: a3 = u64 [s1 + 0x30]\n  5097: u64 [s1 + 0x238] = a3\n  5101: ra = 242, jump @469\n      : @238 [@dyn 121] (gas: 15)\n  5107: a1 = s1 + 0x200\n  5111: a0 = u64 [a1 + 0x40]\n  5114: u64 [s1 + 0x50] = a0\n  5117: a0 = u64 [a1 + 0x48]\n  5120: u64 [s1 + 0x48] = a0\n  5123: a0 = u64 [a1 + 0x50]\n  5126: u64 [s1 + 0x40] = a0\n  5129: a0 = u64 [a1 + 0x58]\n  5132: u64 [s1 + 0x38] = a0\n  5135: a0 = u64 [s1 + 0x10]\n  5138: ra = 0xf4\n  5142: ecalli 4 // 'caller'\n  5144: a2 = u64 [s1 + 0x58]\n  5147: t0 = 0xf6\n  5151: jump @587\n      : @239 [@dyn 122] (gas: 2)\n  5154: a2 = u64 [s1 + 0x58]\n  5157: t0 = 246, jump @587\n      : @240 [@dyn 123] (gas: 24)\n  5163: a2 = u64 [s1 + 0x38]\n  5166: u64 [s1 + 0x1b8] = a2\n  5170: a2 = u64 [s1 + 0x40]\n  5173: u64 [s1 + 0x1b0] = a2\n  5177: a2 = u64 [s1 + 0x48]\n  5180: u64 [s1 + 0x1a8] = a2\n  5184: a2 = u64 [s1 + 0x50]\n  5187: u64 [s1 + 0x1a0] = a2\n  5191: u64 [s1 + 472] = 0\n  5195: a2 = u64 [s1 + 0x60]\n  5198: u64 [s1 + 0x1f8] = a2\n  5202: a2 = u64 [s1 + 0x68]\n  5205: u64 [s1 + 0x1f0] = a2\n  5209: a2 = u64 [s1 + 0x70]\n  5212: u64 [s1 + 0x1e8] = a2\n  5216: a2 = u64 [s1 + 0x78]\n  5219: u64 [s1 + 0x1e0] = a2\n  5223: u64 [s1 + 0x1d0] = a1\n  5227: u64 [s1 + 0x1c8] = a0\n  5231: a0 = s1 + 0x1e0\n  5235: a1 = s1 + 0x1c0\n  5239: a2 = s1 + 0x1a0\n  5243: u64 [s1 + 0x1c0] = a3\n  5247: ra = 248, jump @472\n      : @241 [@dyn 124] (gas: 3)\n  5253: a0 = s1 + 0x180\n  5257: a1 = 0x40\n  5260: ra = 250, jump @17\n      : @242 [@dyn 125] (gas: 16)\n  5266: a4 = s1 + 0x100\n  5270: a1 = u64 [a4 + 0x98]\n  5274: u64 [s1 + 0x78] = a1\n  5277: a0 = u64 [a4 + 0x90]\n  5281: u64 [s1 + 0x70] = a0\n  5284: a2 = u64 [a4 + 0x88]\n  5288: u64 [s1 + 0x68] = a2\n  5291: a3 = u64 [a4 + 0x80]\n  5295: u64 [s1 + 0x60] = a3\n  5298: u64 [a4 + 0x58] = a1\n  5301: u64 [a4 + 0x50] = a0\n  5304: u64 [a4 + 0x48] = a2\n  5307: a0 = s1 + 0x160\n  5311: a1 = s1 + 0x140\n  5315: u64 [a4 + 0x40] = a3\n  5318: ra = 252, jump @133\n      : @243 [@dyn 126] (gas: 12)\n  5324: a4 = u64 [s1 + 0x68]\n  5327: a2 = u64 [s1 + 0x60]\n  5330: a0 = u64 [s1 + 0x78]\n  5333: a0 = a0 | a4\n  5336: a3 = u64 [s1 + 0x70]\n  5339: a1 = a2 | a3\n  5342: a1 = a1 | a0\n  5345: a1 = a1 >> 0x20\n  5348: a0 = a0 | a3\n  5351: a0 = a0 << 0x20\n  5354: a0 = a0 | a1\n  5357: jump @246 if a0 != 0\n      : @244 (gas: 22)\n  5360: t0 = a3\n  5362: a5 = s1 + 0x100\n  5366: a0 = u64 [a5 + 0x68]\n  5369: a1 = u64 [a5 + 0x78]\n  5372: u64 [s1 + 0x58] = a1\n  5375: t1 = u64 [s1 + 0x160]\n  5379: a3 = u64 [a5 + 0x70]\n  5382: t2 = a0 ^ a4\n  5385: a5 = a0 <u a4\n  5388: ra = t1 <u a2\n  5391: a5 = ra if t2 == 0\n  5394: a1 = a3 - t0\n  5397: t2 = a1 - a5\n  5400: a1 = a1 <u a5\n  5403: u64 [s1 + 0x50] = a1\n  5406: a3 = a3 <u t0\n  5409: a5 = u64 [s1 + 0x78]\n  5412: a1 = u64 [s1 + 0x58]\n  5415: a5 = a1 - a5\n  5418: a5 = a5 - a3\n  5421: a1 = u64 [s1 + 0x50]\n  5424: t0 = 254, jump @600\n      : @245 [@dyn 127] (gas: 1)\n  5430: jump @250 if a0 == 0\n      : @246 (gas: 1)\n  5433: trap\n      : @247 (gas: 2)\n  5434: a1 = 0x20100\n  5439: jump @249\n      : @248 (gas: 2)\n  5441: a1 = 0x20100\n  5446: fallthrough\n      : @249 (gas: 5)\n  5447: i32 a1 = a1 + 0\n  5449: a0 = 0x1\n  5452: a2 = 0\n  5454: ecalli 9 // 'seal_return'\n  5456: fallthrough\n      : @250 (gas: 3)\n  5457: a0 = a2\n  5459: u64 [s1 + 0x78] = a1\n  5462: ra = 256, jump @26\n      : @251 [@dyn 128] (gas: 7)\n  5468: i32 a1 = a0 + 0\n  5470: a2 = i32 [s1 + 0x78]\n  5473: a0 = 0\n  5475: ra = 0x102\n  5479: ecalli 9 // 'seal_return'\n  5481: t0 = 0x104\n  5485: jump @606\n      : @252 [@dyn 129] (gas: 1)\n  5488: t0 = 260, jump @606\n      : @253 [@dyn 130] (gas: 2)\n  5494: ecalli 12 // 'value_transferred'\n  5496: fallthrough\n      : @254 (gas: 8)\n  5497: a0 = u64 [sp + 0x50]\n  5500: a1 = u64 [sp + 0x58]\n  5503: a2 = u64 [sp + 0x48]\n  5506: a3 = u64 [sp + 0x40]\n  5509: a1 = a1 | a2\n  5512: a0 = a0 | a3\n  5515: a0 = a0 | a1\n  5518: jump @260 if a0 != 0\n      : @255 (gas: 2)\n  5521: a0 = i32 [0x200f0]\n  5526: jump @261 if a0 <=u 3\n      : @256 (gas: 3)\n  5530: a0 = sp + 0x20\n  5533: a1 = 0x40\n  5536: ra = 262, jump @17\n      : @257 [@dyn 131] (gas: 1)\n  5542: t0 = 264, jump @611\n      : @258 [@dyn 132] (gas: 1)\n  5548: jump @263 if a0 == 0\n      : @259 (gas: 1)\n  5551: trap\n      : @260 (gas: 2)\n  5552: a1 = 0x20100\n  5557: jump @262\n      : @261 (gas: 2)\n  5559: a1 = 0x20100\n  5564: fallthrough\n      : @262 (gas: 5)\n  5565: i32 a1 = a1 + 0\n  5567: a0 = 0x1\n  5570: a2 = 0\n  5572: ecalli 9 // 'seal_return'\n  5574: fallthrough\n      : @263 (gas: 7)\n  5575: u64 [sp + 24] = 0\n  5578: u64 [sp + 16] = 0\n  5581: u64 [sp + 8] = 0\n  5584: a1 = sp\n  5586: u64 [sp + 0] = 0x12\n  5589: a0 = s1\n  5591: ra = 266, jump @19\n      : @264 [@dyn 133] (gas: 3)\n  5597: a1 = 0x20\n  5600: a0 = s1\n  5602: ra = 268, jump @26\n      : @265 [@dyn 134] (gas: 1)\n  5608: t0 = 270, jump @619\n      : @266 [@dyn 135] (gas: 3)\n  5614: ra = 0x110\n  5618: ecalli 9 // 'seal_return'\n  5620: fallthrough\n      : @267 [@dyn 136] (gas: 15)\n  5621: sp = sp + 0xfffffffffffffda0\n  5625: a0 = sp + 0x200\n  5629: u64 [a0 + 0x58] = ra\n  5632: u64 [a0 + 0x50] = s0\n  5635: u64 [a0 + 0x48] = s1\n  5638: s0 = sp + 0x260\n  5642: sp = sp & 0xffffffffffffffe0\n  5645: s1 = sp\n  5647: u64 [s1 + 504] = 0\n  5651: u64 [s1 + 496] = 0\n  5655: u64 [s1 + 488] = 0\n  5659: u64 [s1 + 480] = 0\n  5663: i32 a0 = s1 + 0x1e0\n  5667: ecalli 12 // 'value_transferred'\n  5669: fallthrough\n      : @268 (gas: 9)\n  5670: a4 = s1 + 0x100\n  5674: a0 = u64 [a4 + 0xf0]\n  5678: a1 = u64 [a4 + 0xf8]\n  5682: a2 = u64 [a4 + 0xe8]\n  5686: a3 = u64 [a4 + 0xe0]\n  5690: a1 = a1 | a2\n  5693: a0 = a0 | a3\n  5696: a0 = a0 | a1\n  5699: jump @289 if a0 != 0\n      : @269 (gas: 3)\n  5703: a0 = i32 [0x200f0]\n  5708: a1 = 0x43\n  5711: jump @290 if a1 >=u a0\n      : @270 (gas: 4)\n  5715: a0 = s1 + 0x1c0\n  5719: ra = 0x112\n  5723: t0 = 0x60\n  5726: jump @622\n      : @271 [@dyn 137] (gas: 29)\n  5729: a0 = u64 [s1 + 0x1d8]\n  5733: u64 [s1 + 0x40] = a0\n  5736: a0 = u64 [s1 + 0x1d0]\n  5740: u64 [s1 + 0x48] = a0\n  5743: a0 = u64 [s1 + 0x1c8]\n  5747: u64 [s1 + 0x50] = a0\n  5750: a0 = u64 [s1 + 0x1c0]\n  5754: u64 [s1 + 0x58] = a0\n  5757: i32 a0 = s1 + 0x200\n  5761: a1 = 0x24\n  5764: ecalli 2 // 'call_data_load'\n  5766: a1 = s1 + 0x200\n  5770: a0 = u64 [a1 + 0x18]\n  5773: u64 [s1 + 0x30] = a0\n  5776: a0 = u64 [a1 + 0x10]\n  5779: u64 [s1 + 0x28] = a0\n  5782: a0 = u64 [a1 + 0x8]\n  5785: u64 [s1 + 0x18] = a0\n  5788: a0 = u64 [a1]\n  5790: u64 [s1 + 0x20] = a0\n  5793: a0 = 0x30100\n  5798: u64 [s1 + 0x38] = a0\n  5801: i32 a0 = a0 + 0\n  5803: u64 [s1 + 0x8] = a0\n  5806: ra = 0x114\n  5810: ecalli 4 // 'caller'\n  5812: a2 = u64 [s1 + 0x38]\n  5815: t0 = 0x116\n  5819: jump @587\n      : @272 [@dyn 138] (gas: 2)\n  5822: a2 = u64 [s1 + 0x38]\n  5825: t0 = 278, jump @587\n      : @273 [@dyn 139] (gas: 8)\n  5831: u64 [s1 + 440] = 0\n  5835: a2 = s1 + 0x100\n  5839: u64 [a2 + 0xb0] = a1\n  5843: u64 [a2 + 0xa8] = a0\n  5847: a1 = s1 + 0x1a0\n  5851: u64 [a2 + 0xa0] = a3\n  5855: a0 = 0\n  5857: ra = 280, jump @19\n      : @274 [@dyn 140] (gas: 7)\n  5863: u64 [s1 + 408] = 0\n  5867: u64 [s1 + 400] = 0\n  5871: u64 [s1 + 392] = 0\n  5875: a0 = 0x20\n  5878: a1 = s1 + 0x180\n  5882: u64 [s1 + 384] = 0\n  5886: ra = 282, jump @19\n      : @275 [@dyn 141] (gas: 2)\n  5892: a1 = i32 [0x200f4]\n  5897: jump @277 if a1 >u 63\n      : @276 (gas: 2)\n  5901: u32 [0x200f4] = 0x40\n  5907: fallthrough\n      : @277 (gas: 12)\n  5908: a0 = sp + 0xffffffffffffffe0\n  5911: a2 = a0 & 0xffffffffffffffe0\n  5914: u64 [s1 + 0x10] = a2\n  5917: sp = a2\n  5919: a0 = 0x20100\n  5924: i32 a0 = a0 + 0\n  5926: i32 a2 = a2 + 0\n  5928: a1 = 0x40\n  5931: ra = 0x11c\n  5935: ecalli 7 // 'hash_keccak_256'\n  5937: t0 = 0x11e\n  5941: jump @603\n      : @278 [@dyn 142] (gas: 1)\n  5944: t0 = 286, jump @603\n      : @279 [@dyn 143] (gas: 15)\n  5950: u64 [s1 + 0x138] = a3\n  5954: a3 = u64 [s1 + 0x48]\n  5957: u64 [s1 + 0x130] = a3\n  5961: a3 = u64 [s1 + 0x50]\n  5964: u64 [s1 + 0x128] = a3\n  5968: a3 = u64 [s1 + 0x58]\n  5971: u64 [s1 + 0x120] = a3\n  5975: u64 [s1 + 0x158] = a2\n  5979: u64 [s1 + 0x150] = a1\n  5983: u64 [s1 + 0x148] = a0\n  5987: a0 = s1 + 0x160\n  5991: a1 = s1 + 0x140\n  5995: a2 = s1 + 0x120\n  5999: u64 [s1 + 0x140] = a4\n  6003: ra = 288, jump @457\n      : @280 [@dyn 144] (gas: 12)\n  6009: a0 = u64 [s1 + 0x178]\n  6013: a1 = u64 [s1 + 0x170]\n  6017: a2 = u64 [s1 + 0x168]\n  6021: a3 = u64 [s1 + 0x160]\n  6025: a4 = s1 + 0x200\n  6029: u64 [a4 + 0x38] = a0\n  6032: u64 [a4 + 0x30] = a1\n  6035: u64 [a4 + 0x28] = a2\n  6038: u64 [a4 + 0x20] = a3\n  6041: a0 = s1 + 0x100\n  6045: a1 = s1 + 0x220\n  6049: ra = 290, jump @21\n      : @281 [@dyn 145] (gas: 31)\n  6055: a4 = s1 + 0x100\n  6059: a1 = u64 [a4 + 0x8]\n  6062: a2 = u64 [a4]\n  6064: a3 = u64 [a4 + 0x18]\n  6067: a0 = u64 [a4 + 0x10]\n  6070: a4 = u64 [s1 + 0x18]\n  6073: a4 = a4 + a1\n  6076: a5 = u64 [s1 + 0x20]\n  6079: t0 = a2 + a5\n  6082: a2 = t0 <u a2\n  6085: t1 = a4 + a2\n  6088: a4 = t1 ^ a1\n  6091: a1 = t1 <u a1\n  6094: a1 = a2 if a4 == 0\n  6097: a2 = u64 [s1 + 0x28]\n  6100: a2 = a2 + a0\n  6103: a4 = a2 + a1\n  6106: t2 = a4 <u a2\n  6109: a5 = u64 [s1 + 0x30]\n  6112: a5 = a5 + a3\n  6115: a2 = a2 <u a0\n  6118: a2 = a2 + a5\n  6121: t2 = t2 + a2\n  6124: a2 = a4 <u a0\n  6127: a5 = a3 ^ t2\n  6130: a3 = t2 <u a3\n  6133: a3 = a2 if a5 == 0\n  6136: a0 = a0 ^ a4\n  6139: a0 = a0 | a5\n  6142: a3 = a1 if a0 == 0\n  6145: jump @283 if a3 == 0\n      : @282 (gas: 1)\n  6148: ra = 292, jump @464\n      : @283 [@dyn 146] (gas: 9)\n  6154: a0 = u64 [s1 + 0x8]\n  6157: u64 [s1 + 0x30] = t0\n  6160: u64 [s1 + 0x28] = t1\n  6163: u64 [s1 + 0x20] = a4\n  6166: u64 [s1 + 0x18] = t2\n  6169: ra = 0x126\n  6173: ecalli 4 // 'caller'\n  6175: t0 = 0x128\n  6179: jump @592\n      : @284 [@dyn 147] (gas: 1)\n  6182: t0 = 296, jump @592\n      : @285 [@dyn 148] (gas: 23)\n  6188: u64 [s1 + 0xb8] = a3\n  6192: a3 = u64 [s1 + 0x20]\n  6195: u64 [s1 + 0xb0] = a3\n  6199: a3 = u64 [s1 + 0x28]\n  6202: u64 [s1 + 0xa8] = a3\n  6206: a3 = u64 [s1 + 0x30]\n  6209: u64 [s1 + 0xa0] = a3\n  6213: a3 = u64 [s1 + 0x40]\n  6216: u64 [s1 + 0xd8] = a3\n  6220: a3 = u64 [s1 + 0x48]\n  6223: u64 [s1 + 0xd0] = a3\n  6227: a3 = u64 [s1 + 0x50]\n  6230: u64 [s1 + 0xc8] = a3\n  6234: a3 = u64 [s1 + 0x58]\n  6237: u64 [s1 + 0xc0] = a3\n  6241: u64 [s1 + 0xf0] = a2\n  6245: u64 [s1 + 0xe8] = a0\n  6249: u64 [s1 + 0xe0] = a1\n  6253: a0 = s1 + 0xe0\n  6257: a1 = s1 + 0xc0\n  6261: a2 = s1 + 0xa0\n  6265: u64 [s1 + 248] = 0\n  6269: ra = 298, jump @472\n      : @286 [@dyn 149] (gas: 3)\n  6275: a0 = s1 + 0x80\n  6279: a1 = 0x40\n  6282: ra = 300, jump @17\n      : @287 [@dyn 150] (gas: 12)\n  6288: a3 = u64 [s1 + 0x98]\n  6292: a1 = u64 [s1 + 0x90]\n  6296: a2 = u64 [s1 + 0x88]\n  6300: a0 = u64 [s1 + 0x80]\n  6304: a3 = a3 | a2\n  6307: a2 = a0 | a1\n  6310: a2 = a2 | a3\n  6313: a2 = a2 >> 0x20\n  6316: a1 = a1 | a3\n  6319: a1 = a1 << 0x20\n  6322: a1 = a1 | a2\n  6325: jump @292 if a1 == 0\n      : @288 (gas: 1)\n  6328: trap\n      : @289 (gas: 2)\n  6329: a1 = 0x20100\n  6334: jump @291\n      : @290 (gas: 2)\n  6336: a1 = 0x20100\n  6341: fallthrough\n      : @291 (gas: 5)\n  6342: i32 a1 = a1 + 0\n  6344: a0 = 0x1\n  6347: a2 = 0\n  6349: ecalli 9 // 'seal_return'\n  6351: fallthrough\n      : @292 (gas: 7)\n  6352: u64 [s1 + 120] = 0\n  6355: u64 [s1 + 112] = 0\n  6358: u64 [s1 + 104] = 0\n  6361: a1 = s1 + 0x60\n  6364: u64 [s1 + 96] = 0x1\n  6368: u64 [s1 + 0x58] = a0\n  6371: ra = 302, jump @19\n      : @293 [@dyn 151] (gas: 3)\n  6377: a1 = 0x20\n  6380: a0 = u64 [s1 + 0x58]\n  6383: ra = 304, jump @26\n      : @294 [@dyn 152] (gas: 1)\n  6389: t0 = 306, jump @619\n      : @295 [@dyn 153] (gas: 3)\n  6395: ra = 0x134\n  6399: ecalli 9 // 'seal_return'\n  6401: fallthrough\n      : @296 [@dyn 154] (gas: 15)\n  6402: sp = sp + 0xfffffffffffffd80\n  6406: a0 = sp + 0x200\n  6410: u64 [a0 + 0x78] = ra\n  6413: u64 [a0 + 0x70] = s0\n  6416: u64 [a0 + 0x68] = s1\n  6419: s0 = sp + 0x280\n  6423: sp = sp & 0xffffffffffffffe0\n  6426: u64 [sp + 504] = 0\n  6430: u64 [sp + 496] = 0\n  6434: u64 [sp + 488] = 0\n  6438: u64 [sp + 480] = 0\n  6442: i32 a0 = sp + 0x1e0\n  6446: ra = 0x136\n  6450: ecalli 12 // 'value_transferred'\n  6452: fallthrough\n      : @297 [@dyn 155] (gas: 8)\n  6453: a0 = u64 [sp + 0x1f0]\n  6457: a1 = u64 [sp + 0x1f8]\n  6461: a2 = u64 [sp + 0x1e8]\n  6465: a3 = u64 [sp + 0x1e0]\n  6469: a1 = a1 | a2\n  6472: a0 = a0 | a3\n  6475: a0 = a0 | a1\n  6478: jump @323 if a0 != 0\n      : @298 (gas: 5)\n  6482: a0 = 0x200f0\n  6487: u64 [sp + 0x30] = a0\n  6490: a0 = i32 [0x200f0]\n  6495: a1 = 0x23\n  6498: jump @324 if a1 >=u a0\n      : @299 (gas: 4)\n  6502: a0 = sp + 0x1c0\n  6506: ra = 0x138\n  6510: t0 = 0x60\n  6513: jump @622\n      : @300 [@dyn 156] (gas: 13)\n  6516: a0 = u64 [sp + 0x1d0]\n  6520: u64 [sp + 0x10] = a0\n  6523: a0 = u64 [sp + 0x1c8]\n  6527: u64 [sp + 0x20] = a0\n  6530: a0 = u64 [sp + 0x1c0]\n  6534: u64 [sp + 0x18] = a0\n  6537: u64 [sp + 408] = 0\n  6541: u64 [sp + 400] = 0\n  6545: u64 [sp + 384] = 0x60\n  6550: a0 = sp + 0x1a0\n  6554: a1 = sp + 0x180\n  6558: u64 [sp + 392] = 0\n  6562: ra = 314, jump @440\n      : @301 [@dyn 157] (gas: 5)\n  6568: a4 = u64 [sp + 0x1b8]\n  6572: s1 = u64 [sp + 0x1b0]\n  6576: a3 = u64 [sp + 0x1a8]\n  6580: a0 = u64 [sp + 0x1a0]\n  6584: t0 = 316, jump @593\n      : @302 [@dyn 158] (gas: 1)\n  6590: jump @322 if a1 != 0\n      : @303 (gas: 8)\n  6594: a1 = u64 [sp + 0x30]\n  6597: a1 = i32 [a1]\n  6599: u64 [sp] = a1\n  6601: a1 = 0x60\n  6604: u64 [sp + 0x38] = a0\n  6607: u64 [sp + 0x28] = a3\n  6610: u64 [sp + 0x8] = a4\n  6613: ra = 318, jump @26\n      : @304 [@dyn 159] (gas: 11)\n  6619: i32 a0 = a0 + 0\n  6621: a1 = 0x60\n  6624: a2 = u64 [sp]\n  6626: ecalli 1 // 'call_data_copy'\n  6628: u64 [sp + 376] = 0\n  6632: u64 [sp + 368] = 0\n  6636: u64 [sp + 360] = 0\n  6640: a1 = sp + 0x160\n  6644: u64 [sp + 352] = 0x1\n  6649: a0 = u64 [sp + 0x38]\n  6652: ra = 320, jump @19\n      : @305 [@dyn 160] (gas: 10)\n  6658: a2 = u64 [sp + 0x28]\n  6661: a1 = u64 [sp + 0x38]\n  6664: a3 = u64 [sp + 0x8]\n  6667: a3 = a3 | s1\n  6670: s1 = 0x100000000\n  6680: a0 = 0xffffffe0\n  6690: a0 = a1 <u a0\n  6693: a0 = 0 if a2 != 0\n  6695: a0 = 0 if a3 != 0\n  6697: jump @322 if a0 == 0\n      : @306 (gas: 8)\n  6701: i32 a0 = a1 + 0x20\n  6704: u64 [sp + 344] = 0\n  6708: u64 [sp + 336] = 0\n  6712: u64 [sp + 328] = 0\n  6716: a1 = sp + 0x140\n  6720: u64 [sp + 320] = 0\n  6724: u64 [sp + 0x8] = a3\n  6727: ra = 322, jump @19\n      : @307 [@dyn 161] (gas: 8)\n  6733: a1 = u64 [sp + 0x38]\n  6736: a0 = s1 + 0xffffffffffffffc0\n  6739: a0 = a1 <u a0\n  6742: a2 = u64 [sp + 0x28]\n  6745: a0 = 0 if a2 != 0\n  6747: a2 = u64 [sp + 0x8]\n  6750: a0 = 0 if a2 != 0\n  6752: jump @322 if a0 == 0\n      : @308 (gas: 12)\n  6756: a0 = u64 [sp + 0x10]\n  6759: a0 = a0 << 0x20\n  6762: a2 = a0 >> 0x20\n  6765: i32 a0 = a1 + 0x40\n  6768: u64 [sp + 312] = 0\n  6772: a1 = u64 [sp + 0x18]\n  6775: u64 [sp + 0x120] = a1\n  6779: a1 = u64 [sp + 0x20]\n  6782: u64 [sp + 0x128] = a1\n  6786: a1 = sp + 0x120\n  6790: u64 [sp + 0x130] = a2\n  6794: ra = 324, jump @19\n      : @309 [@dyn 162] (gas: 7)\n  6800: u64 [sp + 248] = 0\n  6804: u64 [sp + 240] = 0\n  6808: u64 [sp + 232] = 0\n  6812: a0 = sp + 0x100\n  6816: a1 = sp + 0xe0\n  6820: u64 [sp + 224] = 0x20\n  6825: ra = 326, jump @440\n      : @310 [@dyn 163] (gas: 5)\n  6831: a0 = u64 [sp + 0x118]\n  6835: a1 = u64 [sp + 0x110]\n  6839: a2 = u64 [sp + 0x108]\n  6843: a3 = u64 [sp + 0x100]\n  6847: t0 = 328, jump @614\n      : @311 [@dyn 164] (gas: 1)\n  6853: jump @322 if a0 != 0\n      : @312 (gas: 6)\n  6857: a0 = u64 [sp + 0x30]\n  6860: s1 = i32 [a0]\n  6862: a1 = 0x20\n  6865: a0 = a3\n  6867: u64 [sp + 0x30] = a3\n  6870: ra = 330, jump @26\n      : @313 [@dyn 165] (gas: 17)\n  6876: i32 a0 = a0 + 0\n  6878: a1 = 0x20\n  6881: a2 = s1\n  6883: ecalli 1 // 'call_data_copy'\n  6885: ecalli 8 // 'ref_time_left'\n  6887: s1 = 0x30100\n  6892: u64 [0x30108] = 0\n  6897: u64 [0x30100] = 0\n  6902: u32 [0x30110] = 0x40000\n  6910: a0 = sp + 0x200\n  6914: u64 [a0 + 24] = 0\n  6917: u64 [a0 + 16] = 0\n  6920: u64 [a0 + 8] = 0\n  6923: u64 [a0 + 0] = 0\n  6925: a1 = 0x60\n  6928: a0 = u64 [sp + 0x38]\n  6931: ra = 332, jump @26\n      : @314 [@dyn 166] (gas: 4)\n  6937: u64 [sp + 0x38] = a0\n  6940: a1 = 0x20\n  6943: a0 = u64 [sp + 0x30]\n  6946: ra = 334, jump @26\n      : @315 [@dyn 167] (gas: 31)\n  6952: a2 = sp + 0x200\n  6956: u32 [a2 + 32] = 0x20\n  6960: u64 [a2 + 88] = 0\n  6963: u64 [a2 + 80] = 0\n  6966: u64 [a2 + 72] = 0\n  6969: u64 [a2 + 64] = 0\n  6972: s1 = s1 << 0x20\n  6975: s1 = s1 >> 0x20\n  6978: a2 = 0x1800000000\n  6988: s1 = s1 | a2\n  6991: a2 = sp + 0x200\n  6995: a2 = a2 << 0x20\n  6998: a2 = a2 >> 0x20\n  7001: a3 = sp + 0x240\n  7005: a3 = a3 << 0x20\n  7008: a3 = a3 | a2\n  7011: a2 = u64 [sp + 0x38]\n  7014: a2 = a2 << 0x20\n  7017: a2 = a2 >> 0x20\n  7020: a1 = 0x6000000000\n  7030: a4 = a2 | a1\n  7033: a0 = a0 << 0x20\n  7036: a0 = a0 >> 0x20\n  7039: a1 = sp + 0x220\n  7043: a1 = a1 << 0x20\n  7046: a5 = a1 | a0\n  7049: a1 = 0xffffffffffffffff\n  7052: a2 = 0xffffffffffffffff\n  7055: a0 = s1\n  7057: ecalli 0 // 'call'\n  7058: fallthrough\n      : @316 (gas: 1)\n  7059: jump @326 if a0 != 0\n      : @317 (gas: 3)\n  7063: a0 = sp + 0xc0\n  7067: a1 = u64 [sp + 0x30]\n  7070: ra = 336, jump @17\n      : @318 [@dyn 168] (gas: 11)\n  7076: a0 = u64 [sp + 0xc0]\n  7080: u64 [sp + 0x38] = a0\n  7083: a0 = u64 [sp + 0xc8]\n  7087: u64 [sp + 0x30] = a0\n  7090: a0 = u64 [sp + 0xd0]\n  7094: u64 [sp + 0x28] = a0\n  7097: a0 = u64 [sp + 0xd8]\n  7101: u64 [sp + 0x20] = a0\n  7104: a0 = sp + 0xa0\n  7108: a1 = 0x40\n  7111: ra = 338, jump @17\n      : @319 [@dyn 169] (gas: 23)\n  7117: a0 = u64 [sp + 0xb8]\n  7121: u64 [sp + 0x18] = a0\n  7124: s1 = u64 [sp + 0xb0]\n  7128: a2 = u64 [sp + 0xa8]\n  7132: u64 [sp + 0x10] = a2\n  7135: a3 = u64 [sp + 0xa0]\n  7139: u64 [sp + 0x8] = a3\n  7142: a1 = u64 [sp + 0x20]\n  7145: u64 [sp + 0x58] = a1\n  7148: a1 = u64 [sp + 0x28]\n  7151: u64 [sp + 0x50] = a1\n  7154: a1 = u64 [sp + 0x30]\n  7157: u64 [sp + 0x48] = a1\n  7160: a1 = u64 [sp + 0x38]\n  7163: u64 [sp + 0x40] = a1\n  7166: u64 [sp + 0x78] = a0\n  7169: u64 [sp + 0x70] = s1\n  7172: u64 [sp + 0x68] = a2\n  7175: a0 = sp + 0x80\n  7179: a1 = sp + 0x60\n  7182: a2 = sp + 0x40\n  7185: u64 [sp + 0x60] = a3\n  7188: ra = 340, jump @157\n      : @320 [@dyn 170] (gas: 11)\n  7194: a2 = u64 [sp + 0x18]\n  7197: a4 = u64 [sp + 0x10]\n  7200: ra = u64 [sp + 0x8]\n  7203: a0 = a4 | a2\n  7206: a1 = ra | s1\n  7209: a1 = a1 | a0\n  7212: a1 = a1 >> 0x20\n  7215: a0 = a0 | s1\n  7218: a0 = a0 << 0x20\n  7221: a0 = a0 | a1\n  7224: jump @322 if a0 != 0\n      : @321 (gas: 29)\n  7227: t2 = s1\n  7229: a0 = u64 [sp + 0x88]\n  7233: a1 = u64 [sp + 0x98]\n  7237: u64 [sp + 0x38] = a1\n  7240: t1 = u64 [sp + 0x80]\n  7244: a3 = u64 [sp + 0x90]\n  7248: s1 = a0 ^ a4\n  7251: a5 = a0 <u a4\n  7254: a1 = t1 <u ra\n  7257: a5 = a1 if s1 == 0\n  7260: s1 = a3 - t2\n  7263: t0 = s1 - a5\n  7266: s1 = s1 <u a5\n  7269: a3 = a3 <u t2\n  7272: a5 = u64 [sp + 0x38]\n  7275: a5 = a5 - a2\n  7278: a5 = a5 - a3\n  7281: a5 = a5 - s1\n  7284: a0 = a0 - a4\n  7287: a0 = a0 - a1\n  7290: s1 = t1 - ra\n  7293: a0 = a0 | a5\n  7296: a1 = s1 | t0\n  7299: a1 = a1 | a0\n  7302: a0 = a0 | t0\n  7305: a1 = a1 >> 0x20\n  7308: a0 = a0 << 0x20\n  7311: a0 = a0 | a1\n  7314: jump @327 if a0 == 0\n      : @322 (gas: 1)\n  7317: trap\n      : @323 (gas: 2)\n  7318: a1 = 0x20100\n  7323: jump @325\n      : @324 (gas: 2)\n  7325: a1 = 0x20100\n  7330: fallthrough\n      : @325 (gas: 6)\n  7331: i32 a1 = a1 + 0\n  7333: a0 = 0x1\n  7336: a2 = 0\n  7338: ecalli 9 // 'seal_return'\n  7340: a1 = 0x20100\n  7345: jump @325\n      : @326 (gas: 2)\n  7347: a1 = 0x20100\n  7352: jump @325\n      : @327 (gas: 3)\n  7354: a0 = ra\n  7356: a1 = s1\n  7358: ra = 342, jump @26\n      : @328 [@dyn 171] (gas: 7)\n  7364: i32 a1 = a0 + 0\n  7366: i32 a2 = s1 + 0\n  7368: a0 = 0\n  7370: ra = 0x158\n  7374: ecalli 9 // 'seal_return'\n  7376: t0 = 0x15a\n  7380: jump @607\n      : @329 [@dyn 172] (gas: 1)\n  7383: t0 = 346, jump @607\n      : @330 [@dyn 173] (gas: 2)\n  7389: ecalli 12 // 'value_transferred'\n  7391: fallthrough\n      : @331 (gas: 8)\n  7392: a0 = u64 [sp + 0x150]\n  7396: a1 = u64 [sp + 0x158]\n  7400: a2 = u64 [sp + 0x148]\n  7404: a3 = u64 [sp + 0x140]\n  7408: a1 = a1 | a2\n  7411: a0 = a0 | a3\n  7414: a0 = a0 | a1\n  7417: jump @348 if a0 != 0\n      : @332 (gas: 2)\n  7421: a0 = i32 [0x200f0]\n  7426: jump @349 if a0 <=u 3\n      : @333 (gas: 7)\n  7431: u64 [sp + 280] = 0\n  7435: u64 [sp + 272] = 0\n  7439: u64 [sp + 256] = 0x40\n  7444: a0 = sp + 0x120\n  7448: a1 = sp + 0x100\n  7452: u64 [sp + 264] = 0\n  7456: ra = 348, jump @440\n      : @334 [@dyn 174] (gas: 5)\n  7462: a4 = u64 [sp + 0x138]\n  7466: s1 = u64 [sp + 0x130]\n  7470: a3 = u64 [sp + 0x128]\n  7474: a0 = u64 [sp + 0x120]\n  7478: t0 = 350, jump @593\n      : @335 [@dyn 175] (gas: 1)\n  7484: jump @347 if a1 != 0\n      : @336 (gas: 9)\n  7488: u64 [sp + 248] = 0\n  7492: u64 [sp + 240] = 0\n  7496: u64 [sp + 232] = 0\n  7500: a1 = sp + 0xe0\n  7504: u64 [sp + 224] = 0x4\n  7509: u64 [sp + 0x38] = a0\n  7512: u64 [sp + 0x30] = a3\n  7515: u64 [sp + 0x28] = a4\n  7518: ra = 352, jump @19\n      : @337 [@dyn 176] (gas: 1)\n  7524: t0 = 354, jump @602\n      : @338 [@dyn 177] (gas: 1)\n  7530: jump @347 if a1 == 0\n      : @339 (gas: 8)\n  7534: i32 a0 = a2 + 0x20\n  7537: u64 [sp + 208] = 0\n  7541: u64 [sp + 200] = 0\n  7545: a1 = 0x5245454600000000\n  7555: u64 [sp + 0xd8] = a1\n  7559: a1 = sp + 0xc0\n  7563: u64 [sp + 192] = 0\n  7567: ra = 356, jump @19\n      : @340 [@dyn 178] (gas: 3)\n  7573: a0 = sp + 0xa0\n  7577: a1 = 0x40\n  7580: ra = 358, jump @17\n      : @341 [@dyn 179] (gas: 1)\n  7586: t0 = 360, jump @590\n      : @342 [@dyn 180] (gas: 1)\n  7592: ra = 362, jump @75\n      : @343 [@dyn 181] (gas: 1)\n  7598: t0 = 364, jump @609\n      : @344 [@dyn 182] (gas: 1)\n  7604: jump @347 if a0 != 0\n      : @345 (gas: 1)\n  7607: t0 = 366, jump @594\n      : @346 [@dyn 183] (gas: 18)\n  7613: t0 = a1 - a5\n  7616: a1 = a1 <u a5\n  7619: a3 = a3 <u t2\n  7622: a5 = u64 [sp + 0x38]\n  7625: a5 = a5 - a2\n  7628: a5 = a5 - a3\n  7631: a5 = a5 - a1\n  7634: a0 = a0 - a4\n  7637: a0 = a0 - ra\n  7640: s1 = s1 - t1\n  7643: a0 = a0 | a5\n  7646: a2 = s1 | t0\n  7649: a2 = a2 | a0\n  7652: a0 = a0 | t0\n  7655: a2 = a2 >> 0x20\n  7658: a0 = a0 << 0x20\n  7661: a0 = a0 | a2\n  7664: jump @351 if a0 == 0\n      : @347 (gas: 1)\n  7667: trap\n      : @348 (gas: 2)\n  7668: a1 = 0x20100\n  7673: jump @350\n      : @349 (gas: 2)\n  7675: a1 = 0x20100\n  7680: fallthrough\n      : @350 (gas: 5)\n  7681: i32 a1 = a1 + 0\n  7683: a0 = 0x1\n  7686: a2 = 0\n  7688: ecalli 9 // 'seal_return'\n  7690: fallthrough\n      : @351 (gas: 3)\n  7691: a0 = t1\n  7693: a1 = s1\n  7695: ra = 368, jump @26\n      : @352 [@dyn 184] (gas: 6)\n  7701: i32 a1 = a0 + 0\n  7703: i32 a2 = s1 + 0\n  7705: a0 = 0\n  7707: ra = 0x172\n  7711: ecalli 9 // 'seal_return'\n  7713: fallthrough\n      : @353 [@dyn 185] (gas: 15)\n  7714: sp = sp + 0xfffffffffffffc60\n  7718: a0 = sp + 0x300\n  7722: u64 [a0 + 0x98] = ra\n  7726: u64 [a0 + 0x90] = s0\n  7730: u64 [a0 + 0x88] = s1\n  7734: s0 = sp + 0x3a0\n  7738: sp = sp & 0xffffffffffffffe0\n  7741: s1 = sp\n  7743: u64 [s1 + 856] = 0\n  7747: u64 [s1 + 848] = 0\n  7751: u64 [s1 + 840] = 0\n  7755: u64 [s1 + 832] = 0\n  7759: i32 a0 = s1 + 0x340\n  7763: ecalli 12 // 'value_transferred'\n  7765: fallthrough\n      : @354 (gas: 9)\n  7766: a4 = s1 + 0x300\n  7770: a0 = u64 [a4 + 0x50]\n  7773: a1 = u64 [a4 + 0x58]\n  7776: a2 = u64 [a4 + 0x48]\n  7779: a3 = u64 [a4 + 0x40]\n  7782: a1 = a1 | a2\n  7785: a0 = a0 | a3\n  7788: a0 = a0 | a1\n  7791: jump @393 if a0 != 0\n      : @355 (gas: 3)\n  7795: a0 = i32 [0x200f0]\n  7800: a1 = 0x43\n  7803: jump @394 if a1 >=u a0\n      : @356 (gas: 4)\n  7807: a0 = s1 + 0x320\n  7811: ra = 0x174\n  7815: t0 = 0x60\n  7818: jump @622\n      : @357 [@dyn 186] (gas: 12)\n  7821: a0 = u64 [s1 + 0x338]\n  7825: u64 [s1 + 0x40] = a0\n  7828: a0 = u64 [s1 + 0x330]\n  7832: u64 [s1 + 0x48] = a0\n  7835: a0 = u64 [s1 + 0x328]\n  7839: u64 [s1 + 0x50] = a0\n  7842: a0 = u64 [s1 + 0x320]\n  7846: u64 [s1 + 0x58] = a0\n  7849: a0 = s1 + 0x300\n  7853: ra = 0x176\n  7857: t0 = 0x74\n  7860: jump @612\n      : @358 [@dyn 187] (gas: 18)\n  7863: a1 = s1 + 0x300\n  7867: a0 = u64 [a1 + 0x18]\n  7870: u64 [s1 + 0x30] = a0\n  7873: a0 = u64 [a1 + 0x10]\n  7876: u64 [s1 + 0x28] = a0\n  7879: a0 = u64 [a1 + 0x8]\n  7882: u64 [s1 + 0x20] = a0\n  7885: a0 = u64 [a1]\n  7887: u64 [s1 + 0x18] = a0\n  7890: a0 = 0x30100\n  7895: u64 [s1 + 0x38] = a0\n  7898: i32 a0 = a0 + 0\n  7900: u64 [s1 + 0x8] = a0\n  7903: ra = 0x178\n  7907: ecalli 4 // 'caller'\n  7909: a2 = u64 [s1 + 0x38]\n  7912: t0 = 0x17a\n  7916: jump @587\n      : @359 [@dyn 188] (gas: 2)\n  7919: a2 = u64 [s1 + 0x38]\n  7922: t0 = 378, jump @587\n      : @360 [@dyn 189] (gas: 8)\n  7928: u64 [s1 + 760] = 0\n  7932: a2 = s1 + 0x200\n  7936: u64 [a2 + 0xf0] = a1\n  7940: u64 [a2 + 0xe8] = a0\n  7944: a1 = s1 + 0x2e0\n  7948: u64 [a2 + 0xe0] = a3\n  7952: a0 = 0\n  7954: ra = 380, jump @19\n      : @361 [@dyn 190] (gas: 7)\n  7960: u64 [s1 + 728] = 0\n  7964: u64 [s1 + 720] = 0\n  7968: u64 [s1 + 712] = 0\n  7972: a0 = 0x20\n  7975: a1 = s1 + 0x2c0\n  7979: u64 [s1 + 704] = 0\n  7983: ra = 382, jump @19\n      : @362 [@dyn 191] (gas: 2)\n  7989: a1 = i32 [0x200f4]\n  7994: jump @364 if a1 >u 63\n      : @363 (gas: 2)\n  7998: u32 [0x200f4] = 0x40\n  8004: fallthrough\n      : @364 (gas: 12)\n  8005: a0 = sp + 0xffffffffffffffe0\n  8008: a2 = a0 & 0xffffffffffffffe0\n  8011: u64 [s1 + 0x10] = a2\n  8014: sp = a2\n  8016: a0 = 0x20100\n  8021: i32 a0 = a0 + 0\n  8023: i32 a2 = a2 + 0\n  8025: a1 = 0x40\n  8028: ra = 0x180\n  8032: ecalli 7 // 'hash_keccak_256'\n  8034: t0 = 0x182\n  8038: jump @603\n      : @365 [@dyn 192] (gas: 1)\n  8041: t0 = 386, jump @603\n      : @366 [@dyn 193] (gas: 15)\n  8047: u64 [s1 + 0x278] = a3\n  8051: a3 = u64 [s1 + 0x48]\n  8054: u64 [s1 + 0x270] = a3\n  8058: a3 = u64 [s1 + 0x50]\n  8061: u64 [s1 + 0x268] = a3\n  8065: a3 = u64 [s1 + 0x58]\n  8068: u64 [s1 + 0x260] = a3\n  8072: u64 [s1 + 0x298] = a2\n  8076: u64 [s1 + 0x290] = a1\n  8080: u64 [s1 + 0x288] = a0\n  8084: a0 = s1 + 0x2a0\n  8088: a1 = s1 + 0x280\n  8092: a2 = s1 + 0x260\n  8096: u64 [s1 + 0x280] = a4\n  8100: ra = 388, jump @457\n      : @367 [@dyn 194] (gas: 12)\n  8106: a0 = u64 [s1 + 0x2b8]\n  8110: a1 = u64 [s1 + 0x2b0]\n  8114: a2 = u64 [s1 + 0x2a8]\n  8118: a3 = u64 [s1 + 0x2a0]\n  8122: a4 = s1 + 0x300\n  8126: u64 [a4 + 0x78] = a0\n  8129: u64 [a4 + 0x70] = a1\n  8132: u64 [a4 + 0x68] = a2\n  8135: u64 [a4 + 0x60] = a3\n  8138: a0 = s1 + 0x240\n  8142: a1 = s1 + 0x360\n  8146: ra = 390, jump @21\n      : @368 [@dyn 195] (gas: 22)\n  8152: a1 = u64 [s1 + 0x258]\n  8156: ra = u64 [s1 + 0x248]\n  8160: t2 = u64 [s1 + 0x250]\n  8164: a3 = u64 [s1 + 0x240]\n  8168: a0 = u64 [s1 + 0x30]\n  8171: a4 = a1 ^ a0\n  8174: t0 = u64 [s1 + 0x20]\n  8177: a5 = ra ^ t0\n  8180: a2 = ra <u t0\n  8183: t1 = u64 [s1 + 0x18]\n  8186: u64 [s1] = a3\n  8188: a3 = a3 <u t1\n  8191: a3 = a2 if a5 != 0\n  8194: u64 [s1 + 0x10] = a1\n  8197: a2 = a1 <u a0\n  8200: a1 = u64 [s1 + 0x28]\n  8203: a5 = t2 <u a1\n  8206: a5 = a2 if a4 != 0\n  8209: a2 = t2 ^ a1\n  8212: a2 = a2 | a4\n  8215: a3 = a5 if a2 != 0\n  8218: jump @383 if a3 == 0\n      : @369 (gas: 3)\n  8222: a0 = s1 + 0x100\n  8226: a1 = 0x40\n  8229: ra = 392, jump @17\n      : @370 [@dyn 196] (gas: 13)\n  8235: a1 = s1 + 0x100\n  8239: a4 = u64 [a1 + 0x18]\n  8242: a5 = u64 [a1 + 0x10]\n  8245: a3 = u64 [a1 + 0x8]\n  8248: a0 = u64 [a1]\n  8250: a2 = a3 | a4\n  8253: a1 = a0 | a5\n  8256: a1 = a1 | a2\n  8259: a1 = a1 >> 0x20\n  8262: a2 = a2 | a5\n  8265: a2 = a2 << 0x20\n  8268: a1 = a1 | a2\n  8271: jump @392 if a1 != 0\n      : @371 (gas: 11)\n  8275: u64 [s1 + 240] = 0\n  8279: u64 [s1 + 232] = 0\n  8283: u64 [s1 + 224] = 0\n  8287: a2 = 0x8c379a000000000\n  8297: a1 = s1 + 0xe0\n  8301: u64 [s1 + 0xf8] = a2\n  8305: u64 [s1 + 0x58] = a0\n  8308: u64 [s1 + 0x50] = a3\n  8311: u64 [s1 + 0x48] = a4\n  8314: u64 [s1 + 0x40] = a5\n  8317: ra = 394, jump @19\n      : @372 [@dyn 197] (gas: 11)\n  8323: a1 = u64 [s1 + 0x58]\n  8326: a0 = u64 [s1 + 0x48]\n  8329: a3 = u64 [s1 + 0x40]\n  8332: a3 = a3 | a0\n  8335: a4 = 0x100000000\n  8345: a0 = 0xfffffffc\n  8355: a0 = a1 <u a0\n  8358: a2 = u64 [s1 + 0x50]\n  8361: a0 = 0 if a2 != 0\n  8363: a0 = 0 if a3 != 0\n  8365: jump @392 if a0 == 0\n      : @373 (gas: 9)\n  8369: i32 a0 = a1 + 0x4\n  8372: u64 [s1 + 216] = 0\n  8376: u64 [s1 + 208] = 0\n  8380: u64 [s1 + 192] = 0x20\n  8385: a1 = s1 + 0xc0\n  8389: u64 [s1 + 200] = 0\n  8393: u64 [s1 + 0x48] = a3\n  8396: u64 [s1 + 0x40] = a4\n  8399: ra = 396, jump @19\n      : @374 [@dyn 198] (gas: 9)\n  8405: a1 = u64 [s1 + 0x58]\n  8408: a0 = u64 [s1 + 0x40]\n  8411: a0 = a0 + 0xffffffffffffffdc\n  8414: a0 = a1 <u a0\n  8417: a2 = u64 [s1 + 0x50]\n  8420: a0 = 0 if a2 != 0\n  8422: a2 = u64 [s1 + 0x48]\n  8425: a0 = 0 if a2 != 0\n  8427: jump @392 if a0 == 0\n      : @375 (gas: 7)\n  8431: i32 a0 = a1 + 0x24\n  8434: u64 [s1 + 184] = 0\n  8438: u64 [s1 + 176] = 0\n  8442: u64 [s1 + 160] = 0x25\n  8447: a1 = s1 + 0xa0\n  8451: u64 [s1 + 168] = 0\n  8455: ra = 398, jump @19\n      : @376 [@dyn 199] (gas: 4)\n  8461: a4 = u64 [s1 + 0x48]\n  8464: a3 = u64 [s1 + 0x50]\n  8467: a1 = u64 [s1 + 0x58]\n  8470: t0 = 400, jump @616\n      : @377 [@dyn 200] (gas: 1)\n  8476: jump @392 if a0 == 0\n      : @378 (gas: 12)\n  8480: i32 a0 = a1 + 0x44\n  8483: a1 = u64 [0x20028]\n  8488: u64 [s1 + 0x98] = a1\n  8492: a1 = u64 [0x20030]\n  8497: u64 [s1 + 0x40] = a2\n  8500: a2 = u64 [0x20038]\n  8505: a3 = u64 [0x20040]\n  8510: u64 [s1 + 0x90] = a1\n  8514: u64 [s1 + 0x88] = a2\n  8518: a1 = s1 + 0x80\n  8522: u64 [s1 + 0x80] = a3\n  8526: ra = 402, jump @19\n      : @379 [@dyn 201] (gas: 9)\n  8532: a2 = u64 [s1 + 0x58]\n  8535: a0 = u64 [s1 + 0x40]\n  8538: a0 = a0 + 0xffffffffffffff9c\n  8541: a0 = a2 <u a0\n  8544: a1 = u64 [s1 + 0x50]\n  8547: a0 = 0 if a1 != 0\n  8549: a1 = u64 [s1 + 0x48]\n  8552: a0 = 0 if a1 != 0\n  8554: jump @392 if a0 == 0\n      : @380 (gas: 8)\n  8558: i32 a0 = a2 + 0x64\n  8561: u64 [s1 + 112] = 0\n  8564: u64 [s1 + 104] = 0\n  8567: a1 = 0x207a65726f000000\n  8577: u64 [s1 + 0x78] = a1\n  8580: a1 = s1 + 0x60\n  8583: u64 [s1 + 96] = 0\n  8586: ra = 404, jump @19\n      : @381 [@dyn 202] (gas: 3)\n  8592: a1 = 0x84\n  8596: a0 = u64 [s1 + 0x58]\n  8599: ra = 406, jump @26\n      : @382 [@dyn 203] (gas: 6)\n  8605: i32 a1 = a0 + 0\n  8607: a0 = 0x1\n  8610: a2 = 0x84\n  8614: ra = 0x198\n  8618: ecalli 9 // 'seal_return'\n  8620: fallthrough\n      : @383 [@dyn 204] (gas: 14)\n  8621: u64 [s1 + 0x1e0] = t1\n  8625: a2 = u64 [s1]\n  8627: u64 [s1 + 0x200] = a2\n  8631: u64 [s1 + 0x1e8] = t0\n  8635: u64 [s1 + 0x208] = ra\n  8639: u64 [s1 + 0x1f0] = a1\n  8643: u64 [s1 + 0x210] = t2\n  8647: u64 [s1 + 0x1f8] = a0\n  8651: a0 = s1 + 0x220\n  8655: a1 = s1 + 0x200\n  8659: a2 = s1 + 0x1e0\n  8663: a3 = u64 [s1 + 0x10]\n  8666: u64 [s1 + 0x218] = a3\n  8670: ra = 410, jump @469\n      : @384 [@dyn 205] (gas: 14)\n  8676: a1 = s1 + 0x200\n  8680: a0 = u64 [a1 + 0x20]\n  8683: u64 [s1 + 0x30] = a0\n  8686: a0 = u64 [a1 + 0x28]\n  8689: u64 [s1 + 0x28] = a0\n  8692: a0 = u64 [a1 + 0x30]\n  8695: u64 [s1 + 0x20] = a0\n  8698: a0 = u64 [a1 + 0x38]\n  8701: u64 [s1 + 0x18] = a0\n  8704: a0 = u64 [s1 + 0x8]\n  8707: ra = 0x19c\n  8711: ecalli 4 // 'caller'\n  8713: t0 = 0x19e\n  8717: jump @592\n      : @385 [@dyn 206] (gas: 1)\n  8720: t0 = 414, jump @592\n      : @386 [@dyn 207] (gas: 23)\n  8726: u64 [s1 + 0x198] = a3\n  8730: a3 = u64 [s1 + 0x20]\n  8733: u64 [s1 + 0x190] = a3\n  8737: a3 = u64 [s1 + 0x28]\n  8740: u64 [s1 + 0x188] = a3\n  8744: a3 = u64 [s1 + 0x30]\n  8747: u64 [s1 + 0x180] = a3\n  8751: a3 = u64 [s1 + 0x40]\n  8754: u64 [s1 + 0x1b8] = a3\n  8758: a3 = u64 [s1 + 0x48]\n  8761: u64 [s1 + 0x1b0] = a3\n  8765: a3 = u64 [s1 + 0x50]\n  8768: u64 [s1 + 0x1a8] = a3\n  8772: a3 = u64 [s1 + 0x58]\n  8775: u64 [s1 + 0x1a0] = a3\n  8779: u64 [s1 + 0x1d0] = a2\n  8783: u64 [s1 + 0x1c8] = a0\n  8787: u64 [s1 + 0x1c0] = a1\n  8791: a0 = s1 + 0x1c0\n  8795: a1 = s1 + 0x1a0\n  8799: a2 = s1 + 0x180\n  8803: u64 [s1 + 472] = 0\n  8807: ra = 416, jump @472\n      : @387 [@dyn 208] (gas: 3)\n  8813: a0 = s1 + 0x160\n  8817: a1 = 0x40\n  8820: ra = 418, jump @17\n      : @388 [@dyn 209] (gas: 16)\n  8826: a4 = s1 + 0x100\n  8830: a1 = u64 [a4 + 0x78]\n  8833: u64 [s1 + 0x58] = a1\n  8836: a0 = u64 [a4 + 0x70]\n  8839: u64 [s1 + 0x50] = a0\n  8842: a2 = u64 [a4 + 0x68]\n  8845: u64 [s1 + 0x48] = a2\n  8848: a3 = u64 [a4 + 0x60]\n  8851: u64 [s1 + 0x40] = a3\n  8854: u64 [a4 + 0x38] = a1\n  8857: u64 [a4 + 0x30] = a0\n  8860: u64 [a4 + 0x28] = a2\n  8863: a0 = s1 + 0x140\n  8867: a1 = s1 + 0x120\n  8871: u64 [a4 + 0x20] = a3\n  8874: ra = 420, jump @133\n      : @389 [@dyn 210] (gas: 12)\n  8880: a4 = u64 [s1 + 0x48]\n  8883: a2 = u64 [s1 + 0x40]\n  8886: a0 = u64 [s1 + 0x58]\n  8889: a0 = a0 | a4\n  8892: a3 = u64 [s1 + 0x50]\n  8895: a1 = a2 | a3\n  8898: a1 = a1 | a0\n  8901: a1 = a1 >> 0x20\n  8904: a0 = a0 | a3\n  8907: a0 = a0 << 0x20\n  8910: a0 = a0 | a1\n  8913: jump @392 if a0 != 0\n      : @390 (gas: 22)\n  8916: t0 = a3\n  8918: a5 = s1 + 0x100\n  8922: a0 = u64 [a5 + 0x48]\n  8925: a1 = u64 [a5 + 0x58]\n  8928: u64 [s1 + 0x38] = a1\n  8931: t1 = u64 [s1 + 0x140]\n  8935: a3 = u64 [a5 + 0x50]\n  8938: t2 = a0 ^ a4\n  8941: a5 = a0 <u a4\n  8944: ra = t1 <u a2\n  8947: a5 = ra if t2 == 0\n  8950: a1 = a3 - t0\n  8953: t2 = a1 - a5\n  8956: a1 = a1 <u a5\n  8959: u64 [s1 + 0x30] = a1\n  8962: a3 = a3 <u t0\n  8965: a5 = u64 [s1 + 0x58]\n  8968: a1 = u64 [s1 + 0x38]\n  8971: a5 = a1 - a5\n  8974: a5 = a5 - a3\n  8977: a1 = u64 [s1 + 0x30]\n  8980: t0 = 422, jump @600\n      : @391 [@dyn 211] (gas: 1)\n  8986: jump @396 if a0 == 0\n      : @392 (gas: 1)\n  8989: trap\n      : @393 (gas: 2)\n  8990: a1 = 0x20100\n  8995: jump @395\n      : @394 (gas: 2)\n  8997: a1 = 0x20100\n  9002: fallthrough\n      : @395 (gas: 5)\n  9003: i32 a1 = a1 + 0\n  9005: a0 = 0x1\n  9008: a2 = 0\n  9010: ecalli 9 // 'seal_return'\n  9012: fallthrough\n      : @396 (gas: 3)\n  9013: a0 = a2\n  9015: u64 [s1 + 0x58] = a1\n  9018: ra = 424, jump @26\n      : @397 [@dyn 212] (gas: 7)\n  9024: i32 a1 = a0 + 0\n  9026: a2 = i32 [s1 + 0x58]\n  9029: a0 = 0\n  9031: ra = 0x1aa\n  9035: ecalli 9 // 'seal_return'\n  9037: t0 = 0x1ac\n  9041: jump @605\n      : @398 [@dyn 213] (gas: 1)\n  9044: t0 = 428, jump @605\n      : @399 [@dyn 214] (gas: 2)\n  9050: ecalli 12 // 'value_transferred'\n  9052: fallthrough\n      : @400 (gas: 8)\n  9053: a0 = u64 [sp + 0x110]\n  9057: a1 = u64 [sp + 0x118]\n  9061: a2 = u64 [sp + 0x108]\n  9065: a3 = u64 [sp + 0x100]\n  9069: a1 = a1 | a2\n  9072: a0 = a0 | a3\n  9075: a0 = a0 | a1\n  9078: jump @411 if a0 != 0\n      : @401 (gas: 3)\n  9081: a0 = i32 [0x200f0]\n  9086: a1 = 0x43\n  9089: jump @412 if a1 >=u a0\n      : @402 (gas: 4)\n  9092: a0 = sp + 0xe0\n  9096: ra = 0x1ae\n  9100: t0 = 0x60\n  9103: jump @622\n      : @403 [@dyn 215] (gas: 1)\n  9106: t0 = 432, jump @615\n      : @404 [@dyn 216] (gas: 15)\n  9112: ecalli 2 // 'call_data_load'\n  9114: a0 = u64 [sp + 0x120]\n  9118: u64 [sp + 0x18] = a0\n  9121: a0 = u64 [sp + 0x128]\n  9125: u64 [sp + 0x10] = a0\n  9128: a0 = u64 [sp + 0x130]\n  9132: u64 [sp + 0x8] = a0\n  9135: a0 = u64 [sp + 0x138]\n  9139: u64 [sp] = a0\n  9141: s1 = 0x30100\n  9146: i32 a0 = s1 + 0\n  9148: ra = 0x1b2\n  9152: ecalli 4 // 'caller'\n  9154: t0 = 0x1b4\n  9158: jump @588\n      : @405 [@dyn 217] (gas: 1)\n  9161: t0 = 436, jump @588\n      : @406 [@dyn 218] (gas: 1)\n  9167: ra = 438, jump @519\n      : @407 [@dyn 219] (gas: 3)\n  9173: a0 = sp + 0x60\n  9176: a1 = 0x40\n  9179: ra = 440, jump @17\n      : @408 [@dyn 220] (gas: 1)\n  9185: t0 = 442, jump @591\n      : @409 [@dyn 221] (gas: 1)\n  9191: jump @414 if a0 == 0\n      : @410 (gas: 1)\n  9194: trap\n      : @411 (gas: 2)\n  9195: a1 = 0x20100\n  9200: jump @413\n      : @412 (gas: 2)\n  9202: a1 = 0x20100\n  9207: fallthrough\n      : @413 (gas: 5)\n  9208: i32 a1 = a1 + 0\n  9210: a0 = 0x1\n  9213: a2 = 0\n  9215: ecalli 9 // 'seal_return'\n  9217: fallthrough\n      : @414 (gas: 7)\n  9218: u64 [sp + 88] = 0\n  9221: u64 [sp + 80] = 0\n  9224: u64 [sp + 72] = 0\n  9227: a1 = sp + 0x40\n  9230: u64 [sp + 64] = 0x1\n  9234: a0 = s1\n  9236: ra = 444, jump @19\n      : @415 [@dyn 222] (gas: 3)\n  9242: a1 = 0x20\n  9245: a0 = s1\n  9247: ra = 446, jump @26\n      : @416 [@dyn 223] (gas: 1)\n  9253: t0 = 448, jump @619\n      : @417 [@dyn 224] (gas: 3)\n  9259: ra = 0x1c2\n  9263: ecalli 9 // 'seal_return'\n  9265: fallthrough\n      : @418 [@dyn 225] (gas: 14)\n  9266: sp = sp + 0xfffffffffffffe20\n  9270: u64 [sp + 0x1d8] = ra\n  9274: u64 [sp + 0x1d0] = s0\n  9278: u64 [sp + 0x1c8] = s1\n  9282: s0 = sp + 0x1e0\n  9286: sp = sp & 0xffffffffffffffe0\n  9289: s1 = sp\n  9291: u64 [s1 + 408] = 0\n  9295: u64 [s1 + 400] = 0\n  9299: u64 [s1 + 392] = 0\n  9303: u64 [s1 + 384] = 0\n  9307: i32 a0 = s1 + 0x180\n  9311: ecalli 12 // 'value_transferred'\n  9313: fallthrough\n      : @419 (gas: 9)\n  9314: a4 = s1 + 0x100\n  9318: a0 = u64 [a4 + 0x90]\n  9322: a1 = u64 [a4 + 0x98]\n  9326: a2 = u64 [a4 + 0x88]\n  9330: a3 = u64 [a4 + 0x80]\n  9334: a1 = a1 | a2\n  9337: a0 = a0 | a3\n  9340: a0 = a0 | a1\n  9343: jump @433 if a0 != 0\n      : @420 (gas: 3)\n  9347: a0 = i32 [0x200f0]\n  9352: a1 = 0x43\n  9355: jump @434 if a1 >=u a0\n      : @421 (gas: 4)\n  9359: a0 = s1 + 0x160\n  9363: ra = 0x1c4\n  9367: t0 = 0x60\n  9370: jump @622\n      : @422 [@dyn 226] (gas: 10)\n  9373: a0 = u64 [s1 + 0x160]\n  9377: u64 [s1 + 0x18] = a0\n  9380: a0 = u64 [s1 + 0x168]\n  9384: u64 [s1 + 0x10] = a0\n  9387: a0 = u32 [s1 + 0x170]\n  9391: u64 [s1 + 0x8] = a0\n  9394: a0 = s1 + 0x140\n  9398: ra = 0x1c6\n  9402: t0 = 0x6a\n  9405: jump @612\n      : @423 [@dyn 227] (gas: 19)\n  9408: a2 = s1 + 0x100\n  9412: a0 = u64 [a2 + 0x58]\n  9415: u64 [s1 + 0x20] = a0\n  9418: a0 = u64 [a2 + 0x50]\n  9421: u64 [s1 + 0x28] = a0\n  9424: a0 = u64 [a2 + 0x48]\n  9427: u64 [s1 + 0x30] = a0\n  9430: a0 = u64 [a2 + 0x40]\n  9433: u64 [s1 + 0x38] = a0\n  9436: u64 [s1 + 312] = 0\n  9440: a0 = u64 [s1 + 0x8]\n  9443: u64 [a2 + 0x30] = a0\n  9446: a0 = u64 [s1 + 0x10]\n  9449: u64 [a2 + 0x28] = a0\n  9452: a1 = s1 + 0x120\n  9456: a0 = u64 [s1 + 0x18]\n  9459: u64 [a2 + 0x20] = a0\n  9462: a0 = 0\n  9464: ra = 456, jump @19\n      : @424 [@dyn 228] (gas: 7)\n  9470: u64 [s1 + 280] = 0\n  9474: u64 [s1 + 272] = 0\n  9478: u64 [s1 + 264] = 0\n  9482: a0 = 0x20\n  9485: a1 = s1 + 0x100\n  9489: u64 [s1 + 256] = 0\n  9493: ra = 458, jump @19\n      : @425 [@dyn 229] (gas: 2)\n  9499: a1 = i32 [0x200f4]\n  9504: jump @427 if a1 >u 63\n      : @426 (gas: 2)\n  9508: u32 [0x200f4] = 0x40\n  9514: fallthrough\n      : @427 (gas: 34)\n  9515: a0 = sp + 0xffffffffffffffe0\n  9518: a2 = a0 & 0xffffffffffffffe0\n  9521: u64 [s1 + 0x18] = a2\n  9524: sp = a2\n  9526: a0 = 0x20100\n  9531: i32 a0 = a0 + 0\n  9533: i32 a2 = a2 + 0\n  9535: a1 = 0x40\n  9538: ecalli 7 // 'hash_keccak_256'\n  9540: a3 = u64 [s1 + 0x18]\n  9543: a0 = u64 [a3 + 0x18]\n  9546: a1 = u64 [a3 + 0x10]\n  9549: a2 = u64 [a3 + 0x8]\n  9552: a3 = u64 [a3]\n  9554: a4 = reverse a0\n  9556: a0 = reverse a1\n  9558: a1 = reverse a2\n  9560: a2 = reverse a3\n  9562: a3 = u64 [s1 + 0x20]\n  9565: u64 [s1 + 0xb8] = a3\n  9569: a3 = u64 [s1 + 0x28]\n  9572: u64 [s1 + 0xb0] = a3\n  9576: a3 = u64 [s1 + 0x30]\n  9579: u64 [s1 + 0xa8] = a3\n  9583: a3 = u64 [s1 + 0x38]\n  9586: u64 [s1 + 0xa0] = a3\n  9590: u64 [s1 + 0xd8] = a2\n  9594: u64 [s1 + 0xd0] = a1\n  9598: u64 [s1 + 0xc8] = a0\n  9602: a0 = s1 + 0xe0\n  9606: a1 = s1 + 0xc0\n  9610: a2 = s1 + 0xa0\n  9614: u64 [s1 + 0xc0] = a4\n  9618: ra = 460, jump @457\n      : @428 [@dyn 230] (gas: 12)\n  9624: a0 = u64 [s1 + 0xf8]\n  9628: a1 = u64 [s1 + 0xf0]\n  9632: a2 = u64 [s1 + 0xe8]\n  9636: a3 = u64 [s1 + 0xe0]\n  9640: a4 = s1 + 0x100\n  9644: u64 [a4 + 0xb8] = a0\n  9648: u64 [a4 + 0xb0] = a1\n  9652: u64 [a4 + 0xa8] = a2\n  9656: u64 [a4 + 0xa0] = a3\n  9660: a0 = s1 + 0x80\n  9664: a1 = s1 + 0x1a0\n  9668: ra = 462, jump @21\n      : @429 [@dyn 231] (gas: 11)\n  9674: a0 = u64 [s1 + 0x98]\n  9678: u64 [s1 + 0x38] = a0\n  9681: a0 = u64 [s1 + 0x90]\n  9685: u64 [s1 + 0x30] = a0\n  9688: a0 = u64 [s1 + 0x88]\n  9692: u64 [s1 + 0x28] = a0\n  9695: a0 = u64 [s1 + 0x80]\n  9699: u64 [s1 + 0x20] = a0\n  9702: a0 = s1 + 0x60\n  9705: a1 = 0x40\n  9708: ra = 464, jump @17\n      : @430 [@dyn 232] (gas: 5)\n  9714: a0 = u64 [s1 + 0x78]\n  9717: a1 = u64 [s1 + 0x70]\n  9720: a2 = u64 [s1 + 0x68]\n  9723: a3 = u64 [s1 + 0x60]\n  9726: t0 = 466, jump @614\n      : @431 [@dyn 233] (gas: 1)\n  9732: jump @436 if a0 == 0\n      : @432 (gas: 1)\n  9735: trap\n      : @433 (gas: 2)\n  9736: a1 = 0x20100\n  9741: jump @435\n      : @434 (gas: 2)\n  9743: a1 = 0x20100\n  9748: fallthrough\n      : @435 (gas: 5)\n  9749: i32 a1 = a1 + 0\n  9751: a0 = 0x1\n  9754: a2 = 0\n  9756: ecalli 9 // 'seal_return'\n  9758: fallthrough\n      : @436 (gas: 12)\n  9759: a0 = u64 [s1 + 0x20]\n  9762: u64 [s1 + 0x40] = a0\n  9765: a0 = u64 [s1 + 0x28]\n  9768: u64 [s1 + 0x48] = a0\n  9771: a0 = u64 [s1 + 0x30]\n  9774: u64 [s1 + 0x50] = a0\n  9777: a1 = s1 + 0x40\n  9780: a0 = u64 [s1 + 0x38]\n  9783: u64 [s1 + 0x58] = a0\n  9786: a0 = a3\n  9788: u64 [s1 + 0x38] = a3\n  9791: ra = 468, jump @19\n      : @437 [@dyn 234] (gas: 3)\n  9797: a1 = 0x20\n  9800: a0 = u64 [s1 + 0x38]\n  9803: ra = 470, jump @26\n      : @438 [@dyn 235] (gas: 1)\n  9809: t0 = 472, jump @619\n      : @439 [@dyn 236] (gas: 3)\n  9815: ra = 0x1da\n  9819: ecalli 9 // 'seal_return'\n  9821: fallthrough\n      : @440 [@dyn 237] (gas: 17)\n  9822: sp = sp + 0xffffffffffffff30\n  9826: u64 [sp + 0xc8] = ra\n  9830: u64 [sp + 0xc0] = s0\n  9834: u64 [sp + 0xb8] = s1\n  9838: s0 = sp + 0xd0\n  9842: sp = sp & 0xfffffffffffffff0\n  9845: a2 = u64 [a1 + 0x18]\n  9848: u64 [sp + 0x10] = a2\n  9851: a2 = u64 [a1 + 0x10]\n  9854: u64 [sp + 0x8] = a2\n  9857: a2 = u64 [a1 + 0x8]\n  9860: u64 [sp] = a2\n  9862: s1 = u64 [a1]\n  9864: u64 [sp + 0x28] = a0\n  9867: a0 = sp + 0x90\n  9871: a1 = 0x40\n  9874: ra = 476, jump @17\n      : @441 [@dyn 238] (gas: 39)\n  9880: a1 = u64 [sp + 0x98]\n  9884: a2 = u64 [sp + 0x90]\n  9888: a0 = s1 + 0x1f\n  9891: ra = a0 <u s1\n  9894: a3 = u64 [sp]\n  9896: a4 = a3 + ra\n  9899: a0 = a0 & 0xffffffffffffffe0\n  9902: t1 = a1 + a4\n  9905: t0 = a2 + a0\n  9908: u64 [sp + 0x20] = a2\n  9911: a5 = t0 <u a2\n  9914: t1 = t1 + a5\n  9917: s1 = t1 ^ a1\n  9920: u64 [sp + 0x18] = a1\n  9923: a2 = t1 <u a1\n  9926: a2 = a5 if s1 == 0\n  9929: t2 = u64 [sp + 0xa8]\n  9933: a4 = a4 <u a3\n  9936: s1 = u64 [sp + 0xa0]\n  9940: a4 = ra if ra == 0\n  9943: a0 = u64 [sp + 0x8]\n  9946: a4 = a4 + a0\n  9949: a5 = a4 <u a0\n  9952: a4 = a4 + s1\n  9955: a3 = a4 + a2\n  9958: a0 = u64 [sp + 0x10]\n  9961: a0 = a0 + t2\n  9964: a0 = a0 + a5\n  9967: a5 = a3 <u a4\n  9970: a4 = a4 <u s1\n  9973: a0 = a0 + a4\n  9976: a4 = a0 + a5\n  9979: a0 = a4 >u 0\n  9981: a5 = a3 >u 0\n  9983: a5 = a0 if a4 != 0\n  9986: a0 = a3 | a4\n  9989: a1 = t1 >u 0\n  9991: a1 = a5 if a0 != 0\n  9994: jump @445 if a1 != 0\n      : @442 (gas: 8)\n  9997: a0 = a3 <u s1\n 10000: a1 = a4 ^ t2\n 10003: a5 = a4 <u t2\n 10006: a5 = a0 if a1 == 0\n 10009: a0 = a3 ^ s1\n 10012: a0 = a0 | a1\n 10015: a2 = a5 if a0 != 0\n 10018: jump @445 if a2 != 0\n      : @443 (gas: 8)\n 10021: u64 [sp + 0x70] = t0\n 10024: u64 [sp + 0x78] = t1\n 10027: u64 [sp + 0x80] = a3\n 10031: a0 = 0x40\n 10034: a1 = sp + 0x70\n 10037: u64 [sp + 0x88] = a4\n 10041: u64 [sp + 0x10] = t2\n 10044: ra = 478, jump @19\n      : @444 [@dyn 239] (gas: 14)\n 10050: a0 = u64 [sp + 0x28]\n 10053: a1 = u64 [sp + 0x10]\n 10056: u64 [a0 + 0x18] = a1\n 10059: u64 [a0 + 0x10] = s1\n 10062: a1 = u64 [sp + 0x18]\n 10065: u64 [a0 + 0x8] = a1\n 10068: a1 = u64 [sp + 0x20]\n 10071: u64 [a0] = a1\n 10073: sp = s0 + 0xffffffffffffff30\n 10077: ra = u64 [sp + 0xc8]\n 10081: s0 = u64 [sp + 0xc0]\n 10085: s1 = u64 [sp + 0xb8]\n 10089: sp = sp + 0xd0\n 10093: ret\n      : @445 (gas: 8)\n 10095: u64 [sp + 96] = 0\n 10098: u64 [sp + 88] = 0\n 10101: u64 [sp + 80] = 0\n 10104: a0 = 0x4e487b7100000000\n 10114: a1 = sp + 0x50\n 10117: u64 [sp + 0x68] = a0\n 10120: a0 = 0\n 10122: ra = 480, jump @19\n      : @446 [@dyn 240] (gas: 7)\n 10128: u64 [sp + 72] = 0\n 10131: u64 [sp + 64] = 0\n 10134: u64 [sp + 48] = 0x41\n 10138: a0 = 0x4\n 10141: a1 = sp + 0x30\n 10144: u64 [sp + 56] = 0\n 10147: ra = 482, jump @19\n      : @447 [@dyn 241] (gas: 2)\n 10153: a1 = i32 [0x200f4]\n 10158: jump @449 if a1 >u 63\n      : @448 (gas: 2)\n 10162: u32 [0x200f4] = 0x40\n 10168: fallthrough\n      : @449 (gas: 7)\n 10169: a1 = 0x20100\n 10174: i32 a1 = a1 + 0\n 10176: a0 = 0x1\n 10179: a2 = 0x24\n 10182: ra = 0x1e4\n 10186: ecalli 9 // 'seal_return'\n 10188: fallthrough\n      : @450 [@dyn 242] (gas: 18)\n 10189: sp = sp + 0xffffffffffffff80\n 10192: u64 [sp + 0x78] = ra\n 10195: u64 [sp + 0x70] = s0\n 10198: u64 [sp + 0x68] = s1\n 10201: s0 = sp + 0x80\n 10205: sp = sp & 0xffffffffffffffe0\n 10208: s1 = sp\n 10210: a2 = u64 [a1]\n 10212: a3 = u64 [a1 + 0x8]\n 10215: a1 = u32 [a1 + 0x10]\n 10218: u64 [s1 + 0x18] = a0\n 10221: u64 [s1 + 88] = 0\n 10224: u64 [s1 + 0x50] = a1\n 10227: u64 [s1 + 0x48] = a3\n 10230: a1 = s1 + 0x40\n 10233: u64 [s1 + 0x40] = a2\n 10236: a0 = 0\n 10238: ra = 486, jump @19\n      : @451 [@dyn 243] (gas: 7)\n 10244: u64 [s1 + 56] = 0\n 10247: u64 [s1 + 48] = 0\n 10250: u64 [s1 + 40] = 0\n 10253: a0 = 0x20\n 10256: a1 = s1 + a0\n 10259: u64 [s1 + 32] = 0\n 10262: ra = 488, jump @19\n      : @452 [@dyn 244] (gas: 2)\n 10268: a1 = i32 [0x200f4]\n 10273: jump @454 if a1 >u 63\n      : @453 (gas: 2)\n 10277: u32 [0x200f4] = 0x40\n 10283: fallthrough\n      : @454 (gas: 13)\n 10284: a0 = sp + 0xffffffffffffffe0\n 10287: a2 = a0 & 0xffffffffffffffe0\n 10290: u64 [s1 + 0x10] = a2\n 10293: sp = a2\n 10295: a0 = 0x20100\n 10300: i32 a0 = a0 + 0\n 10302: i32 a2 = a2 + 0\n 10304: a1 = 0x40\n 10307: ra = 0x1ea\n 10311: ecalli 7 // 'hash_keccak_256'\n 10313: a3 = u64 [s1 + 0x10]\n 10316: t0 = 0x1ec\n 10320: jump @610\n      : @455 [@dyn 245] (gas: 2)\n 10323: a3 = u64 [s1 + 0x10]\n 10326: t0 = 492, jump @610\n      : @456 [@dyn 246] (gas: 11)\n 10332: a4 = u64 [s1 + 0x18]\n 10335: u64 [a4 + 0x18] = a3\n 10338: u64 [a4 + 0x10] = a2\n 10341: u64 [a4 + 0x8] = a1\n 10344: u64 [a4] = a0\n 10346: sp = s0 + 0xffffffffffffff80\n 10349: ra = u64 [sp + 0x78]\n 10352: s0 = u64 [sp + 0x70]\n 10355: s1 = u64 [sp + 0x68]\n 10358: sp = sp + 0x80\n 10362: ret\n      : @457 (gas: 26)\n 10364: sp = sp + 0xffffffffffffff60\n 10368: u64 [sp + 0x98] = ra\n 10372: u64 [sp + 0x90] = s0\n 10376: u64 [sp + 0x88] = s1\n 10380: s0 = sp + 0xa0\n 10384: sp = sp & 0xffffffffffffffe0\n 10387: s1 = sp\n 10389: a3 = u64 [a1]\n 10391: u64 [s1 + 0x30] = a3\n 10394: a3 = u64 [a1 + 0x8]\n 10397: u64 [s1 + 0x28] = a3\n 10400: a3 = u64 [a1 + 0x10]\n 10403: u64 [s1 + 0x20] = a3\n 10406: a1 = u64 [a1 + 0x18]\n 10409: u64 [s1 + 0x18] = a1\n 10412: a3 = u64 [a2]\n 10414: a1 = u64 [a2 + 0x8]\n 10417: a2 = u32 [a2 + 0x10]\n 10420: u64 [s1 + 0x38] = a0\n 10423: u64 [s1 + 120] = 0\n 10426: u64 [s1 + 0x70] = a2\n 10429: u64 [s1 + 0x68] = a1\n 10432: a1 = s1 + 0x60\n 10435: u64 [s1 + 0x60] = a3\n 10438: a0 = 0\n 10440: ra = 494, jump @19\n      : @458 [@dyn 247] (gas: 11)\n 10446: a0 = u64 [s1 + 0x18]\n 10449: u64 [s1 + 0x58] = a0\n 10452: a0 = u64 [s1 + 0x20]\n 10455: u64 [s1 + 0x50] = a0\n 10458: a0 = u64 [s1 + 0x28]\n 10461: u64 [s1 + 0x48] = a0\n 10464: a0 = 0x20\n 10467: a1 = s1 + 0x40\n 10470: a2 = u64 [s1 + 0x30]\n 10473: u64 [s1 + 0x40] = a2\n 10476: ra = 496, jump @19\n      : @459 [@dyn 248] (gas: 2)\n 10482: a1 = i32 [0x200f4]\n 10487: jump @461 if a1 >u 63\n      : @460 (gas: 2)\n 10491: u32 [0x200f4] = 0x40\n 10497: fallthrough\n      : @461 (gas: 13)\n 10498: a0 = sp + 0xffffffffffffffe0\n 10501: a2 = a0 & 0xffffffffffffffe0\n 10504: u64 [s1 + 0x30] = a2\n 10507: sp = a2\n 10509: a0 = 0x20100\n 10514: i32 a0 = a0 + 0\n 10516: i32 a2 = a2 + 0\n 10518: a1 = 0x40\n 10521: ra = 0x1f2\n 10525: ecalli 7 // 'hash_keccak_256'\n 10527: a3 = u64 [s1 + 0x30]\n 10530: t0 = 0x1f4\n 10534: jump @610\n      : @462 [@dyn 249] (gas: 2)\n 10537: a3 = u64 [s1 + 0x30]\n 10540: t0 = 500, jump @610\n      : @463 [@dyn 250] (gas: 11)\n 10546: a4 = u64 [s1 + 0x38]\n 10549: u64 [a4 + 0x18] = a3\n 10552: u64 [a4 + 0x10] = a2\n 10555: u64 [a4 + 0x8] = a1\n 10558: u64 [a4] = a0\n 10560: sp = s0 + 0xffffffffffffff60\n 10564: ra = u64 [sp + 0x98]\n 10568: s0 = u64 [sp + 0x90]\n 10572: s1 = u64 [sp + 0x88]\n 10576: sp = sp + 0xa0\n 10580: ret\n      : @464 (gas: 13)\n 10582: sp = sp + 0xffffffffffffffb0\n 10585: u64 [sp + 0x48] = ra\n 10588: u64 [sp + 0x40] = s0\n 10591: s0 = sp + 0x50\n 10594: sp = sp & 0xfffffffffffffff0\n 10597: u64 [sp + 48] = 0\n 10600: u64 [sp + 40] = 0\n 10603: u64 [sp + 32] = 0\n 10606: a0 = 0x4e487b7100000000\n 10616: a1 = sp + 0x20\n 10619: u64 [sp + 0x38] = a0\n 10622: a0 = 0\n 10624: ra = 502, jump @19\n      : @465 [@dyn 251] (gas: 7)\n 10630: u64 [sp + 24] = 0\n 10633: u64 [sp + 16] = 0\n 10636: u64 [sp + 0] = 0x11\n 10639: a0 = 0x4\n 10642: a1 = sp\n 10644: u64 [sp + 8] = 0\n 10647: ra = 504, jump @19\n      : @466 [@dyn 252] (gas: 2)\n 10653: a1 = i32 [0x200f4]\n 10658: jump @468 if a1 >u 63\n      : @467 (gas: 2)\n 10662: u32 [0x200f4] = 0x40\n 10668: fallthrough\n      : @468 (gas: 7)\n 10669: a1 = 0x20100\n 10674: i32 a1 = a1 + 0\n 10676: a0 = 0x1\n 10679: a2 = 0x24\n 10682: ra = 0x1fa\n 10686: ecalli 9 // 'seal_return'\n 10688: fallthrough\n      : @469 [@dyn 253] (gas: 28)\n 10689: sp = sp + 0xffffffffffffffc8\n 10692: u64 [sp + 0x30] = ra\n 10695: u64 [sp + 0x28] = s0\n 10698: u64 [sp + 0x20] = s1\n 10701: a4 = u64 [a2]\n 10703: a3 = u64 [a1]\n 10705: s1 = u64 [a2 + 0x8]\n 10708: t2 = u64 [a1 + 0x8]\n 10711: ra = u64 [a2 + 0x10]\n 10714: a5 = u64 [a1 + 0x10]\n 10717: a2 = u64 [a2 + 0x18]\n 10720: t0 = u64 [a1 + 0x18]\n 10723: s0 = t2 ^ s1\n 10726: u64 [sp + 0x8] = s1\n 10729: s1 = t2 <u s1\n 10732: u64 [sp + 0x18] = a4\n 10735: u64 [sp + 0x10] = a3\n 10738: a1 = a3 <u a4\n 10741: u64 [sp] = a1\n 10743: s1 = a1 if s0 == 0\n 10746: a1 = t0 ^ a2\n 10749: t1 = t0 <u a2\n 10752: s0 = a5 <u ra\n 10755: t1 = s0 if a1 == 0\n 10758: a4 = a5 ^ ra\n 10761: a1 = a1 | a4\n 10764: t1 = s1 if a1 == 0\n 10767: jump @471 if t1 != 0\n      : @470 (gas: 22)\n 10770: a1 = a5 - ra\n 10773: a4 = a1 <u s1\n 10776: a2 = t0 - a2\n 10779: a2 = a2 - s0\n 10782: a2 = a2 - a4\n 10785: a1 = a1 - s1\n 10788: a3 = u64 [sp + 0x8]\n 10791: a3 = t2 - a3\n 10794: a4 = u64 [sp]\n 10796: a3 = a3 - a4\n 10799: a4 = u64 [sp + 0x18]\n 10802: a5 = u64 [sp + 0x10]\n 10805: a4 = a5 - a4\n 10808: u64 [a0] = a4\n 10810: u64 [a0 + 0x8] = a3\n 10813: u64 [a0 + 0x10] = a1\n 10816: u64 [a0 + 0x18] = a2\n 10819: ra = u64 [sp + 0x30]\n 10822: s0 = u64 [sp + 0x28]\n 10825: s1 = u64 [sp + 0x20]\n 10828: sp = sp + 0x38\n 10831: ret\n      : @471 (gas: 1)\n 10833: ra = 508, jump @464\n      : @472 [@dyn 254] (gas: 31)\n 10839: sp = sp + 0xfffffffffffffc20\n 10843: a3 = sp + 0x300\n 10847: u64 [a3 + 0xd8] = ra\n 10851: u64 [a3 + 0xd0] = s0\n 10855: u64 [a3 + 0xc8] = s1\n 10859: s0 = sp + 0x3e0\n 10863: sp = sp & 0xffffffffffffffe0\n 10866: a3 = u64 [a1 + 0x18]\n 10869: u64 [sp + 0x68] = a3\n 10872: a3 = u64 [a1 + 0x10]\n 10875: u64 [sp + 0x70] = a3\n 10878: a3 = u64 [a1 + 0x8]\n 10881: u64 [sp + 0x78] = a3\n 10884: ra = u64 [a1]\n 10886: t0 = u64 [a0 + 0x18]\n 10889: t2 = u64 [a0 + 0x8]\n 10892: a5 = u64 [a0]\n 10894: t1 = u64 [a0 + 0x10]\n 10897: a4 = u64 [a2 + 0x18]\n 10900: a0 = u64 [a2 + 0x10]\n 10903: s1 = u64 [a2 + 0x8]\n 10906: a1 = u64 [a2]\n 10908: u64 [sp + 0x398] = a4\n 10912: u64 [sp + 0x390] = a0\n 10916: u64 [sp + 0x388] = s1\n 10920: a2 = t1 << 0x20\n 10923: a3 = a2 >> 0x20\n 10926: a2 = a5 | t2\n 10929: a2 = a2 | a3\n 10932: u64 [sp + 0x380] = a1\n 10936: jump @484 if a2 == 0\n      : @473 (gas: 18)\n 10940: u64 [sp + 0x48] = a4\n 10943: u64 [sp + 0x50] = a0\n 10946: u64 [sp + 0x58] = s1\n 10949: u64 [sp + 0x60] = a1\n 10952: u64 [sp + 0x38] = a3\n 10955: a3 = 0xffffffff\n 10965: a1 = u64 [sp + 0x78]\n 10968: a1 = a1 & 0xffffffffffffffff\n 10971: u64 [sp + 0x40] = ra\n 10974: s1 = ra & 0xffffffffffffffff\n 10977: a2 = u64 [sp + 0x70]\n 10980: a2 = a2 & a3\n 10983: u64 [sp + 0x30] = a2\n 10986: u64 [sp + 0x20] = s1\n 10989: a2 = a2 | s1\n 10992: u64 [sp + 0x28] = a1\n 10995: a2 = a2 | a1\n 10998: jump @500 if a2 == 0\n      : @474 (gas: 10)\n 11002: u64 [sp + 0x10] = a5\n 11005: a2 = sp + 0x300\n 11009: u64 [a2 + 0x40] = a5\n 11012: u64 [a2 + 0x50] = t1\n 11015: u64 [a2 + 0x58] = t0\n 11018: a0 = sp + 0x360\n 11022: a1 = sp + 0x340\n 11026: u64 [sp + 0x18] = t2\n 11029: u64 [a2 + 0x48] = t2\n 11032: ra = 510, jump @450\n      : @475 [@dyn 255] (gas: 22)\n 11038: a5 = sp + 0x300\n 11042: a3 = u64 [a5 + 0x60]\n 11045: a0 = u64 [a5 + 0x68]\n 11048: a1 = u64 [a5 + 0x70]\n 11051: a2 = u64 [a5 + 0x78]\n 11054: a4 = u64 [sp + 0x68]\n 11057: s1 = sp + 0x200\n 11061: u64 [s1 + 0xf8] = a4\n 11065: a4 = u64 [sp + 0x70]\n 11068: u64 [s1 + 0xf0] = a4\n 11072: a4 = u64 [sp + 0x78]\n 11075: u64 [s1 + 0xe8] = a4\n 11079: a4 = u64 [sp + 0x40]\n 11082: u64 [s1 + 0xe0] = a4\n 11086: u64 [a5 + 0x18] = a2\n 11089: u64 [a5 + 0x10] = a1\n 11092: u64 [a5 + 0x8] = a0\n 11095: a0 = sp + 0x320\n 11099: a1 = sp + 0x300\n 11103: a2 = sp + 0x2e0\n 11107: u64 [a5] = a3\n 11109: ra = 512, jump @457\n      : @476 [@dyn 256] (gas: 52)\n 11115: a4 = sp + 0x300\n 11119: a0 = u64 [a4 + 0x38]\n 11122: a1 = u64 [a4 + 0x30]\n 11125: a2 = u64 [a4 + 0x28]\n 11128: a3 = u64 [a4 + 0x20]\n 11131: u64 [a4 + 0xb8] = a0\n 11135: u64 [a4 + 0xb0] = a1\n 11139: u64 [a4 + 0xa8] = a2\n 11143: u64 [a4 + 0xa0] = a3\n 11147: a0 = sp + 0x3a0\n 11151: a1 = sp + 0x380\n 11155: ra = 0x202\n 11159: sp = sp + 0xffffffffffffffa0\n 11162: u64 [sp + 0x58] = ra\n 11165: u64 [sp + 0x50] = s0\n 11168: s0 = sp + 0x60\n 11171: sp = sp & 0xffffffffffffffe0\n 11174: t0 = u64 [a0]\n 11176: a3 = u64 [a0 + 0x8]\n 11179: a4 = u64 [a0 + 0x10]\n 11182: a0 = u64 [a0 + 0x18]\n 11185: t1 = u64 [a1]\n 11187: a2 = u64 [a1 + 0x8]\n 11190: a5 = u64 [a1 + 0x10]\n 11193: a1 = u64 [a1 + 0x18]\n 11196: t2 = reverse a0\n 11198: a4 = reverse a4\n 11200: a3 = reverse a3\n 11202: a0 = reverse t0\n 11204: t0 = reverse a1\n 11206: a5 = reverse a5\n 11208: a2 = reverse a2\n 11210: a1 = reverse t1\n 11212: u64 [sp + 0x18] = a0\n 11215: u64 [sp + 0x10] = a3\n 11218: u64 [sp + 0x8] = a4\n 11221: u64 [sp] = t2\n 11223: u64 [sp + 0x38] = a1\n 11226: u64 [sp + 0x30] = a2\n 11229: u64 [sp + 0x28] = a5\n 11232: u64 [sp + 0x20] = t0\n 11235: i32 a1 = sp + 0\n 11237: i32 a3 = sp + 0x20\n 11240: a2 = 0xffffffffffffffff\n 11243: a4 = 0x20\n 11246: a0 = 0\n 11248: ecalli 11 // 'set_storage'\n 11250: sp = s0 + 0xffffffffffffffa0\n 11253: ra = u64 [sp + 0x58]\n 11256: s0 = u64 [sp + 0x50]\n 11259: sp = sp + 0x60\n 11262: ret\n      : @477 [@dyn 257] (gas: 3)\n 11264: a0 = sp + 0x2c0\n 11268: a1 = 0x40\n 11271: ra = 516, jump @17\n      : @478 [@dyn 258] (gas: 24)\n 11277: a4 = sp + 0x200\n 11281: s1 = u64 [a4 + 0xd8]\n 11285: a1 = u64 [a4 + 0xd0]\n 11289: u64 [sp + 0x78] = a1\n 11292: a2 = u64 [a4 + 0xc8]\n 11296: u64 [sp + 0x70] = a2\n 11299: a3 = u64 [a4 + 0xc0]\n 11303: u64 [sp + 0x68] = a3\n 11306: a0 = u64 [sp + 0x48]\n 11309: u64 [a4 + 0x78] = a0\n 11312: a0 = u64 [sp + 0x50]\n 11315: u64 [a4 + 0x70] = a0\n 11318: a0 = u64 [sp + 0x58]\n 11321: u64 [a4 + 0x68] = a0\n 11324: a0 = u64 [sp + 0x60]\n 11327: u64 [a4 + 0x60] = a0\n 11330: u64 [a4 + 0x98] = s1\n 11334: u64 [a4 + 0x90] = a1\n 11338: u64 [a4 + 0x88] = a2\n 11342: a0 = sp + 0x2a0\n 11346: a1 = sp + 0x280\n 11350: a2 = sp + 0x260\n 11354: u64 [a4 + 0x80] = a3\n 11358: ra = 518, jump @157\n      : @479 [@dyn 259] (gas: 12)\n 11364: a2 = u64 [sp + 0x70]\n 11367: t2 = u64 [sp + 0x68]\n 11370: u64 [sp + 0x60] = s1\n 11373: a0 = a2 | s1\n 11376: s1 = u64 [sp + 0x78]\n 11379: a1 = t2 | s1\n 11382: a1 = a1 | a0\n 11385: a1 = a1 >> 0x20\n 11388: a0 = a0 | s1\n 11391: a0 = a0 << 0x20\n 11394: a0 = a0 | a1\n 11397: jump @515 if a0 != 0\n      : @480 (gas: 16)\n 11401: a1 = sp + 0x200\n 11405: a0 = u64 [a1 + 0xa8]\n 11409: t0 = u64 [a1 + 0xb8]\n 11413: t1 = u64 [a1 + 0xa0]\n 11417: a3 = u64 [a1 + 0xb0]\n 11421: a4 = a0 ^ a2\n 11424: a5 = a0 <u a2\n 11427: a1 = t1 <u t2\n 11430: a5 = a1 if a4 == 0\n 11433: a4 = a3 - s1\n 11436: ra = a4 - a5\n 11439: a4 = a4 <u a5\n 11442: a3 = a3 <u s1\n 11445: a5 = u64 [sp + 0x60]\n 11448: a5 = t0 - a5\n 11451: t0 = 520, jump @596\n      : @481 [@dyn 260] (gas: 1)\n 11457: jump @515 if a0 != 0\n      : @482 (gas: 28)\n 11461: a5 = sp + 0x200\n 11465: u64 [a5 + 24] = 0\n 11468: a0 = u64 [sp + 0x20]\n 11471: u64 [a5] = a0\n 11473: u64 [a5 + 56] = 0\n 11476: a0 = u64 [sp + 0x10]\n 11479: u64 [a5 + 0x20] = a0\n 11482: a0 = u64 [sp + 0x28]\n 11485: u64 [a5 + 0x8] = a0\n 11488: a0 = u64 [sp + 0x18]\n 11491: u64 [a5 + 0x28] = a0\n 11494: a0 = u64 [0x20048]\n 11499: a2 = u64 [0x20050]\n 11504: a3 = u64 [0x20058]\n 11509: a4 = u64 [0x20060]\n 11514: u64 [a5 + 0x58] = a0\n 11517: u64 [a5 + 0x50] = a2\n 11520: u64 [a5 + 0x48] = a3\n 11523: u64 [a5 + 0x40] = a4\n 11526: a0 = u64 [sp + 0x30]\n 11529: u64 [a5 + 0x10] = a0\n 11532: a2 = sp + 0x240\n 11536: a3 = sp + 0x220\n 11540: a4 = sp + 0x200\n 11544: a0 = u64 [sp + 0x38]\n 11547: u64 [a5 + 0x30] = a0\n 11550: a0 = t2\n 11552: ra = 522, jump @23\n      : @483 [@dyn 261] (gas: 7)\n 11558: sp = s0 + 0xfffffffffffffc20\n 11562: a0 = sp + 0x300\n 11566: ra = u64 [a0 + 0xd8]\n 11570: s0 = u64 [a0 + 0xd0]\n 11574: s1 = u64 [a0 + 0xc8]\n 11578: sp = sp + 0x3e0\n 11582: ret\n      : @484 (gas: 3)\n 11584: a0 = sp + 0x120\n 11588: a1 = 0x40\n 11591: ra = 524, jump @17\n      : @485 [@dyn 262] (gas: 5)\n 11597: a2 = u64 [sp + 0x138]\n 11601: s1 = u64 [sp + 0x130]\n 11605: a0 = u64 [sp + 0x128]\n 11609: a1 = u64 [sp + 0x120]\n 11613: t0 = 526, jump @620\n      : @486 [@dyn 263] (gas: 1)\n 11619: jump @515 if a0 != 0\n      : @487 (gas: 8)\n 11623: u64 [sp + 272] = 0\n 11627: u64 [sp + 264] = 0\n 11631: u64 [sp + 256] = 0\n 11635: a0 = 0x8c379a000000000\n 11645: a1 = sp + 0x100\n 11649: u64 [sp + 0x118] = a0\n 11653: a0 = u64 [sp + 0x78]\n 11656: ra = 528, jump @19\n      : @488 [@dyn 264] (gas: 1)\n 11662: t0 = 530, jump @599\n      : @489 [@dyn 265] (gas: 1)\n 11668: jump @515 if a0 == 0\n      : @490 (gas: 8)\n 11672: a0 = u64 [sp + 0x78]\n 11675: i32 a0 = a0 + 0x4\n 11678: u64 [sp + 248] = 0\n 11682: u64 [sp + 240] = 0\n 11686: u64 [sp + 224] = 0x20\n 11691: a1 = sp + 0xe0\n 11695: u64 [sp + 232] = 0\n 11699: ra = 532, jump @19\n      : @491 [@dyn 266] (gas: 1)\n 11705: t0 = 534, jump @618\n      : @492 [@dyn 267] (gas: 1)\n 11711: jump @515 if a0 == 0\n      : @493 (gas: 8)\n 11715: s1 = u64 [sp + 0x78]\n 11718: i32 a0 = s1 + 0x24\n 11721: u64 [sp + 216] = 0\n 11725: u64 [sp + 208] = 0\n 11729: u64 [sp + 192] = 0x24\n 11734: a1 = sp + 0xc0\n 11738: u64 [sp + 200] = 0\n 11742: ra = 536, jump @19\n      : @494 [@dyn 268] (gas: 4)\n 11748: a0 = 0x100000000\n 11758: u64 [sp + 0x60] = a0\n 11761: a0 = 0xffffffbc\n 11771: t0 = 538, jump @589\n      : @495 [@dyn 269] (gas: 1)\n 11777: jump @515 if a0 == 0\n      : @496 (gas: 12)\n 11781: s1 = u64 [sp + 0x78]\n 11784: i32 a0 = s1 + 0x44\n 11787: a1 = u64 [0x20068]\n 11792: u64 [sp + 0xb8] = a1\n 11796: a1 = u64 [0x20088]\n 11801: a2 = u64 [0x20090]\n 11806: a3 = u64 [0x20098]\n 11811: u64 [sp + 0xb0] = a1\n 11815: u64 [sp + 0xa8] = a2\n 11819: a1 = sp + 0xa0\n 11823: u64 [sp + 0xa0] = a3\n 11827: ra = 540, jump @19\n      : @497 [@dyn 270] (gas: 3)\n 11833: a0 = u64 [sp + 0x60]\n 11836: a0 = a0 + 0xffffffffffffff9c\n 11839: t0 = 542, jump @589\n      : @498 [@dyn 271] (gas: 1)\n 11845: jump @515 if a0 == 0\n      : @499 (gas: 10)\n 11849: s1 = u64 [sp + 0x78]\n 11852: i32 a0 = s1 + 0x64\n 11855: u64 [sp + 144] = 0\n 11859: u64 [sp + 136] = 0\n 11863: a1 = 0x7265737300000000\n 11873: u64 [sp + 0x98] = a1\n 11877: a1 = sp + 0x80\n 11881: u64 [sp + 128] = 0\n 11885: ra = 0x234\n 11889: jump @19\n      : @500 (gas: 3)\n 11892: a0 = sp + 0x1e0\n 11896: a1 = 0x40\n 11899: ra = 544, jump @17\n      : @501 [@dyn 272] (gas: 5)\n 11905: a2 = u64 [sp + 0x1f8]\n 11909: s1 = u64 [sp + 0x1f0]\n 11913: a0 = u64 [sp + 0x1e8]\n 11917: a1 = u64 [sp + 0x1e0]\n 11921: t0 = 546, jump @620\n      : @502 [@dyn 273] (gas: 1)\n 11927: jump @515 if a0 != 0\n      : @503 (gas: 8)\n 11931: u64 [sp + 464] = 0\n 11935: u64 [sp + 456] = 0\n 11939: u64 [sp + 448] = 0\n 11943: a0 = 0x8c379a000000000\n 11953: a1 = sp + 0x1c0\n 11957: u64 [sp + 0x1d8] = a0\n 11961: a0 = u64 [sp + 0x78]\n 11964: ra = 548, jump @19\n      : @504 [@dyn 274] (gas: 1)\n 11970: t0 = 550, jump @599\n      : @505 [@dyn 275] (gas: 1)\n 11976: jump @515 if a0 == 0\n      : @506 (gas: 8)\n 11980: a0 = u64 [sp + 0x78]\n 11983: i32 a0 = a0 + 0x4\n 11986: u64 [sp + 440] = 0\n 11990: u64 [sp + 432] = 0\n 11994: u64 [sp + 416] = 0x20\n 11999: a1 = sp + 0x1a0\n 12003: u64 [sp + 424] = 0\n 12007: ra = 552, jump @19\n      : @507 [@dyn 276] (gas: 1)\n 12013: t0 = 554, jump @618\n      : @508 [@dyn 277] (gas: 1)\n 12019: jump @515 if a0 == 0\n      : @509 (gas: 8)\n 12023: s1 = u64 [sp + 0x78]\n 12026: i32 a0 = s1 + 0x24\n 12029: u64 [sp + 408] = 0\n 12033: u64 [sp + 400] = 0\n 12037: u64 [sp + 384] = 0x22\n 12042: a1 = sp + 0x180\n 12046: u64 [sp + 392] = 0\n 12050: ra = 556, jump @19\n      : @510 [@dyn 278] (gas: 4)\n 12056: a0 = 0x100000000\n 12066: u64 [sp + 0x60] = a0\n 12069: a0 = 0xffffffbc\n 12079: t0 = 558, jump @589\n      : @511 [@dyn 279] (gas: 1)\n 12085: jump @515 if a0 == 0\n      : @512 (gas: 12)\n 12088: s1 = u64 [sp + 0x78]\n 12091: i32 a0 = s1 + 0x44\n 12094: a1 = u64 [0x20068]\n 12099: u64 [sp + 0x178] = a1\n 12103: a1 = u64 [0x20070]\n 12108: a2 = u64 [0x20078]\n 12113: a3 = u64 [0x20080]\n 12118: u64 [sp + 0x170] = a1\n 12122: u64 [sp + 0x168] = a2\n 12126: a1 = sp + 0x160\n 12130: u64 [sp + 0x160] = a3\n 12134: ra = 560, jump @19\n      : @513 [@dyn 280] (gas: 3)\n 12140: a0 = u64 [sp + 0x60]\n 12143: a0 = a0 + 0xffffffffffffff9c\n 12146: t0 = 562, jump @589\n      : @514 [@dyn 281] (gas: 1)\n 12152: jump @516 if a0 != 0\n      : @515 (gas: 1)\n 12155: trap\n      : @516 (gas: 9)\n 12156: s1 = u64 [sp + 0x78]\n 12159: i32 a0 = s1 + 0x64\n 12162: u64 [sp + 336] = 0\n 12166: u64 [sp + 328] = 0\n 12170: a1 = 0x7373000000000000\n 12180: u64 [sp + 0x158] = a1\n 12184: a1 = sp + 0x140\n 12188: u64 [sp + 320] = 0\n 12192: ra = 564, jump @19\n      : @517 [@dyn 282] (gas: 3)\n 12198: a1 = 0x84\n 12202: a0 = s1\n 12204: ra = 566, jump @26\n      : @518 [@dyn 283] (gas: 6)\n 12210: i32 a1 = a0 + 0\n 12212: a0 = 0x1\n 12215: a2 = 0x84\n 12219: ra = 0x238\n 12223: ecalli 9 // 'seal_return'\n 12225: fallthrough\n      : @519 [@dyn 284] (gas: 16)\n 12226: sp = sp + 0xfffffffffffffcb0\n 12230: a3 = sp + 0x300\n 12234: u64 [a3 + 0x48] = ra\n 12237: u64 [a3 + 0x40] = s0\n 12240: u64 [a3 + 0x38] = s1\n 12243: s0 = sp + 0x350\n 12247: sp = sp & 0xfffffffffffffff0\n 12250: a4 = u64 [a0 + 0x10]\n 12253: ra = u64 [a0 + 0x8]\n 12256: a5 = u64 [a0]\n 12258: u64 [sp + 0x68] = a4\n 12261: a4 = a4 << 0x20\n 12264: a3 = a4 >> 0x20\n 12267: a4 = a5 | ra\n 12270: a4 = a4 | a3\n 12273: jump @529 if a4 == 0\n      : @520 (gas: 15)\n 12277: u64 [sp + 0x58] = a3\n 12280: a3 = u64 [a1 + 0x10]\n 12283: t2 = u64 [a1 + 0x8]\n 12286: t1 = u64 [a1]\n 12288: a4 = 0xffffffff\n 12298: t0 = t2 & 0xffffffffffffffff\n 12301: s1 = t1 & 0xffffffffffffffff\n 12304: u64 [sp + 0x60] = a3\n 12307: a3 = a3 & a4\n 12310: u64 [sp + 0x28] = a3\n 12313: u64 [sp + 0x18] = s1\n 12316: a3 = a3 | s1\n 12319: u64 [sp + 0x20] = t0\n 12322: a3 = a3 | t0\n 12325: jump @545 if a3 == 0\n      : @521 (gas: 32)\n 12329: a3 = u64 [a2 + 0x18]\n 12332: u64 [sp + 0x38] = a3\n 12335: s1 = u64 [a2 + 0x10]\n 12338: u64 [sp + 0x40] = s1\n 12341: a4 = u64 [a2 + 0x8]\n 12344: u64 [sp + 0x48] = a4\n 12347: a2 = u64 [a2]\n 12349: u64 [sp + 0x50] = a2\n 12352: a1 = u64 [a1 + 0x18]\n 12355: t0 = u64 [a0 + 0x18]\n 12358: u64 [sp + 0x2d0] = a2\n 12362: a2 = sp + 0x200\n 12366: u64 [a2 + 0xf0] = t1\n 12370: u64 [sp + 0x8] = a5\n 12373: u64 [sp + 0x310] = a5\n 12377: u64 [a2 + 0xd8] = a4\n 12381: u64 [a2 + 0xf8] = t2\n 12385: u64 [sp + 0x10] = ra\n 12388: a4 = sp + 0x300\n 12392: u64 [a4 + 0x18] = ra\n 12395: u64 [a2 + 0xe0] = s1\n 12399: a0 = u64 [sp + 0x60]\n 12402: u64 [a4] = a0\n 12404: a0 = u64 [sp + 0x68]\n 12407: u64 [a4 + 0x20] = a0\n 12410: u64 [a2 + 0xe8] = a3\n 12414: u64 [a4 + 0x8] = a1\n 12417: a0 = sp + 0x310\n 12421: a1 = sp + 0x2f0\n 12425: a2 = sp + 0x2d0\n 12429: u64 [a4 + 0x28] = t0\n 12432: ra = 570, jump @564\n      : @522 [@dyn 285] (gas: 3)\n 12438: a0 = sp + 0x2b0\n 12442: a1 = 0x40\n 12445: ra = 572, jump @17\n      : @523 [@dyn 286] (gas: 24)\n 12451: a4 = sp + 0x200\n 12455: s1 = u64 [a4 + 0xc8]\n 12459: a1 = u64 [a4 + 0xc0]\n 12463: u64 [sp + 0x68] = a1\n 12466: a2 = u64 [a4 + 0xb8]\n 12470: u64 [sp + 0x60] = a2\n 12473: a3 = u64 [a4 + 0xb0]\n 12477: u64 [sp + 0x30] = a3\n 12480: a0 = u64 [sp + 0x38]\n 12483: u64 [a4 + 0x68] = a0\n 12486: a0 = u64 [sp + 0x40]\n 12489: u64 [a4 + 0x60] = a0\n 12492: a0 = u64 [sp + 0x48]\n 12495: u64 [a4 + 0x58] = a0\n 12498: a0 = u64 [sp + 0x50]\n 12501: u64 [a4 + 0x50] = a0\n 12504: u64 [a4 + 0x88] = s1\n 12508: u64 [a4 + 0x80] = a1\n 12512: u64 [a4 + 0x78] = a2\n 12515: a0 = sp + 0x290\n 12519: a1 = sp + 0x270\n 12523: a2 = sp + 0x250\n 12527: u64 [a4 + 0x70] = a3\n 12530: ra = 574, jump @157\n      : @524 [@dyn 287] (gas: 12)\n 12536: a2 = u64 [sp + 0x60]\n 12539: t2 = u64 [sp + 0x30]\n 12542: u64 [sp + 0x50] = s1\n 12545: a0 = a2 | s1\n 12548: s1 = u64 [sp + 0x68]\n 12551: a1 = t2 | s1\n 12554: a1 = a1 | a0\n 12557: a1 = a1 >> 0x20\n 12560: a0 = a0 | s1\n 12563: a0 = a0 << 0x20\n 12566: a0 = a0 | a1\n 12569: jump @560 if a0 != 0\n      : @525 (gas: 16)\n 12573: a1 = sp + 0x200\n 12577: a0 = u64 [a1 + 0x98]\n 12581: t0 = u64 [a1 + 0xa8]\n 12585: t1 = u64 [a1 + 0x90]\n 12589: a3 = u64 [a1 + 0xa0]\n 12593: a4 = a0 ^ a2\n 12596: a5 = a0 <u a2\n 12599: a1 = t1 <u t2\n 12602: a5 = a1 if a4 == 0\n 12605: a4 = a3 - s1\n 12608: ra = a4 - a5\n 12611: a4 = a4 <u a5\n 12614: a3 = a3 <u s1\n 12617: a5 = u64 [sp + 0x50]\n 12620: a5 = t0 - a5\n 12623: t0 = 576, jump @596\n      : @526 [@dyn 288] (gas: 2)\n 12629: a5 = u64 [sp + 0x58]\n 12632: jump @560 if a0 != 0\n      : @527 (gas: 27)\n 12636: s1 = sp + 0x200\n 12640: u64 [s1 + 8] = 0\n 12643: a0 = u64 [sp + 0x18]\n 12646: u64 [sp + 0x1f0] = a0\n 12650: u64 [s1 + 40] = 0\n 12653: a0 = u64 [sp + 0x8]\n 12656: u64 [s1 + 0x10] = a0\n 12659: a0 = u64 [sp + 0x20]\n 12662: u64 [sp + 0x1f8] = a0\n 12666: a0 = u64 [sp + 0x10]\n 12669: u64 [s1 + 0x18] = a0\n 12672: a0 = u64 [0x200a0]\n 12677: a2 = u64 [0x200a8]\n 12682: a3 = u64 [0x200b0]\n 12687: a4 = u64 [0x200b8]\n 12692: u64 [s1 + 0x48] = a0\n 12695: u64 [s1 + 0x40] = a2\n 12698: u64 [s1 + 0x38] = a3\n 12701: u64 [s1 + 0x30] = a4\n 12704: a0 = u64 [sp + 0x28]\n 12707: u64 [s1] = a0\n 12709: a2 = sp + 0x230\n 12713: a3 = sp + 0x210\n 12717: a4 = sp + 0x1f0\n 12721: u64 [s1 + 0x20] = a5\n 12724: a0 = t2\n 12726: ra = 578, jump @23\n      : @528 [@dyn 289] (gas: 7)\n 12732: sp = s0 + 0xfffffffffffffcb0\n 12736: a0 = sp + 0x300\n 12740: ra = u64 [a0 + 0x48]\n 12743: s0 = u64 [a0 + 0x40]\n 12746: s1 = u64 [a0 + 0x38]\n 12749: sp = sp + 0x350\n 12753: ret\n      : @529 (gas: 3)\n 12755: a0 = sp + 0x110\n 12759: a1 = 0x40\n 12762: ra = 580, jump @17\n      : @530 [@dyn 290] (gas: 5)\n 12768: a2 = u64 [sp + 0x128]\n 12772: s1 = u64 [sp + 0x120]\n 12776: a0 = u64 [sp + 0x118]\n 12780: a1 = u64 [sp + 0x110]\n 12784: t0 = 582, jump @621\n      : @531 [@dyn 291] (gas: 1)\n 12790: jump @560 if a0 != 0\n      : @532 (gas: 8)\n 12794: u64 [sp + 256] = 0\n 12798: u64 [sp + 248] = 0\n 12802: u64 [sp + 240] = 0\n 12806: a0 = 0x8c379a000000000\n 12816: a1 = sp + 0xf0\n 12820: u64 [sp + 0x108] = a0\n 12824: a0 = u64 [sp + 0x68]\n 12827: ra = 584, jump @19\n      : @533 [@dyn 292] (gas: 1)\n 12833: t0 = 586, jump @598\n      : @534 [@dyn 293] (gas: 1)\n 12839: jump @560 if a0 == 0\n      : @535 (gas: 8)\n 12843: a0 = u64 [sp + 0x68]\n 12846: i32 a0 = a0 + 0x4\n 12849: u64 [sp + 232] = 0\n 12853: u64 [sp + 224] = 0\n 12857: u64 [sp + 208] = 0x20\n 12862: a1 = sp + 0xd0\n 12866: u64 [sp + 216] = 0\n 12870: ra = 588, jump @19\n      : @536 [@dyn 294] (gas: 1)\n 12876: t0 = 590, jump @617\n      : @537 [@dyn 295] (gas: 1)\n 12882: jump @560 if a0 == 0\n      : @538 (gas: 8)\n 12886: s1 = u64 [sp + 0x68]\n 12889: i32 a0 = s1 + 0x24\n 12892: u64 [sp + 200] = 0\n 12896: u64 [sp + 192] = 0\n 12900: u64 [sp + 176] = 0x25\n 12905: a1 = sp + 0xb0\n 12909: u64 [sp + 184] = 0\n 12913: ra = 592, jump @19\n      : @539 [@dyn 296] (gas: 4)\n 12919: a0 = 0x100000000\n 12929: u64 [sp + 0x50] = a0\n 12932: a0 = 0xffffffbc\n 12942: t0 = 594, jump @595\n      : @540 [@dyn 297] (gas: 1)\n 12948: jump @560 if a0 == 0\n      : @541 (gas: 12)\n 12952: s1 = u64 [sp + 0x68]\n 12955: i32 a0 = s1 + 0x44\n 12958: a1 = u64 [0x200c0]\n 12963: u64 [sp + 0xa8] = a1\n 12967: a1 = u64 [0x200c8]\n 12972: a2 = u64 [0x200e0]\n 12977: a3 = u64 [0x200e8]\n 12982: u64 [sp + 0xa0] = a1\n 12986: u64 [sp + 0x98] = a2\n 12990: a1 = sp + 0x90\n 12994: u64 [sp + 0x90] = a3\n 12998: ra = 596, jump @19\n      : @542 [@dyn 298] (gas: 3)\n 13004: a0 = u64 [sp + 0x50]\n 13007: a0 = a0 + 0xffffffffffffff9c\n 13010: t0 = 598, jump @595\n      : @543 [@dyn 299] (gas: 1)\n 13016: jump @560 if a0 == 0\n      : @544 (gas: 10)\n 13020: s1 = u64 [sp + 0x68]\n 13023: i32 a0 = s1 + 0x64\n 13026: u64 [sp + 128] = 0\n 13030: u64 [sp + 120] = 0\n 13033: a1 = 0x6472657373000000\n 13043: u64 [sp + 0x88] = a1\n 13047: a1 = sp + 0x70\n 13050: u64 [sp + 112] = 0\n 13053: ra = 0x26c\n 13057: jump @19\n      : @545 (gas: 3)\n 13060: a0 = sp + 0x1d0\n 13064: a1 = 0x40\n 13067: ra = 600, jump @17\n      : @546 [@dyn 300] (gas: 5)\n 13073: a2 = u64 [sp + 0x1e8]\n 13077: s1 = u64 [sp + 0x1e0]\n 13081: a0 = u64 [sp + 0x1d8]\n 13085: a1 = u64 [sp + 0x1d0]\n 13089: t0 = 602, jump @621\n      : @547 [@dyn 301] (gas: 1)\n 13095: jump @560 if a0 != 0\n      : @548 (gas: 8)\n 13099: u64 [sp + 448] = 0\n 13103: u64 [sp + 440] = 0\n 13107: u64 [sp + 432] = 0\n 13111: a0 = 0x8c379a000000000\n 13121: a1 = sp + 0x1b0\n 13125: u64 [sp + 0x1c8] = a0\n 13129: a0 = u64 [sp + 0x68]\n 13132: ra = 604, jump @19\n      : @549 [@dyn 302] (gas: 1)\n 13138: t0 = 606, jump @598\n      : @550 [@dyn 303] (gas: 1)\n 13144: jump @560 if a0 == 0\n      : @551 (gas: 8)\n 13148: a0 = u64 [sp + 0x68]\n 13151: i32 a0 = a0 + 0x4\n 13154: u64 [sp + 424] = 0\n 13158: u64 [sp + 416] = 0\n 13162: u64 [sp + 400] = 0x20\n 13167: a1 = sp + 0x190\n 13171: u64 [sp + 408] = 0\n 13175: ra = 608, jump @19\n      : @552 [@dyn 304] (gas: 1)\n 13181: t0 = 610, jump @617\n      : @553 [@dyn 305] (gas: 1)\n 13187: jump @560 if a0 == 0\n      : @554 (gas: 8)\n 13191: s1 = u64 [sp + 0x68]\n 13194: i32 a0 = s1 + 0x24\n 13197: u64 [sp + 392] = 0\n 13201: u64 [sp + 384] = 0\n 13205: u64 [sp + 368] = 0x23\n 13210: a1 = sp + 0x170\n 13214: u64 [sp + 376] = 0\n 13218: ra = 612, jump @19\n      : @555 [@dyn 306] (gas: 4)\n 13224: a0 = 0x100000000\n 13234: u64 [sp + 0x50] = a0\n 13237: a0 = 0xffffffbc\n 13247: t0 = 614, jump @595\n      : @556 [@dyn 307] (gas: 1)\n 13253: jump @560 if a0 == 0\n      : @557 (gas: 12)\n 13256: s1 = u64 [sp + 0x68]\n 13259: i32 a0 = s1 + 0x44\n 13262: a1 = u64 [0x200c0]\n 13267: u64 [sp + 0x168] = a1\n 13271: a1 = u64 [0x200c8]\n 13276: a2 = u64 [0x200d0]\n 13281: a3 = u64 [0x200d8]\n 13286: u64 [sp + 0x160] = a1\n 13290: u64 [sp + 0x158] = a2\n 13294: a1 = sp + 0x150\n 13298: u64 [sp + 0x150] = a3\n 13302: ra = 616, jump @19\n      : @558 [@dyn 308] (gas: 3)\n 13308: a0 = u64 [sp + 0x50]\n 13311: a0 = a0 + 0xffffffffffffff9c\n 13314: t0 = 618, jump @595\n      : @559 [@dyn 309] (gas: 1)\n 13320: jump @561 if a0 != 0\n      : @560 (gas: 1)\n 13323: trap\n      : @561 (gas: 9)\n 13324: s1 = u64 [sp + 0x68]\n 13327: i32 a0 = s1 + 0x64\n 13330: u64 [sp + 320] = 0\n 13334: u64 [sp + 312] = 0\n 13338: a1 = 0x6573730000000000\n 13348: u64 [sp + 0x148] = a1\n 13352: a1 = sp + 0x130\n 13356: u64 [sp + 304] = 0\n 13360: ra = 620, jump @19\n      : @562 [@dyn 310] (gas: 3)\n 13366: a1 = 0x84\n 13370: a0 = s1\n 13372: ra = 622, jump @26\n      : @563 [@dyn 311] (gas: 6)\n 13378: i32 a1 = a0 + 0\n 13380: a0 = 0x1\n 13383: a2 = 0x84\n 13387: ra = 0x270\n 13391: ecalli 9 // 'seal_return'\n 13393: fallthrough\n      : @564 [@dyn 312] (gas: 33)\n 13394: sp = sp + 0xfffffffffffffe20\n 13398: u64 [sp + 0x1d8] = ra\n 13402: u64 [sp + 0x1d0] = s0\n 13406: u64 [sp + 0x1c8] = s1\n 13410: s0 = sp + 0x1e0\n 13414: sp = sp & 0xffffffffffffffe0\n 13417: a3 = u64 [a2 + 0x18]\n 13420: u64 [sp + 0x20] = a3\n 13423: a3 = u64 [a2 + 0x10]\n 13426: u64 [sp + 0x18] = a3\n 13429: a3 = u64 [a2 + 0x8]\n 13432: u64 [sp + 0x10] = a3\n 13435: a2 = u64 [a2]\n 13437: u64 [sp + 0x8] = a2\n 13440: a2 = u64 [a1 + 0x10]\n 13443: u64 [sp + 0x28] = a2\n 13446: a2 = u64 [a1 + 0x8]\n 13449: u64 [sp + 0x30] = a2\n 13452: a1 = u64 [a1]\n 13454: u64 [sp + 0x38] = a1\n 13457: a1 = u64 [a0 + 0x10]\n 13460: u64 [sp + 0x40] = a1\n 13463: a1 = u64 [a0 + 0x8]\n 13466: u64 [sp + 0x50] = a1\n 13469: a0 = u64 [a0]\n 13471: u64 [sp + 0x48] = a0\n 13474: u64 [sp + 312] = 0\n 13478: u64 [sp + 304] = 0\n 13482: u64 [sp + 288] = 0xa0\n 13488: a0 = sp + 0x140\n 13492: a1 = sp + 0x120\n 13496: u64 [sp + 296] = 0\n 13500: ra = 626, jump @440\n      : @565 [@dyn 313] (gas: 16)\n 13506: a2 = u64 [sp + 0x158]\n 13510: a3 = u64 [sp + 0x150]\n 13514: a0 = u64 [sp + 0x148]\n 13518: a1 = u64 [sp + 0x140]\n 13522: u64 [sp + 0x70] = a0\n 13525: u64 [sp + 0x68] = a2\n 13528: a0 = a0 | a2\n 13531: u64 [sp + 0x78] = a1\n 13534: a1 = a1 | a3\n 13537: a1 = a1 | a0\n 13540: a1 = a1 >> 0x20\n 13543: u64 [sp + 0x60] = a3\n 13546: a0 = a0 | a3\n 13549: a0 = a0 << 0x20\n 13552: a0 = a0 | a1\n 13555: jump @583 if a0 != 0\n      : @566 (gas: 6)\n 13559: a0 = i32 [0x200f0]\n 13564: u64 [sp + 0x58] = a0\n 13567: a1 = 0xa0\n 13571: s1 = u64 [sp + 0x78]\n 13574: a0 = s1\n 13576: ra = 628, jump @26\n      : @567 [@dyn 314] (gas: 11)\n 13582: i32 a0 = a0 + 0\n 13584: a1 = 0xa0\n 13588: a2 = u64 [sp + 0x58]\n 13591: ecalli 1 // 'call_data_copy'\n 13593: u64 [sp + 280] = 0\n 13597: u64 [sp + 272] = 0\n 13601: u64 [sp + 264] = 0\n 13605: a1 = sp + 0x100\n 13609: u64 [sp + 256] = 0x2\n 13614: a0 = s1\n 13616: ra = 630, jump @19\n      : @568 [@dyn 315] (gas: 12)\n 13622: a0 = u64 [sp + 0x68]\n 13625: a2 = u64 [sp + 0x60]\n 13628: a2 = a2 | a0\n 13631: a0 = 0x100000000\n 13641: u64 [sp + 0x60] = a0\n 13644: a0 = 0xffffffe0\n 13654: a0 = s1 <u a0\n 13657: a1 = u64 [sp + 0x70]\n 13660: a0 = 0 if a1 != 0\n 13662: u64 [sp + 0x68] = a2\n 13665: a0 = 0 if a2 != 0\n 13667: jump @583 if a0 == 0\n      : @569 (gas: 8)\n 13671: s1 = u64 [sp + 0x78]\n 13674: i32 a0 = s1 + 0x20\n 13677: u64 [sp + 248] = 0\n 13681: u64 [sp + 240] = 0\n 13685: u64 [sp + 232] = 0\n 13689: a1 = sp + 0xe0\n 13693: u64 [sp + 224] = 0\n 13697: ra = 632, jump @19\n      : @570 [@dyn 316] (gas: 3)\n 13703: a0 = u64 [sp + 0x60]\n 13706: a0 = a0 + 0xffffffffffffffc0\n 13709: t0 = 634, jump @589\n      : @571 [@dyn 317] (gas: 1)\n 13715: jump @583 if a0 == 0\n      : @572 (gas: 13)\n 13719: a0 = u64 [sp + 0x40]\n 13722: a0 = a0 << 0x20\n 13725: a2 = a0 >> 0x20\n 13728: s1 = u64 [sp + 0x78]\n 13731: i32 a0 = s1 + 0x40\n 13734: u64 [sp + 216] = 0\n 13738: a1 = u64 [sp + 0x48]\n 13741: u64 [sp + 0xc0] = a1\n 13745: a1 = u64 [sp + 0x50]\n 13748: u64 [sp + 0xc8] = a1\n 13752: a1 = sp + 0xc0\n 13756: u64 [sp + 0xd0] = a2\n 13760: ra = 636, jump @19\n      : @573 [@dyn 318] (gas: 4)\n 13766: a0 = 0x100000000\n 13776: u64 [sp + 0x60] = a0\n 13779: a0 = 0xffffffa0\n 13789: t0 = 638, jump @589\n      : @574 [@dyn 319] (gas: 1)\n 13795: jump @583 if a0 == 0\n      : @575 (gas: 15)\n 13799: a1 = 0xffffffff\n 13809: a2 = u64 [sp + 0x28]\n 13812: a2 = a2 & a1\n 13815: a1 = u64 [sp + 0x30]\n 13818: a1 = a1 & 0xffffffffffffffff\n 13821: a3 = u64 [sp + 0x38]\n 13824: a3 = a3 & 0xffffffffffffffff\n 13827: s1 = u64 [sp + 0x78]\n 13830: i32 a0 = s1 + 0x60\n 13833: u64 [sp + 184] = 0\n 13837: u64 [sp + 0xa0] = a3\n 13841: u64 [sp + 0xa8] = a1\n 13845: a1 = sp + 0xa0\n 13849: u64 [sp + 0xb0] = a2\n 13853: ra = 640, jump @19\n      : @576 [@dyn 320] (gas: 3)\n 13859: a0 = u64 [sp + 0x60]\n 13862: a0 = a0 + 0xffffffffffffff80\n 13865: t0 = 642, jump @589\n      : @577 [@dyn 321] (gas: 1)\n 13871: jump @583 if a0 == 0\n      : @578 (gas: 12)\n 13875: a0 = u64 [sp + 0x78]\n 13878: i32 a0 = a0 + 0x80\n 13882: a1 = u64 [sp + 0x8]\n 13885: u64 [sp + 0x80] = a1\n 13889: a1 = u64 [sp + 0x10]\n 13892: u64 [sp + 0x88] = a1\n 13896: a1 = u64 [sp + 0x18]\n 13899: u64 [sp + 0x90] = a1\n 13903: a1 = sp + 0x80\n 13907: a2 = u64 [sp + 0x20]\n 13910: u64 [sp + 0x98] = a2\n 13914: ra = 644, jump @19\n      : @579 [@dyn 322] (gas: 12)\n 13920: ecalli 8 // 'ref_time_left'\n 13922: s1 = 0x30100\n 13927: u64 [0x30108] = 0\n 13932: u64 [0x30100] = 0\n 13937: u32 [0x30110] = 0x40000\n 13945: u64 [sp + 376] = 0\n 13949: u64 [sp + 368] = 0\n 13953: u64 [sp + 360] = 0\n 13957: u64 [sp + 352] = 0\n 13961: a1 = 0xa0\n 13965: a0 = u64 [sp + 0x78]\n 13968: ra = 646, jump @26\n      : @580 [@dyn 323] (gas: 30)\n 13974: a1 = a0\n 13976: u32 [sp + 384] = 0\n 13980: u64 [sp + 440] = 0\n 13984: u64 [sp + 432] = 0\n 13988: u64 [sp + 424] = 0\n 13992: u64 [sp + 416] = 0\n 13996: s1 = s1 << 0x20\n 13999: s1 = s1 >> 0x20\n 14002: a0 = 0x1800000000\n 14012: a0 = a0 | s1\n 14015: a2 = sp + 0x160\n 14019: a2 = a2 << 0x20\n 14022: a2 = a2 >> 0x20\n 14025: a3 = sp + 0x1a0\n 14029: a3 = a3 << 0x20\n 14032: a3 = a3 | a2\n 14035: a1 = a1 << 0x20\n 14038: a1 = a1 >> 0x20\n 14041: s1 = 0x20100\n 14046: a2 = 0xa000000000\n 14056: a4 = a1 | a2\n 14059: a1 = s1 << 0x20\n 14062: a1 = a1 >> 0x20\n 14065: a2 = sp + 0x180\n 14069: a2 = a2 << 0x20\n 14072: a5 = a2 | a1\n 14075: a1 = 0xffffffffffffffff\n 14078: a2 = 0xffffffffffffffff\n 14081: ecalli 0 // 'call'\n 14082: fallthrough\n      : @581 (gas: 1)\n 14083: jump @584 if a0 != 0\n      : @582 (gas: 6)\n 14086: sp = s0 + 0xfffffffffffffe20\n 14090: ra = u64 [sp + 0x1d8]\n 14094: s0 = u64 [sp + 0x1d0]\n 14098: s1 = u64 [sp + 0x1c8]\n 14102: sp = sp + 0x1e0\n 14106: ret\n      : @583 (gas: 1)\n 14108: trap\n      : @584 (gas: 7)\n 14109: i32 a1 = s1 + 0\n 14111: a0 = 0x1\n 14114: a2 = 0\n 14116: ecalli 9 // 'seal_return'\n 14118: a0 = 0\n 14120: ra = 0x288\n 14124: jump @32\n      : @585 [export #0: 'call'] (gas: 2)\n 14127: a0 = 0\n 14129: ra = 648, jump @32\n      : @586 [@dyn 324] [export #1: 'deploy'] (gas: 2)\n 14135: a0 = 0x1\n 14138: ra = 650, jump @32\n      : @587 [@dyn 325] (gas: 14)\n 14144: a0 = u64 [a2 + 0x8]\n 14147: a1 = i32 [a2 + 0x10]\n 14150: a2 = u64 [a2]\n 14152: a0 = reverse a0\n 14154: a3 = a0 << 0x20\n 14157: a1 = reverse a1\n 14159: a1 = a1 >> 0x20\n 14162: a3 = a3 | a1\n 14165: a0 = a0 >> 0x20\n 14168: a1 = reverse a2\n 14170: a2 = a1 << 0x20\n 14173: a0 = a0 | a2\n 14176: a1 = a1 >> 0x20\n 14179: jump [t0]\n      : @588 (gas: 37)\n 14181: a0 = u64 [s1 + 0x8]\n 14184: a1 = i32 [s1 + 0x10]\n 14187: a2 = u64 [s1]\n 14189: a0 = reverse a0\n 14191: a3 = a0 << 0x20\n 14194: a1 = reverse a1\n 14196: a1 = a1 >> 0x20\n 14199: a3 = a3 | a1\n 14202: a0 = a0 >> 0x20\n 14205: a1 = reverse a2\n 14207: a2 = a1 << 0x20\n 14210: a0 = a0 | a2\n 14213: a1 = a1 >> 0x20\n 14216: a2 = u64 [sp]\n 14218: u64 [sp + 0x98] = a2\n 14222: a2 = u64 [sp + 0x8]\n 14225: u64 [sp + 0x90] = a2\n 14229: a2 = u64 [sp + 0x10]\n 14232: u64 [sp + 0x88] = a2\n 14236: a2 = u64 [sp + 0x18]\n 14239: u64 [sp + 0x80] = a2\n 14243: a2 = u64 [sp + 0x20]\n 14246: u64 [sp + 0xb8] = a2\n 14250: a2 = u64 [sp + 0x28]\n 14253: u64 [sp + 0xb0] = a2\n 14257: a2 = u64 [sp + 0x30]\n 14260: u64 [sp + 0xa8] = a2\n 14264: a2 = u64 [sp + 0x38]\n 14267: u64 [sp + 0xa0] = a2\n 14271: u64 [sp + 216] = 0\n 14275: u64 [sp + 0xd0] = a1\n 14279: u64 [sp + 0xc8] = a0\n 14283: a0 = sp + 0xc0\n 14287: a1 = sp + 0xa0\n 14291: a2 = sp + 0x80\n 14295: u64 [sp + 0xc0] = a3\n 14299: jump [t0]\n      : @589 (gas: 6)\n 14301: a0 = s1 <u a0\n 14304: a1 = u64 [sp + 0x70]\n 14307: a0 = 0 if a1 != 0\n 14309: a1 = u64 [sp + 0x68]\n 14312: a0 = 0 if a1 != 0\n 14314: jump [t0]\n      : @590 (gas: 23)\n 14316: a1 = u64 [sp + 0xb8]\n 14320: u64 [sp + 0x18] = a1\n 14323: a0 = u64 [sp + 0xb0]\n 14327: u64 [sp + 0x20] = a0\n 14330: a2 = u64 [sp + 0xa8]\n 14334: u64 [sp + 0x10] = a2\n 14337: a4 = u64 [sp + 0xa0]\n 14341: a3 = u64 [sp + 0x28]\n 14344: u64 [sp + 0x58] = a3\n 14347: u64 [sp + 0x50] = s1\n 14350: a3 = u64 [sp + 0x30]\n 14353: u64 [sp + 0x48] = a3\n 14356: a3 = u64 [sp + 0x38]\n 14359: u64 [sp + 0x40] = a3\n 14362: u64 [sp + 0x78] = a1\n 14365: u64 [sp + 0x70] = a0\n 14368: u64 [sp + 0x68] = a2\n 14371: a0 = sp + 0x80\n 14375: a1 = sp + 0x60\n 14378: a2 = sp + 0x40\n 14381: u64 [sp + 0x60] = a4\n 14384: s1 = a4\n 14386: jump [t0]\n      : @591 (gas: 12)\n 14388: a0 = u64 [sp + 0x78]\n 14391: a1 = u64 [sp + 0x70]\n 14394: a2 = u64 [sp + 0x68]\n 14397: s1 = u64 [sp + 0x60]\n 14400: a0 = a0 | a2\n 14403: a2 = s1 | a1\n 14406: a2 = a2 | a0\n 14409: a2 = a2 >> 0x20\n 14412: a0 = a0 | a1\n 14415: a0 = a0 << 0x20\n 14418: a0 = a0 | a2\n 14421: jump [t0]\n      : @592 (gas: 16)\n 14423: a2 = u64 [s1 + 0x38]\n 14426: a0 = u64 [a2 + 0x8]\n 14429: a1 = i32 [a2 + 0x10]\n 14432: a2 = u64 [a2]\n 14434: a0 = reverse a0\n 14436: a3 = a0 << 0x20\n 14439: a1 = reverse a1\n 14441: a1 = a1 >> 0x20\n 14444: a1 = a1 | a3\n 14447: a0 = a0 >> 0x20\n 14450: a2 = reverse a2\n 14452: a3 = a2 << 0x20\n 14455: a0 = a0 | a3\n 14458: a2 = a2 >> 0x20\n 14461: a3 = u64 [s1 + 0x18]\n 14464: jump [t0]\n      : @593 (gas: 8)\n 14466: a2 = a3 | a4\n 14469: a1 = a0 | s1\n 14472: a1 = a1 | a2\n 14475: a1 = a1 >> 0x20\n 14478: a2 = a2 | s1\n 14481: a2 = a2 << 0x20\n 14484: a1 = a1 | a2\n 14487: jump [t0]\n      : @594 (gas: 13)\n 14489: t1 = s1\n 14491: t2 = a3\n 14493: a0 = u64 [sp + 0x88]\n 14497: a1 = u64 [sp + 0x98]\n 14501: u64 [sp + 0x38] = a1\n 14504: s1 = u64 [sp + 0x80]\n 14508: a3 = u64 [sp + 0x90]\n 14512: a1 = a0 ^ a4\n 14515: a5 = a0 <u a4\n 14518: ra = s1 <u t1\n 14521: a5 = ra if a1 == 0\n 14524: a1 = a3 - t2\n 14527: jump [t0]\n      : @595 (gas: 6)\n 14529: a0 = s1 <u a0\n 14532: a1 = u64 [sp + 0x60]\n 14535: a0 = 0 if a1 != 0\n 14537: a1 = u64 [sp + 0x58]\n 14540: a0 = 0 if a1 != 0\n 14542: jump [t0]\n      : @596 (gas: 13)\n 14544: a5 = a5 - a3\n 14547: a5 = a5 - a4\n 14550: a0 = a0 - a2\n 14553: a0 = a0 - a1\n 14556: a1 = t1 - t2\n 14559: a0 = a0 | a5\n 14562: a3 = a1 | ra\n 14565: a3 = a3 | a0\n 14568: a0 = a0 | ra\n 14571: a3 = a3 >> 0x20\n 14574: a0 = a0 << 0x20\n 14577: a0 = a0 | a3\n 14580: jump [t0]\n      : @597 (gas: 12)\n 14582: sp = sp + 0xffffffffffffffa0\n 14585: u64 [sp + 0x58] = ra\n 14588: u64 [sp + 0x50] = s0\n 14591: s0 = sp + 0x60\n 14594: sp = sp & 0xffffffffffffffe0\n 14597: u64 [sp + 24] = 0\n 14600: u64 [sp + 16] = 0\n 14603: u64 [sp + 0] = 0x80\n 14607: a0 = 0x40\n 14610: a1 = sp\n 14612: u64 [sp + 8] = 0\n 14615: jump [t0]\n      : @598 (gas: 11)\n 14617: a2 = u64 [sp + 0x58]\n 14620: a2 = a2 | s1\n 14623: s1 = 0x100000000\n 14633: a0 = 0xfffffffc\n 14643: a1 = u64 [sp + 0x68]\n 14646: a0 = a1 <u a0\n 14649: a1 = u64 [sp + 0x60]\n 14652: a0 = 0 if a1 != 0\n 14654: u64 [sp + 0x58] = a2\n 14657: a0 = 0 if a2 != 0\n 14659: jump [t0]\n      : @599 (gas: 11)\n 14661: a2 = u64 [sp + 0x68]\n 14664: a2 = a2 | s1\n 14667: s1 = 0x100000000\n 14677: a0 = 0xfffffffc\n 14687: a1 = u64 [sp + 0x78]\n 14690: a0 = a1 <u a0\n 14693: a1 = u64 [sp + 0x70]\n 14696: a0 = 0 if a1 != 0\n 14698: u64 [sp + 0x68] = a2\n 14701: a0 = 0 if a2 != 0\n 14703: jump [t0]\n      : @600 (gas: 12)\n 14705: a5 = a5 - a1\n 14708: a0 = a0 - a4\n 14711: a0 = a0 - ra\n 14714: a1 = t1 - a2\n 14717: a0 = a0 | a5\n 14720: a3 = a1 | t2\n 14723: a3 = a3 | a0\n 14726: a0 = a0 | t2\n 14729: a3 = a3 >> 0x20\n 14732: a0 = a0 << 0x20\n 14735: a0 = a0 | a3\n 14738: jump [t0]\n      : @601 (gas: 10)\n 14740: a0 = u64 [sp + 0x10]\n 14743: a1 = u64 [sp + 0x18]\n 14746: a2 = 0x100000000\n 14756: a2 = a2 ^ a0\n 14759: a2 = a2 | a1\n 14762: a3 = a0 >> 0x20\n 14765: a3 = a3 <u 0x1\n 14768: a3 = 0 if a1 != 0\n 14770: a3 = 0 if a2 == 0\n 14772: jump [t0]\n      : @602 (gas: 9)\n 14774: a4 = u64 [sp + 0x28]\n 14777: a3 = u64 [sp + 0x30]\n 14780: a2 = u64 [sp + 0x38]\n 14783: a0 = s1 | a4\n 14786: a1 = 0xffffffe0\n 14796: a1 = a2 <u a1\n 14799: a1 = 0 if a3 != 0\n 14801: a1 = 0 if a0 != 0\n 14803: jump [t0]\n      : @603 (gas: 11)\n 14805: a3 = u64 [s1 + 0x10]\n 14808: a0 = u64 [a3 + 0x18]\n 14811: a1 = u64 [a3 + 0x10]\n 14814: a2 = u64 [a3 + 0x8]\n 14817: a3 = u64 [a3]\n 14819: a4 = reverse a0\n 14821: a0 = reverse a1\n 14823: a1 = reverse a2\n 14825: a2 = reverse a3\n 14827: a3 = u64 [s1 + 0x40]\n 14830: jump [t0]\n      : @604 (gas: 14)\n 14832: a0 = u64 [sp + 0x18]\n 14835: a1 = u64 [sp + 0x10]\n 14838: a2 = u64 [sp + 0x8]\n 14841: a3 = u64 [sp]\n 14843: u64 [s1 + 0x18] = a0\n 14846: u64 [s1 + 0x10] = a1\n 14849: u64 [s1 + 0x8] = a2\n 14852: u64 [s1] = a3\n 14854: sp = s0 + 0xffffffffffffffc0\n 14857: ra = u64 [sp + 0x38]\n 14860: s0 = u64 [sp + 0x30]\n 14863: s1 = u64 [sp + 0x28]\n 14866: sp = sp + 0x40\n 14869: jump [t0]\n      : @605 (gas: 12)\n 14871: sp = sp + 0xfffffffffffffea0\n 14875: u64 [sp + 0x158] = ra\n 14879: u64 [sp + 0x150] = s0\n 14883: u64 [sp + 0x148] = s1\n 14887: s0 = sp + 0x160\n 14891: sp = sp & 0xffffffffffffffe0\n 14894: u64 [sp + 280] = 0\n 14898: u64 [sp + 272] = 0\n 14902: u64 [sp + 264] = 0\n 14906: u64 [sp + 256] = 0\n 14910: i32 a0 = sp + 0x100\n 14914: jump [t0]\n      : @606 (gas: 12)\n 14916: sp = sp + 0xffffffffffffff80\n 14919: u64 [sp + 0x78] = ra\n 14922: u64 [sp + 0x70] = s0\n 14925: u64 [sp + 0x68] = s1\n 14928: s0 = sp + 0x80\n 14932: sp = sp & 0xffffffffffffffe0\n 14935: u64 [sp + 88] = 0\n 14938: u64 [sp + 80] = 0\n 14941: u64 [sp + 72] = 0\n 14944: u64 [sp + 64] = 0\n 14947: i32 a0 = sp + 0x40\n 14950: jump [t0]\n      : @607 (gas: 12)\n 14952: sp = sp + 0xfffffffffffffe80\n 14956: u64 [sp + 0x178] = ra\n 14960: u64 [sp + 0x170] = s0\n 14964: u64 [sp + 0x168] = s1\n 14968: s0 = sp + 0x180\n 14972: sp = sp & 0xffffffffffffffe0\n 14975: u64 [sp + 344] = 0\n 14979: u64 [sp + 336] = 0\n 14983: u64 [sp + 328] = 0\n 14987: u64 [sp + 320] = 0\n 14991: i32 a0 = sp + 0x140\n 14995: jump [t0]\n      : @608 (gas: 6)\n 14997: sp = s0 + 0xffffffffffffffa0\n 15000: ra = u64 [sp + 0x58]\n 15003: s0 = u64 [sp + 0x50]\n 15006: s1 = u64 [sp + 0x48]\n 15009: sp = sp + 0x60\n 15012: jump [t0]\n      : @609 (gas: 11)\n 15014: a2 = u64 [sp + 0x18]\n 15017: a4 = u64 [sp + 0x10]\n 15020: a0 = a4 | a2\n 15023: a3 = u64 [sp + 0x20]\n 15026: a1 = s1 | a3\n 15029: a1 = a1 | a0\n 15032: a1 = a1 >> 0x20\n 15035: a0 = a0 | a3\n 15038: a0 = a0 << 0x20\n 15041: a0 = a0 | a1\n 15044: jump [t0]\n      : @610 (gas: 9)\n 15046: a0 = u64 [a3 + 0x18]\n 15049: a1 = u64 [a3 + 0x10]\n 15052: a2 = u64 [a3 + 0x8]\n 15055: a3 = u64 [a3]\n 15057: a0 = reverse a0\n 15059: a1 = reverse a1\n 15061: a2 = reverse a2\n 15063: a3 = reverse a3\n 15065: jump [t0]\n      : @611 (gas: 12)\n 15067: a0 = u64 [sp + 0x38]\n 15070: a1 = u64 [sp + 0x30]\n 15073: a2 = u64 [sp + 0x28]\n 15076: s1 = u64 [sp + 0x20]\n 15079: a0 = a0 | a2\n 15082: a2 = s1 | a1\n 15085: a2 = a2 | a0\n 15088: a2 = a2 >> 0x20\n 15091: a0 = a0 | a1\n 15094: a0 = a0 << 0x20\n 15097: a0 = a0 | a2\n 15100: jump [t0]\n      : @612 (gas: 10)\n 15102: sp = sp + 0xffffffffffffffc0\n 15105: u64 [sp + 0x38] = ra\n 15108: u64 [sp + 0x30] = s0\n 15111: u64 [sp + 0x28] = s1\n 15114: s0 = sp + 0x40\n 15117: sp = sp & 0xffffffffffffffe0\n 15120: s1 = a0\n 15122: i32 a0 = sp + 0\n 15124: a1 = 0x24\n 15127: jump [t0]\n      : @613 (gas: 12)\n 15129: a2 = u64 [sp]\n 15131: a3 = u64 [sp + 0x8]\n 15134: u64 [s1] = a2\n 15136: u64 [s1 + 0x8] = a3\n 15139: u64 [s1 + 0x10] = a0\n 15142: u64 [s1 + 0x18] = a1\n 15145: sp = s0 + 0xffffffffffffffc0\n 15148: ra = u64 [sp + 0x38]\n 15151: s0 = u64 [sp + 0x30]\n 15154: s1 = u64 [sp + 0x28]\n 15157: sp = sp + 0x40\n 15160: jump [t0]\n      : @614 (gas: 8)\n 15162: a0 = a0 | a2\n 15165: a2 = a3 | a1\n 15168: a2 = a2 | a0\n 15171: a2 = a2 >> 0x20\n 15174: a0 = a0 | a1\n 15177: a0 = a0 << 0x20\n 15180: a0 = a0 | a2\n 15183: jump [t0]\n      : @615 (gas: 11)\n 15185: a0 = u64 [sp + 0xe0]\n 15189: u64 [sp + 0x38] = a0\n 15192: a0 = u64 [sp + 0xe8]\n 15196: u64 [sp + 0x30] = a0\n 15199: a0 = u64 [sp + 0xf0]\n 15203: u64 [sp + 0x28] = a0\n 15206: a0 = u64 [sp + 0xf8]\n 15210: u64 [sp + 0x20] = a0\n 15213: i32 a0 = sp + 0x120\n 15217: a1 = 0x24\n 15220: jump [t0]\n      : @616 (gas: 6)\n 15222: a2 = 0x100000000\n 15232: a0 = 0xffffffbc\n 15242: a0 = a1 <u a0\n 15245: a0 = 0 if a3 != 0\n 15247: a0 = 0 if a4 != 0\n 15249: jump [t0]\n      : @617 (gas: 8)\n 15251: a0 = s1 + 0xffffffffffffffdc\n 15254: a1 = u64 [sp + 0x68]\n 15257: a0 = a1 <u a0\n 15260: a1 = u64 [sp + 0x60]\n 15263: a0 = 0 if a1 != 0\n 15265: a1 = u64 [sp + 0x58]\n 15268: a0 = 0 if a1 != 0\n 15270: jump [t0]\n      : @618 (gas: 8)\n 15272: a0 = s1 + 0xffffffffffffffdc\n 15275: a1 = u64 [sp + 0x78]\n 15278: a0 = a1 <u a0\n 15281: a1 = u64 [sp + 0x70]\n 15284: a0 = 0 if a1 != 0\n 15286: a1 = u64 [sp + 0x68]\n 15289: a0 = 0 if a1 != 0\n 15291: jump [t0]\n      : @619 (gas: 4)\n 15293: i32 a1 = a0 + 0\n 15295: a2 = 0x20\n 15298: a0 = 0\n 15300: jump [t0]\n      : @620 (gas: 11)\n 15302: u64 [sp + 0x70] = a0\n 15305: u64 [sp + 0x68] = a2\n 15308: a0 = a0 | a2\n 15311: u64 [sp + 0x78] = a1\n 15314: a1 = a1 | s1\n 15317: a1 = a1 | a0\n 15320: a1 = a1 >> 0x20\n 15323: a0 = a0 | s1\n 15326: a0 = a0 << 0x20\n 15329: a0 = a0 | a1\n 15332: jump [t0]\n      : @621 (gas: 11)\n 15334: u64 [sp + 0x60] = a0\n 15337: u64 [sp + 0x58] = a2\n 15340: a0 = a0 | a2\n 15343: u64 [sp + 0x68] = a1\n 15346: a1 = a1 | s1\n 15349: a1 = a1 | a0\n 15352: a1 = a1 >> 0x20\n 15355: a0 = a0 | s1\n 15358: a0 = a0 << 0x20\n 15361: a0 = a0 | a1\n 15364: jump [t0]\n      : @622 (gas: 9)\n 15366: sp = sp + 0xffffffffffffffc0\n 15369: u64 [sp + 0x38] = ra\n 15372: u64 [sp + 0x30] = s0\n 15375: u64 [sp + 0x28] = s1\n 15378: s0 = sp + 0x40\n 15381: sp = sp & 0xffffffffffffffe0\n 15384: s1 = a0\n 15386: i32 a0 = sp + 0\n 15388: jump [t0]\n","bytecode":{"linkReferences":{},"object":"50564d00002b48000000000000010700c12001c000800380f074203a303243524520726566736e61726520746e756f6d61612073646565637865636e61776f6c6c64203a303243524564657361657263656e61776f6c6c6120776f6c65622065635b7decebe5e15b8cf3841e7d42714fd11e29b2f7c01403dd25b9c3c7c80a205b61203a3032435245742065766f727070657a20656874206f6572646461206f72662065766f72707020656874206d6f72646461206f72657a9bc8e21bad52f2ddaa8d37fc68b0c26916a1c463f1a72b95efb323f54d5af52874203a303243524520726566736e61727a20656874206f7472646461206f7265656874206d6f72666461206f72657a200480d60d000000000400000012000000200000002e00000034000000410000004c0000005b0000006800000073000000850000009000000063616c6c63616c6c5f646174615f636f707963616c6c5f646174615f6c6f616463616c6c5f646174615f73697a6563616c6c65726465706f7369745f6576656e746765745f73746f72616765686173685f6b656363616b5f3235367265665f74696d655f6c6566747365616c5f72657475726e7365745f696d6d757461626c655f646174617365745f73746f7261676576616c75655f7472616e73666572726564051102b72f0463616c6cb737066465706c6f7906c03146814502bc1e9b00e30126038c0394036f0478047d048204f104020507050c05210587058c05bf05c905d205d705e105e605f005fa050406100622069c06ca063807aa07b707c3073608aa08f20807092e0933095d0969096e09730978098009d709e809ed09fb09000a080a210a260a310a360a3e0a570a5c0a630a650a6f0ae20afd0a000b380b3e0b6f0b750b7b0b870b8d0bc00bcb0bd10bd80b540c700cc10cd70cf50c1c0d5a0d790d8f0da60de40df30d6f0e970e9d0ee80ef30ef90e060f0c0f3c0f420f720f7d0f830f8a0ff60f20104a10c010eb10081170117911b711e41138129112e3121b132a1362139e13ab13bb13f31322142b1485149214cc1436155c1570157615a615ac15dd15e815ee15f5156116be16c716e716041738173e177917a7170a1826182c1883189018e918f518fb18021935197419a819be19db19021a4d1a901aaf1ac51adc1a191b281ba41bcd1b1a1cc41cd71cdd1c261d3c1d641d6a1d951da21da81dae1db41dbd1d151e221e8d1eb71eef1ef81e181f351f691f6f1faa1fd81f2b208320d5200d211c21542190219d21ad21e421102216226d227a22b0221a23402354235a2392239823c923cf23d523e123e7231a2425242b2432249d24c024fe241b259825ca25f22504264526512657265e26982642279027a927cd2704281c2853285c28ce28f2282929322986299d29c129572a1e2b6b2b002c0d2c642cc12c262d4d2d632d8e2d942db92dbf2de42d012e392e452e812e972ec22ec82eed2ef32e182f352f6c2f782fa62fb22fc22f9630a330f8305531bc31e031f631213227324c32523277329432cc32d83211332733523358337d338333a833c533fc330834363442345234c2340e35363587359335c635e33523362f366036963637374037aa876e978a2098aa20977b2098bb20c89b0bc9ba0a979b019abbaeab20ae873751094ec87909647a017c8b95880195ac0178ab64caab9cf42836510934c87909647a017c8b95880195ac0178ab64caab9cf4281c51091a839aff01c8a80b7cbb9599ffc8a70c78cb83aaff5209f032003908f8000251087104330720010383770a0a2864049511f07b10087b1564896475330820649750100285037c78017c797c7a027c7b03978808d4980897aa1097bb18d4ba0ad4a8087c79057c7a047c7b067c7c07979908d4a90997bb1097cc18d4cb0bd4b909979920d489027c79097c7a087c7b0a7c7c0b979908d4a90997bb1097cc18d4cb0bd4b9097c7a0d7c7b0c7c7c0e7c780f97aa08d4ba0a97cc10978818d4c808d4a808978820d498037c78117c7a107c7b127c7c13978808d4a80897bb1097cc18d4cb0bd4b8087c7a157c7b147c7c167c791797aa08d4ba0a97cc10979918d4c909d4a909979920d4890a7c78197c79187c7b1a7c7c1b978808d4980897bb1097cc18d4cb0bd4b8087c791d7c7b1c7c7c1e7c771f979908d4b90997cc10977718d4c707d49707977720d487076f776fa86f396f2a7b5a187b59107b58087b57821008821595111032009511d87b10207b15187b161082897b19088289087b198285108286183308205010043d026f686f59821a6faa821b086fbb787b18787a10787908787898bc38787c1f98bc30787c1e98bc28787c1d98bc20787c1c98bc18787c1b98bc10787c1a98bb08787b1998ab38787b1798ab30787b1698ab28787b1598ab20787b1498ab18787b1398ab10787b1298aa08787a11989a38787a0f989a30787a0e989a28787a0d989a20787a0c989a18787a0b989a10787a0a98990878790998893878790798893078790698892878790598892078790498891878790398891078790298880878780182102082151882161095112832009511a07b10587b15507b16489515608411e06476828718828910828a0882886f776f996faa6f887b18187b1a107b19087b17491138491130491128491120481140208318831a20831b403309ff33070a06821738821830821928821a206f776f886f996faa7b6a187b69107b68087b6750120674373200951120ff7b10d8007b15d0007b16c8009515e0008411e082bc7b1c4082bc087b1c4882bc107b1c5082bb187b1b5833020882ab7b1b1882ab087b1b2082ab107b1b2882aa187b1a308296829a087b1a829a107b1a088299187b19107b183833000a2892007b183850100a8c006f687b187882186f887b18708218086f887b18688218106f887b18608218186f887b1898008218206f887b1890008218286f887b1888008218306f887b1880008218406f887b18b8008218486f887b18b0008218506f887b18a8008218586f887b18a0008379811a388317603308030a05955120ff8210d8008215d0008216c8009511e00032008b7910520931c8780883881f8488e05638000001253309f40002390af40002ae8a093d08f400020133080001028377c887073200009511f07b10087b158475010a03013d07f0000251050c33000c330210288a3433000e3302182881345012107e3450101242fd4911384911304911284911208317200a0c01821730821838821928821a20d49808d4a707d4870751071a3308000102838833070133093300160a093302182836343908f4000256187f0c2003f40002800001330700010283778000330833090a01288dfb3307800033085010142fff8378330733093300160a0933021828f733501218f43350101ab8fc3907f00002531704ff00831720330833001c0a020181173c3308419bd895aa87ad005147d7c257a4593308bb9c05a9aa87bf0051473eed62dd9300330803defd06aa877c3308b3a75e09aa879a005147dd0d1618323308e2ecee1faa87585147dd72b82377330867e53c31aa876f5247519350398a0050101e73105010209b18330022951100fe7b10f8017b15f0017b16e801951500028411e049217801492170014921680149216001831760010a0c28b7063300243302be00287e34330026330246289934501028601e33002a33025a01288a3450102ca90933002e33020401285734330030330280002820343300323302ac0128163452473182a0700c501034f7123308000102838833070133093300360a09019511e0fe7b1018017b1510017b160801951520018411f0828b10828a18828c0882827b1a687b1c78d4ac08d4b20ad48a0a98aa207b1b70d4b808978820d4a8087b1708520844028297187b17488296108297087b175082977b17584921f8004921f0004921e8009518e0004921e0002064277b126050103828fb821858d46807821948821a50d4a909d497079877207b1620d46909979920d497075207ec019517c00050103ac0f9821770821868d47808140700000000010000007b17101407e0ffffff00000000821960d87907821a7894a77b181894875107af01821ad800821bd000821cc8008218c0008397207b18287b18a0007b1c307b1ca8007b1b387b1bb0009518a0007b1a407b1ab800649650103c8cfa8217109577c0d876078218789487821818948751075e01821748821820d487071408e0ffffff00000000821a58d88a08821b5094b8947851083a016469821828821c38d4c807821b40821630d46b0bd4b707987720d4cb0b97bb20d4b7075207130183974083aa207b1a58648650103e76fc7b1750821758646850104069fc6478821750646950104242f8821760c86707d86708821978821b30c8b909c88909d3b90ad8b90bdaa80b821870821a38c8a808d8a80a821c68821640c86c0cc8ca0ac88b0bd88b08c8a808d4b808140ac0ffffff00000000d8a70a949a948a510a930083774049219800492190004921880095188000492180005010448ef982162895661f1407e0ffffff01000000d26707821860c88707d88708821a78c88a09d8a90ada880a821870c88a0ad88a08821b68c8b808957b40d87b07c8790cd89c09da7709c8a909d8a907c887078218087b8b7b8c087b89107b87189551e0fe821018018215100182160801951120013200000a0c01821750018218580182194801821a4001d49808d4a707d487075207f1003907f00002541703ef0049211801492110014921000140951720019518000149210801501048711d821b380182163001821a28018217200150124a802f5208af004921f8004921f0004921e8009518e0004921e000047b17387b1a307b1b2850104c96f850124e8830510883008397204921d0004921c800140800000000666565527b18d8009518c0004921c00050105067f89517a00033084050105221f7501254832e501056b4fc501258333152073e50125a1e2fc9c802d8c808d84a0a821c38c99c0cc9ac0cc98c0cc9b707c90707c93606d4c707d42609d47909d42707989920977720d4970751071b0033080001022808330800010201838833070133090a09016437646850105c49fa83788369330733005e0a093302602821325012601e323308043300620a02330264289c2f501264992f510a0a501266163132003308000102838833070133093300680a0933026a28e03050126add3033006c0a0233026e28662f50126e632f510a0a501270e03032003308000102838833070133093300720a0933027428aa30501274a7300a02501276922f32003308440a0250127a862f3200828a10828218828c08828bd42c08d4ab09d48909989920d4a808978820d4980852086e9511a07b10587b15507b16489515608411f0647695b7207b1718d8b707c87c087b1810d8c808da7708c8a8087b18d8a807c827077b17084911384911304911200195182049112864b750107ce2f68217107b67088217187b6782177b67108217087b671850127e9d2f3200000a0c01821710018218180182190801821a0001d49808d4a707d487075207753907f00002330843ae78719517e0003300820033026028d1305022840019300a02821720017b1718821728017b1710821730017b1708821738017b1733060001038367330086000a043302880028f92b50228800f62b50208a00e21e95176033084050208c0004f550228e00ad2c51071b0033080001022808330800010201838833070133090a09014911584911504911489518404911400164675020900005f633082064675020920056f850229400f22f330096000a0901828b10828218828c088283d42c08d4b30ad48a0a98aa20d4b808978820d4a80852087a9511a07b10587b15507b16489515608411f06476829418829010829a0882999537207b1718d83707c87c087b1810d8c80cda770cc8bc0c7b1cd8bc07c827077b17087b19207b1a287b10309518207b143864375020980071f582177b67108217107b67088217187b678217087b671850229a002b2e320000821770018218780182196801821a6001d49808d4a707d48707520715023307f000027b17303907f000025417030b024921380149213001492120014095174001951820014921280150209c00a319821b580182165001821a48018217400150229e00b12b5208c90182183081887b18183308407b17387b1a287b1b205020a0002cf783773308408219180a0149211801492110014921080195180001492100018217385020a200a9f4821938821720d467071408e0ffffff00000000d88908821a2894a89478510867018397204921f8004921f0004921e8009518e0004921e0005020a4006bf44921b8004921b0004921a8009517c0009518a0004921a000205020a600eb188217d8008218d0008219c800821ac0005022a800b12d52071101821730817633082064a77b1a305020aa007bf6837733082064690a010a083306000103210308010321030001032003100103000004492198014921900149218801492180013308408217385020ac003df67b17383308208217305020ae002ef64821a001204921d8014921d0014921c8014921c00197662098662014080000000018000000d48606951880019788209888209519c001979920d4890a82183897882098882014090000000040000000d4980b9777209877209518a001978820d4780c3308ff3309ff64670a0152075f951780008218305020b0001cf2821798007b1738821790007b1730821788007b1728821780007b17209517603308405020b200f4f15022b4009d295107280033080001022808330800010201838833070133090a09330800010228f2330800010228eb8217207b17408217287b17488217307b17509518408217387b175864675020b600ddf233082064675020b8002ef55022ba00ca2c3300bc000a093302be0028412b5022be003e2b0a0c01821750821858821948821a40d49808d4a707d487075207223907f00002541703219517203308405020c0004ff15022c2009f2b51071b0033080001022808330800010201838833070133090a09014911184911104911086418490164675020c40053f233082064675020c600a4f45022c800402c3300ca000a09019511c0fb951700047b70387b75307b7628951540048411e064164926f8034926f0034926e8034926e0038367e0030a0c01956b000382b7f00082b8f80082b9e80082bae000d49808d4a707d48707520762053907f00002330863ae785d059567c0033300cc0033026028132c8267d8037b67608267d0037b67688267c8037b67708267c0037b67789567a0033300ce0033026a28e12a8267a0037b67588267a8037b67308267b0037b67288267b8037b6720956780033300d00033027828bf2b826798038268900382698803826a80037b67507b6738037b68487b6830037b69407b6928037b6a387b6a20038267207b6758038267287b6750038267307b6748038267587b6740038267607b6778038267687b6770038267707b676803956760039568400395692003826a787b6a60035020d200081f82676897772098772049261803956900037b97108267707b9708956800038267787b9733075020d400daf04926f8024926f0024926e8023307209568e0024926e0025020d600bdf03908f4000256183f0b2003f4000240019517e08479e07b695864913307000102837783993308400a07826a5882a71882a81082a90882aa6f777b67306f877b67286f977b67206fa77b671833070001037b675883777b67103300d8000a048269583302da0028d3258269585022da00cd25492698028269187b69b8028269207b69b0028269287b69a8028269307b69a0027b6890027b6788029567c0029568a002956980027b6a80025020dc00cb168267d8028268d0028269c802826ac002956b00047bb7187bb8107bb9087bba95676002956800045020de00d3f0826878028260680282647002826a6002826750d3780b826240d3200cd820098263387b6a28d83a0adbc90a7b6830d87809826848d8840cdbb90cd38409d4b909db9c0a510a9401956720013308405020e00053ee95680001828b38828c30828a28828720d4ba09d4c708d49808988820d4c909979920d498085208dc02492610014926080149260001140900000000a079c308956800017b6918017b67787b6a707b6b687b6c605020e20034ef826878826768826a60d47a0a140b00000000010000001407fcffffff00000000d87807826970949794a751077e028387044926f8004926f0004926e000209568e0004926e8007b6a687b6b605020e400e2ee8268788267609577dcd8780782697094978269689497510740028387244926d8004926d0004926c000289568c0004926c8005020e600aaee826b68826a708268785022e800522851070f028387443a080000027b68b8003a080800027b69603a091000023a0a1800027b68b0007b69a8009568a0007b6aa0005020ea0063ee82697882676095779cd87907826870948782686894875107c1018397643a0820000249269000492688007b68980095688000492680005020ec0027ee330884008267785020ee0076f08378330701330984003300f0000a09017b6300028269287b6920027b6208027b6028027b6810027b6430027b671802956740029568200295690002826a307b6a38025020f200d415956800028287407b67508287487b67488287507b67408287587b67388267103300f4000a048269583302f6002821238269585022f6001b238269387b69b8018269407b69b0018269487b69a8018269507b69a0014926d8018269607b69f8018269687b69f0018269707b69e8018269787b69e0017b68d0017b67c8019567e0019568c0019569a0017b6ac0015020f800d815956780013308405020fa00f9eb956b000182b898007b687882b790007b677082b988007b696882ba80007b6a607bb8587bb7507bb94895676001956840017bba405020fc00abf5826b68826960826778d4b707826a70d4a908d47808988820d4a707977720d4870752074c64a2956c000182c76882c8787b68588263600182ca70d3b704d8b70cd89300da400cc92a08c9c804d8c8087b6850d82a0a826c78826858c9c80cc9ac0c8268505022fe00412451071b0033080001022808330800010201838833070133090a090164977b687850200001c5ee83788169783307330002010a093302040128d72450220401d4240a0c01821750821858821948821a40d49808d4a707d487075207223907f000025417032195172033084050200601e5ea50220801352551071b0033080001022808330800010201838833070133090a09014911184911104911086418490112646750200a01e8eb330820646750200c0139ee50220e01d525330010010a09019511a0fd951700027b70587b75507b7648951560028411e064164926f8014926f0014926e8014926e0018367e0010a0c01956b000182b7f00082b8f80082b9e80082bae000d49808d4a707d48707520776023907f00002330843ae7871029567c0013300120133026028a8258267d8017b67408267d0017b67488267c8017b67508267c0017b6758836700023308240a02956800028287187b67308287107b67288287087b671882877b672033070001037b673883777b6708330014010a0482693833021601288520826938502216017f204926b801956900017b98b0007b97a8009568a0017b9aa000330750201801deea492698014926900149268801330720956880014926800150201a01c1ea3908f4000256183f0b2003f4000240019517e08479e07b6910649133070001028377839933084033001c010a0733021e0128a02250221e019d227b6a3801826a487b6a3001826a507b6a2801826a587b6a20017b6958017b6850017b6748019567600195684001956920017b6b4001502020010911826778018268700182696801826a6001956b00027bb7387bb8307bb9287bba2095670001956820025020220110eb956b000182b80882b982ba1882b710826b18c88b0b826c20c8c902d89209c89b03d3830bd88308dab908826928c87909c8890bd89b04826c30c8ac0cd87909c8c909c89404d87b09d34a0cd8a40adac90ad3b707d4c707da780a510a095020240152118267087b62307b63287b6b207b6418330026010a04330228012834205022280131207b6ab800826a207b6ab000826a287b6aa800826a307b6aa000826a407b6ad800826a487b6ad000826a507b6ac800826a587b6ac0007b69f0007b67e8007b68e0009567e0009568c0009569a0004926f80050202a01da119567800033084050202c01fbe7826a9800826890008269880082678000d49a0ad48709d4a909989920d4a808978820d4980851081b0033080001022808330800010201838833070133090a0901491678491670491668956860491660017b675850202e01dce8330820826758502030012ceb50223201c822330034010a0901951180fd951700027b70787b75707b7668951580028411e04921f8014921f0014921e8014921e0018317e001330036010a0c018217f0018218f8018219e801821ae001d49808d4a707d48707520748033307f000027b17303907f00002330823ae783b039517c001330038013302602895228217d0017b17108217c8017b17208217c0017b1718492198014921900149218001609517a001951880014921880150203a01bc0c821bb8018216b001821aa8018217a00150223c01ca1e5208d70282183081887b183308607b17387b1a287b1b0850203e0146ea837733086082190a0149217801492170014921680195186001492160010182173850204001c3e7821928821838821a08d46a0a140600000000010000001407e0ffffff00000000d87807949794a751076c0283872049215801492150014921480195184001492140017b1a085020420178e78218389567c0d878078219289497821908949751073502821710977720987920838740492138018218187b1820018218207b182801951820017b1930015020440135e74921f8004921f0004921e800951700019518e0004921e0002050204601b50b821718018218100182190801821a0001502248017b205207d001821730817633082064a77b1a3050204a0145e9837733082064690a010a08330600010321030801032103000103200310010300000495170002491718491710491708490733086082173850204c0108e97b173833082082173050204e01f9e8951900024819202049195849195049194849194097662098662014090000000018000000d4960695190002979920989920951a400297aa20d49a0a82193897992098992014080000000060000000d4890b97772098772095182002978820d4780c3308ff3309ff64670a01520720019517c00082183050205001e7e48217c0007b17388217c8007b17308217d0007b17288217d8007b17209517a00033084050205201bee48217b8007b17188216b0008219a8007b1910821aa0007b1a088218207b18588218287b18508218307b18488218387b18407b17787b16707b1968951780009518609519407b1a6050205401c4ef821918821b10821008d49b07d46008d47808988820d46707977720d4870752075d646482178800821898007b183882138000821a9000d3b706d8b70cd80308da680cc94a06c9c602d8c606d84a0a821c38c99c0cc9ac0cc96c0cc9b707c98707c90306d4c707d42608d47808d42707988820977720d487075107280033080001022808330800010201838833070133090a09330800010228f2330800010228eb64076468502056015de7837883693307330058010a0933025a0128941d50225a01911d0a0c01821750018218580182194801821a4001d49808d4a707d487075207fb003907f00002541703f9004921180149211001492100014095172001951800014921080150205c013e09821b380182163001821a28018217200150225e014c1b5208b7004921f8004921f0004921e8009518e0004921e000047b17387b1a307b1b285020600161e450226201521c510889008397204921d0004921c800140800000000464545527b18d8009518c0004921c0005020640130e49517a00033084050206601e9e2502268014a1a50206a017ae850226c01f81c52073f50226e01e21ac9c802d8c808d84a0a821c38c99c0cc9ac0cc98c0cc9b707c90707c93606d4c707d42609d47909d42707989920977720d4970751071b0033080001022808330800010201838833070133090a090164376468502070010ce6837883693307330072010a0901951160fc951700037b7098007b7590007b7688009515a0038411e0641649265803492650034926480349264003836740030a0c01956b000382b75082b85882b94882ba40d49808d4a707d487075207af043907f00002330843ae78aa049567200333007401330260287c1d826738037b6740826730037b6748826728037b6750826720037b67589567000333007601330274284a1c956800038287187b67308287107b67288287087b672082877b671833070001037b673883777b6708330078010a0482693833027a0128541882693850227a014e184926f802956900027b98f0007b97e8009568e0027b9ae000330750207c01ade24926d8024926d0024926c8023307209568c0024926c00250207e0190e23908f4000256183f0b2003f4000240019517e08479e07b69106491330700010283778399330840330080010a0733028201286f1a502282016c1a7b6a7802826a487b6a7002826a507b6a6802826a587b6a60027b6998027b6890027b6788029567a00295688002956960027b6b800250208401d8088267b8028268b0028269a802826aa002956b00037bb7787bb8707bb9687bba60956740029568600350208601dfe2826858028260480282645002826a4002826730d3780b826220d3200cd820098263187b6ad83a0adbc90a7b6810d87809826828d8840cdbb90cd38409d4b909db9c0a510a9301956700013308405020880160e095680001828b18828c10828a088287d4ba09d4c708d49808988820d4c909979920d498085208ce024926f0004926e8004926e000140900000000a079c3089568e0007b69f8007b67587b6a507b6b487b6c4050208a0142e1826858826748826a40d47a0a140b00000000010000001407fcffffff00000000d87807826950949794a7510770028387044926d8004926d0004926c000209568c0004926c8007b6a487b6b4050208c01f0e08268588267409577dcd8780782695094978269489497510732028387244926b8004926b0004926a000259568a0004926a80050208e01b8e0826b48826a5082685850229001601a510701028387443a082800027b6898003a083000027b69403a093800023a0a4000027b6890007b698800956880007b6a80005020920171e082695882674095779cd87907826850948782684894875107b30183976449167049166814080000006f72657a207b68789568604916605020940135e0330884008267585020960184e2837833070133098400330098010a09017b63e00182697b6900027b62e8017b6008027b68f0017b6410027b67f80195672002956800029569e001826a107b6a180250209a01e307956800028287207b67308287287b67288287307b67208287387b671882670833009c010a0433029e01284a1650229e0147167b6a9801826a207b6a9001826a287b6a8801826a307b6a8001826a407b6ab801826a487b6ab001826a507b6aa801826a587b6aa0017b69d0017b67c8017b68c0019567c0019568a001956980014926d8015020a001f007956760013308405020a20111de956b000182b8787b685882b7707b675082b9687b694882ba607b6a407bb8387bb7307bb92895674001956820017bba205020a401c7e7826b48826940826758d4b707826a50d4a908d47808988820d4a707977720d4870752074c64a2956c000182c74882c8587b68388263400182ca50d3b704d8b70cd89300da400cc92a08c9c804d8c8087b6830d82a0a826c58826838c9c80cc9ac0c8268305022a6015d1651071b0033080001022808330800010201838833070133090a090164977b68585020a801e1e0837881695833073300aa010a093302ac0128c6165022ac01c3160a0c01821710018218180182190801821a0001d49808d4a707d487075207753907f00002330843ae78719517e0003300ae013302602877185022b001bf170a02821720017b1718821728017b1710821730017b1708821738017b17330600010383673300b2010a043302b401289f135022b4019c135020b601f30b9517603308405020b801aadc5022ba01531451071b0033080001022808330800010201838833070133090a09014911584911504911489518404911400164675020bc01abdd33082064675020be01fcdf5022c00198173300c2010a0901951120fe7b10d8017b15d0017b16c8019515e0018411e0641649269801492690014926880149268001836780010a0c01956b000182b7900082b8980082b9880082ba8000d49808d4a707d48707520789013907f00002330843ae788401956760013300c401330260286c17826760017b6718826768017b6710806770017b6708956740013300c60133026a284116956900018297587b67208297507b67288297487b67308297407b6738492638018267087b97308267107b9728956820018267187b972033075020c801c7dc49261801492610014926080133072095680001492600015020ca01aadc3908f4000256183f0b2003f4000240019517e08479e07b691864913307000102837783993308400a07826a1882a71882a81082a90882aa6f7b6f876f986fa9826a207b6ab800826a287b6ab000826a307b6aa800826a387b6aa0007b69d8007b68d0007b67c8009567e0009568c0009569a0007b6bc0005020cc01ea028267f8008268f0008269e800826ae000956b00017bb7b8007bb8b0007bb9a8007bbaa000956780009568a0015020ce01eddc826798007b6738826790007b6730826788007b6728826780007b67209567603308405020d00199da826778826870826968826a605022d2013c1551071b0033080001022808330800010201838833070133090a09018267207b67408267287b67488267307b67509568408267387b675864a77b6a385020d40180db3308208267385020d601d0dd5022d8016c153300da010a0901951130ff7b10c8007b15c0007b16b8009515d0008411f08289187b19108289107b19088289087b1982867b1728951790003308405020dc01f3d9821898008219900095671fd86700821ac80a0b8477e0c8b803c879027b1920d8920cc8c303d383067b1818d88309da6c098214a800d8ab0b8216a000da000b821708c87b0bd87b0cc86b0bc89b0a821710c84707c8c707d8ba0cd86b0bc8b707c8c70b8eb78eacdbb70cd4ba078e38db7c08520865d86a07d34b08d84b0cda870cd36a07d48707db7c0952094d7b12707b13787b1a80003307409518707b1b88007b14105020de0183da8217288218107b78187b76108218187b78088218207b78955130ff8210c8008215c0008216b8009511d0003200491160491158491150140700000000717b484e9518507b176833075020e00135da491148491140491130413307049518304911385020e2011cda3908f4000256183f0b2003f400024001330800010283883307013309243300e4010a09019511807b10787b15707b1668951580008411e064168289828a088088107b67184916587b68507b6a489568407b694033075020e601c1d9491638491630491628330720c876084916205020e801a9d93908f4000256183f0b2003f4000240019517e08479e07b691064913307000102837783993308403300ea010a07826a103302ec01287612826a105022ec017012826b187bba187bb9107bb8087bb7955180821078821570821668951180003200951160ff7b1098007b1590007b1688009515a0008411e06416828a7b6a30828a087b6a28828a107b6a208288187b6818829a8298088099107b67384916787b69707b68689568607b6a6033075020ee01f7d88267187b67588267207b67508267287b67483307209568408269307b69405020f001d3d83908f4000256183f0b2003f4000240019517e08479e07b693064913307000102837783993308403300f2010a07826a303302f40128a011826a305022f4019a11826b387bba187bb9107bb8087bb7955160ff8210980082159000821688009511a00032009511b07b10487b15409515508411f0491130491128491120140700000000717b484e9518207b173833075020f6013fd849111849111049011133070464184911085020f80128d83908f4000256183f0b2003f400024001330800010283883307013309243300fa010a09019511c87b10307b15287b1620829b828a829608828408829010828c10829918828218d364057b1608d864067b1b187b1a10d8ba087b18da5806d39208d89203d80c05da8503d30c0bd4b808da8603520342c90c08d8680bc99209c95909c9b909c96808821a08c9a40a821bc9ba0a821b18821c10c9bc0b7b7b7b7a087b78107b791882103082152882162095113832005020fc0105ff951120fc951a00037ba0d8007ba5d0007ba6c8009515e0038411e0828a187b1a68828a107b1a70828a087b1a788280827218827408827c827310829b1882971082960882987b1b98037b1790037b168803973920989a20d44c09d4a9097b188003510988027b1b487b17507b16587b18607b1a38140affffffff000000008218788488ff7b10408406ff821970d2a9097b19307b1620d469097b1828d4890951097e037b1c10951900037b9c407b93507b925895176003951840037b14187b94485020fe01b5fc951c000382ca6082c76882c87082c978821b68951600027b6bf800821b707b6bf000821b787b6be800821b407b6be0007bc9187bc8107bc70895172003951800039519e0027bca5020000217fd951b000382b73882b83082b92882ba207bb7b8007bb8b0007bb9a8007bbaa0009517a00395188003330002029511a07b10587b15509515608411e08272827a08827b108277188283828908828c108288186f746fbb6faa6f276f826fcc6f996f387b17187b1a107b1b087b147b18387b19307b1c287b12208318831a203309ff330b2033070a0b9551a082105882155095116032009517c002330840502004027ed4951b000282b6d80082b8d0007b187882b9c8007b197082bac0007b1a688217487bb7788217507bb7708217587bb7688217607bb7607bb698007bb890007bb988009517a00295188002951960027bba8000502006027adf8219708214687b1660d46907821678d46408d47808988820d46707977720d487075207f602951800028287a8008282b8008283a000828ab000d3970bd8970cd84308dab80cc96a0bc9cb00d8cb0bd86a0a821c60c9c20c50220802150c5207ba02951c0002491c188217207bc7491c388217107bc7208217287bc7088217187bc7283a074800023a095000023a0a5800023a0b6000027bc7587bc9507bca487bcb408217307bc71095194002951a2002951b00028217387bc730644750200a0208d6955120fc951700038270d8008275d0008276c8009511e00332009517200133084050200c023ed38219380182163001821728018218200150220e02690e52071802492110014921080149210001140700000000a079c308951800017b1718018217785020100237d450221202b70b5107e7018217788377044921f8004921f0004921e000209518e0004921e800502014020cd450221602ef0d5107bc018216788367244921d8004921d0004921c000249518c0004921c80050201802e1d3140700000000010000007b17601407bcffffff0000000050221a02e20951077a018216788367443a086800027b18b8003a088800023a099000023a0a9800027b18b0007b19a8009518a0007b1aa00050201c028cd382176095779c50221e029e09510736018216788367644921900049218800140800000000737365727b189800951880004921800033003402284ed39517e001330840502020020ad28219f8018216f0018217e8018218e00150222202350d5207e4004921d0014921c8014921c001140700000000a079c3089518c0017b17d8018217785020240203d350222602830a5107b3008217788377044921b8014921b0014921a001209518a0014921a80150202802d8d250222a02bb0c5107880082167883672449219801492190014921800122951880014921880150202c02add2140700000000010000007b17601407bcffffff0000000050222e02ae085107468216788367443a086800027b1878013a087000023a097800023a0a8000027b1870017b196801951860017b1a60015020300259d282176095779c502232026b08520704008216788367644921500149214801140800000000000073737b1858019518400149214001502034021fd2330884006467502036026fd4837833070133098400330038020a09019511b0fc951a00037ba0487ba5407ba638951550038411f0827b10827008827c7b1b6897bb2098ba20d40c0bd4ab0b510be2017b1a58828a108284088283140bffffffff000000008442ff8436ff7b1a60d2ba0a7b1a287b1618d46a0a7b1220d42a0a510adf02829a187b1a388296107b1640829b087b1b4882997b19508288188272187b19d002951900027b93f0007b1c087b1c10037b9bd8007b94f8007b1010951b00037bb0187b96e0008217607bb78217687bb7207b9ae8007bb808951710039518f0029519d0027bb22850203a02c2039517b00233084050203c02e8cf951b000282b6c80082b8c0007b186882b9b8007b196082bab0007b1a308217387bb7688217407bb7608217487bb7588217507bb7507bb688007bb880007bb9789517900295187002951950027bba7050203e02e6da8219608214307b1650d46907821668d46408d47808988820d46707977720d487075207f20295180002828798008282a80082839000828aa000d3970bd8970cd84308dab80cc96a0bc9cb00d8cb0bd86a0a821c50c9c20c502240028107821c585207b302951600024916088217187b17f0014916288217087b67108217207b17f8018217107b67183a07a000023a09a800023a0ab000023a0bb800027b67487b69407b6a387b6b308217287b6795193002951a1002951bf0017b6c2064475020420272d19551b0fc951700038270488275408276389511500332009517100133084050204402abce8219280182162001821718018218100150224602f60952071502492100014921f8004921f000140700000000a079c3089518f0007b17080182176850204802a4cf50224a02f8065107e4018217688377044921e8004921e0004921d000209518d0004921d80050204c0279cf50224e0247095107b9018216688367244921c8004921c0004921b000259518b0004921b800502050024ecf140700000000010000007b17501407bcffffff00000000502252023306510777018216688367443a08c000027b18a8003a08c800023a09e000023a0ae800027b18a0007b199800951890007b1a900050205402f9ce82175095779c50225602ef055107330182166883676449218000491178140800000073736572647b18880095187049117033006c0228bece9517d001330840502058027acd8219e8018216e0018217d8018218d00150225a02c5085207e4004921c0014921b8014921b001140700000000a079c3089518b0017b17c80182176850205c0273ce50225e02c7055107b3008217688377044921a8014921a001492190012095189001492198015020600248ce50226202160851078800821668836724492188014921800149217001239518700149217801502064021dce140700000000010000007b17501407bcffffff000000005022660202055107468216688367443a08c000027b1868013a08c800023a09d000023a0ad800027b1860017b195801951850017b1a500150206802c9cd82175095779c50226a02bf04520704008216688367644921400149213801140800000000007373657b184801951830014921300150206c028fcd33088400646750206e02dfcf837833070133098400330070020a0901951120fe7b10d8017b15d0017b16c8019515e0018411e0829a187b1a20829a107b1a18829a087b1a1082997b19088289107b19288289087b193082887b18388278107b18408278087b185082777b1748492138014921300149212001a00095174001951820014921280150207202a2f182195801821a500182174801821840017b17707b1968d497077b1878d4a808d478089888207b1a60d4a707977720d48707520729023907f000027b17583308a00082167864675020740213cf83773308a0008219580a014921180149211001492108019518000149210001026467502076028fcc821768821960d47909140700000000010000007b17601407e0ffffff00000000d8760782187094877b196894975107b9018216788367204921f8004921f0004921e8009518e0004921e000502078023ecc8217609577c050227a025002510789018217409777209879208216788367404921d8008218487b18c0008218507b18c8009518c0007b19d00050207c02ffcb140700000000010000007b17601407a0ffffff0000000050227e020002510739011408ffffffff00000000821928d289098218308488ff821a3884aaff8216788367604921b8007b1aa0007b18a8009518a0007b19b00050208002a2cb82176095778050228202b4015107ed00821778837780008218087b1880008218107b1888008218187b189000951880008219207b1998005020840265cb0a083306000103210308010321030001032003100103000004492178014921700149216801492160013308a000821778502086028bcd6478482180014921b8014921b0014921a8014921a00197662098662014070000000018000000d4670795196001979920989920951aa00197aa20d49a0a9788209888203306000102140900000000a0000000d4980b97682098882095198001979920d4890c3308ff3309ff0a0152071a955120fe8210d8018215d0018216c8019511e001320000836833070133090a093307330088022824cd3307502088021fcd33070150208a0216cd82970881981082996f77977a206f88988820d48a0a9877206f98978920d49707988820320282670881681082696f77977a206f88988820d48a0a9877206f98978920d4970798882082197b1998008219087b1990008219107b1988008219187b1980008219207b19b8008219287b19b0008219307b19a8008219387b19a0004921d8007b18d0007b17c8009517c0009518a000951980007b1ac0003202d876078218709487821868948732028218b8007b18188217b0007b17208219a8007b1910821ba000821a287b1a587b1650821a307b1a48821a387b1a407b18787b17707b1968951780009518609519407b1b6064b63202821778821870821968821660d49707d48609d47909989920d48707977720d49707320282693882970881981082996f77977a206f88988820d4a8089877206f99979a20d4a707989920826a183202d4ba09d46708d49808988820d46909979920d498083202646364a482178800821898007b183882168000821a9000d3b708d8b70cd83600da800cc94a083202d87607821860948782185894873202c9ac0cc9bc0cc99707c98707c94308d4c707d4080ad47a0ad4070798aa20977720d4a70732029511a07b10587b15509515608411e04911184911104901800033074064184911083202821958d46909140600000000010000001407fcffffff00000000821868d8780782186094877b195894973202821968d46909140600000000010000001407fcffffff00000000821878d8780782187094877b196894973202c98c0cc9b707c90707c99308d4c707d4480ad47a0ad4470798aa20977720d4a707320282171082181814090000000001000000d37909d48909987a2088aa01948a939a3202821b28821a30821938d4b6071408e0ffffff00000000d8890894a894783202826a1082a71882a81082a90882aa6f7b6f876f986fa9826a403202821718821810821908821a7b67187b68107b69087b6a9551c082103882153082162895114032029511a0fe7b1058017b1550017b164801951560018411e0492118014921100149210801492100018317000132029511807b10787b15707b1668951580008411e04911584911504911484911408317403202951180fe7b1078017b1570017b166801951580018411e0492158014921500149214801492140018317400132029551a08210588215508216489511603202821918821b10d49b07821a20d4a608d47808988820d4a707977720d48707320282a71882a81082a90882aa6f776f886f996faa3202821738821830821928821620d49707d48609d47909989920d48707977720d4970732029511c07b10387b15307b16289515408411e06476831733082432028219821a087b697b6a087b67107b68189551c08210388215308216289511403202d49707d48a09d47909989920d48707977720d4970732028217e0007b17388217e8007b17308217f0007b17288217f8007b1720831720013308243202140900000000010000001407bcffffff00000000d8780794a794b732029567dc821868d878078218609487821858948732029567dc821878d878078218709487821868948732028378330920330732027b17707b1968d497077b1878d46808d47808988820d46707977720d4870732027b17607b1958d497077b1868d46808d47808988820d46707977720d4870732029511c07b10387b15307b16289515408411e064768317320249922425494b2a252da9944c4949214225a952484992244992244992244992244992244992244992244992244992244992244992542529a524292949a84a494a922449922449922449922449922449922449922449929224294955494a92284925495592421111919224494a9224a5244992502a29292952a4489122458a14252922224a920421240ca549694892242124499a2449124a29091118a24a14aa948410424a134420888020410482048204849088884844449444928444422289241208a194464444929424499224922425222294902449922422240920012429454444128944240a49528a240124a9284992244924292485524892244992244992248054242222421240922449922449922425898888362222498410112222444484888808494288440410112112420809499224499224c950586a852a252129090985524a424a4242a19492502885929424499224494992242549222924a924a18d884892904424419148240a4591204882204361a94912052908a2494a92244992a42425499294244952509294048d884812212144848808222282484992a0a4888848902480a42211111144444408222282482941a9420801111149902408111149008924922401248924e944824824124982204361a95028499224052908a248d024499210491064282c354915a420884624891411118d8888241112114924128944249148241291444424128944229148241289884804492292442a888844042182490a9592a4524a0929512209229148242222228288884852441011912449922449928804912449922422228088240992248000928a448488244892942211212248124442848410111124494a91101111412428118d444444444422882449924489244824128948241289888888201244241289248948902449922445924892244992244186c2524b508a224193244942244190a1b0d424a5200541342249a4888868444424899088482291482452244952424a94488288888882884844102298a450892241241289888888082222224922824849922449922449922449122449a2481089442291482422222222880411114992244361a9491209922088462489444444342222498484444412894422424404111141a49224281511111224490001a42211119120494a91249148440411111182888820524a50aa1042402429099204114992049048224912409248928e4810894422912012914892244992481224499224292211499224499224499264282c150a55504591a011114922848810114144441011112149104422028888201204419020499224499224190a4bada08a464444a48888682449920889882412894422924892a484942891041111110511918820443049a11245824824121111111144444492440411114992942449924424882425499288880022922448920002482a121122922049528a448488204910091112424444902429459200920491a044348a888888884410499224892241241289442291888888882012449224499288044992244952248924499224491264282cb504a528123422224942129104452291281445822009820c85a5264914a420884644448a8888464444920889882412894424912449124912494144242208114c52a894245525128944444444041111111111114422914812244990a1b0d4244992942009826844442449528904114949922449229124499224a9a4244992248924122449922222a2240124054924094204434934492295244952902449102298a45089124990242549141111a924495292244941922449128408262954a2441224491111519224490049419294204430944493a492244992a4244992244992942425499282888888244952529214114912912409204992244924924424412449221289449288288824898888882449494a525595a424294925499120221289244992444444449024499224222222499224092292922449082124491211494144444491202222888808202241104944880882482242441040020822091142888808922092880022221209222282888800221204914484882088242244040124802049881042444490049944041011411494884624892425492249012449922492242949442422128994442222412488884422499224118988044992244922222292244992201149244924218490242922521091248a04111141444400110982482242441044121122820012401049881042444490049144028824120922228288880022120491448488208824224404012480204988104244449004994404101141149488464444922429495292a44404111144442449922489904841912222424192001240528a2422228224882449241211410009208800922449222222488248241289480485100222222241111191049048224942004922494e4444b45491820449a5242529a994a42445229148241289888888282915894422499224892495244992a424959294242549922a22114992925249922449529224899492000248522a09208024a59224499294049024559204902a49aa4a494a5292a48888484444942491244911119188882849529224495292aa4a922449529224954a49922425499222914824520001a44a92524952aa54922449529224495292241500","opcodes":""},"methodIdentifiers":{"allowance(address,address)":"dd62ed3e","approve(address,uint256)":"095ea7b3","balanceOf(address)":"70a08231","currencyId()":"1feeece2","decimals()":"313ce567","decreaseAllowance(address,uint256)":"a457c2d7","increaseAllowance(address,uint256)":"39509351","name()":"06fdde03","symbol()":"95d89b41","totalSupply()":"18160ddd","transfer(address,uint256)":"a9059cbb","transferFrom(address,address,uint256)":"23b872dd"}},"hash":"5f3d6b33c9c55638a5bec1066fe2430052ec31ac7636a4c2ab463e1b1633aa59","factoryDependencies":{}}}}