{"contracts/Flipper.sol":{"Flipper":{"abi":[{"inputs":[{"internalType":"bool","name":"_initialValue","type":"bool"}],"stateMutability":"nonpayable","type":"constructor"},{"anonymous":false,"inputs":[{"indexed":true,"internalType":"bool","name":"oldValue","type":"bool"},{"indexed":true,"internalType":"bool","name":"newValue","type":"bool"}],"name":"Flipped","type":"event"},{"inputs":[],"name":"flip","outputs":[],"stateMutability":"nonpayable","type":"function"},{"inputs":[],"name":"get","outputs":[{"internalType":"bool","name":"","type":"bool"}],"stateMutability":"view","type":"function"}],"evm":{"assembly":"// RO data = 0/0 bytes\n// RW data = 32/65616 bytes\n// Stack size = 32768 bytes\n\n// Instructions = 697\n// Code size = 2167 bytes\n\n      : @0 (gas: 2)\n     0: a1 = i32 [0x20028]\n     5: jump @38 if a1 == 0\n      : @1 (gas: 4)\n     9: a0 = 0x30050\n    14: i32 a0 = a0 + 0\n    16: ecalli 6 // 'set_immutable_data'\n    18: jump @38\n      : @2 (gas: 8)\n    21: sp = sp + 0xfffffffffffffff0\n    24: u64 [sp + 0x8] = ra\n    27: u64 [sp] = s0\n    29: a2 = a1\n    31: s0 = a0\n    33: a1 = 0x20\n    36: a0 = a2\n    38: ra = 2, jump @10\n      : @3 [@dyn 1] (gas: 100)\n    43: a1 = u8 [a0 + 0x1]\n    46: a2 = u8 [a0]\n    48: a3 = u8 [a0 + 0x2]\n    51: a4 = u8 [a0 + 0x3]\n    54: a1 = a1 << 0x8\n    57: a1 = a1 | a2\n    60: a3 = a3 << 0x10\n    63: a4 = a4 << 0x18\n    66: a3 = a3 | a4\n    69: a1 = a1 | a3\n    72: a2 = u8 [a0 + 0x5]\n    75: a3 = u8 [a0 + 0x4]\n    78: a4 = u8 [a0 + 0x6]\n    81: a5 = u8 [a0 + 0x7]\n    84: a2 = a2 << 0x8\n    87: a2 = a2 | a3\n    90: a4 = a4 << 0x10\n    93: a5 = a5 << 0x18\n    96: a4 = a4 | a5\n    99: a2 = a2 | a4\n   102: a2 = a2 << 0x20\n   105: t0 = a2 | a1\n   108: a2 = u8 [a0 + 0x9]\n   111: a3 = u8 [a0 + 0x8]\n   114: a4 = u8 [a0 + 0xa]\n   117: a5 = u8 [a0 + 0xb]\n   120: a2 = a2 << 0x8\n   123: a2 = a2 | a3\n   126: a4 = a4 << 0x10\n   129: a5 = a5 << 0x18\n   132: a4 = a4 | a5\n   135: a2 = a2 | a4\n   138: a3 = u8 [a0 + 0xd]\n   141: a4 = u8 [a0 + 0xc]\n   144: a5 = u8 [a0 + 0xe]\n   147: a1 = u8 [a0 + 0xf]\n   150: a3 = a3 << 0x8\n   153: a3 = a3 | a4\n   156: a5 = a5 << 0x10\n   159: a1 = a1 << 0x18\n   162: a1 = a1 | a5\n   165: a1 = a1 | a3\n   168: a1 = a1 << 0x20\n   171: t1 = a1 | a2\n   174: a1 = u8 [a0 + 0x11]\n   177: a3 = u8 [a0 + 0x10]\n   180: a4 = u8 [a0 + 0x12]\n   183: a5 = u8 [a0 + 0x13]\n   186: a1 = a1 << 0x8\n   189: a1 = a1 | a3\n   192: a4 = a4 << 0x10\n   195: a5 = a5 << 0x18\n   198: a4 = a4 | a5\n   201: a1 = a1 | a4\n   204: a3 = u8 [a0 + 0x15]\n   207: a4 = u8 [a0 + 0x14]\n   210: a5 = u8 [a0 + 0x16]\n   213: a2 = u8 [a0 + 0x17]\n   216: a3 = a3 << 0x8\n   219: a3 = a3 | a4\n   222: a5 = a5 << 0x10\n   225: a2 = a2 << 0x18\n   228: a2 = a2 | a5\n   231: a2 = a2 | a3\n   234: a2 = a2 << 0x20\n   237: a3 = a2 | a1\n   240: a1 = u8 [a0 + 0x19]\n   243: a2 = u8 [a0 + 0x18]\n   246: a4 = u8 [a0 + 0x1a]\n   249: a5 = u8 [a0 + 0x1b]\n   252: a1 = a1 << 0x8\n   255: a1 = a1 | a2\n   258: a4 = a4 << 0x10\n   261: a5 = a5 << 0x18\n   264: a4 = a4 | a5\n   267: a1 = a1 | a4\n   270: a2 = u8 [a0 + 0x1d]\n   273: a4 = u8 [a0 + 0x1c]\n   276: a5 = u8 [a0 + 0x1e]\n   279: a0 = u8 [a0 + 0x1f]\n   282: a2 = a2 << 0x8\n   285: a2 = a2 | a4\n   288: a5 = a5 << 0x10\n   291: a0 = a0 << 0x18\n   294: a0 = a0 | a5\n   297: a0 = a0 | a2\n   300: a0 = a0 << 0x20\n   303: a0 = a0 | a1\n   306: a0 = reverse a0\n   308: a1 = reverse a3\n   310: a2 = reverse t1\n   312: a3 = reverse t0\n   314: u64 [s0 + 0x18] = a3\n   317: u64 [s0 + 0x10] = a2\n   320: u64 [s0 + 0x8] = a1\n   323: u64 [s0] = a0\n   325: ra = u64 [sp + 0x8]\n   328: s0 = u64 [sp]\n   330: sp = sp + 0x10\n   333: ret\n      : @4 (gas: 12)\n   335: sp = sp + 0xffffffffffffffd8\n   338: u64 [sp + 0x20] = ra\n   341: u64 [sp + 0x18] = s0\n   344: u64 [sp + 0x10] = s1\n   347: a2 = u64 [a1]\n   349: u64 [sp + 0x8] = a2\n   352: a2 = u64 [a1 + 0x8]\n   355: u64 [sp] = a2\n   357: s0 = u64 [a1 + 0x10]\n   360: s1 = u64 [a1 + 0x18]\n   363: a1 = 0x20\n   366: ra = 4, jump @10\n      : @5 [@dyn 2] (gas: 71)\n   371: a1 = reverse s1\n   373: a2 = reverse s0\n   375: a3 = u64 [sp]\n   377: a3 = reverse a3\n   379: a4 = u64 [sp + 0x8]\n   382: a4 = reverse a4\n   384: u8 [a0 + 0x18] = a4\n   387: u8 [a0 + 0x10] = a3\n   390: u8 [a0 + 0x8] = a2\n   393: u8 [a0] = a1\n   395: a5 = a4 >> 0x38\n   398: u8 [a0 + 0x1f] = a5\n   401: a5 = a4 >> 0x30\n   404: u8 [a0 + 0x1e] = a5\n   407: a5 = a4 >> 0x28\n   410: u8 [a0 + 0x1d] = a5\n   413: a5 = a4 >> 0x20\n   416: u8 [a0 + 0x1c] = a5\n   419: a5 = a4 >> 0x18\n   422: u8 [a0 + 0x1b] = a5\n   425: a5 = a4 >> 0x10\n   428: u8 [a0 + 0x1a] = a5\n   431: a4 = a4 >> 0x8\n   434: u8 [a0 + 0x19] = a4\n   437: a4 = a3 >> 0x38\n   440: u8 [a0 + 0x17] = a4\n   443: a4 = a3 >> 0x30\n   446: u8 [a0 + 0x16] = a4\n   449: a4 = a3 >> 0x28\n   452: u8 [a0 + 0x15] = a4\n   455: a4 = a3 >> 0x20\n   458: u8 [a0 + 0x14] = a4\n   461: a4 = a3 >> 0x18\n   464: u8 [a0 + 0x13] = a4\n   467: a4 = a3 >> 0x10\n   470: u8 [a0 + 0x12] = a4\n   473: a3 = a3 >> 0x8\n   476: u8 [a0 + 0x11] = a3\n   479: a3 = a2 >> 0x38\n   482: u8 [a0 + 0xf] = a3\n   485: a3 = a2 >> 0x30\n   488: u8 [a0 + 0xe] = a3\n   491: a3 = a2 >> 0x28\n   494: u8 [a0 + 0xd] = a3\n   497: a3 = a2 >> 0x20\n   500: u8 [a0 + 0xc] = a3\n   503: a3 = a2 >> 0x18\n   506: u8 [a0 + 0xb] = a3\n   509: a3 = a2 >> 0x10\n   512: u8 [a0 + 0xa] = a3\n   515: a2 = a2 >> 0x8\n   518: u8 [a0 + 0x9] = a2\n   521: a2 = a1 >> 0x38\n   524: u8 [a0 + 0x7] = a2\n   527: a2 = a1 >> 0x30\n   530: u8 [a0 + 0x6] = a2\n   533: a2 = a1 >> 0x28\n   536: u8 [a0 + 0x5] = a2\n   539: a2 = a1 >> 0x20\n   542: u8 [a0 + 0x4] = a2\n   545: a2 = a1 >> 0x18\n   548: u8 [a0 + 0x3] = a2\n   551: a2 = a1 >> 0x10\n   554: u8 [a0 + 0x2] = a2\n   557: a1 = a1 >> 0x8\n   560: u8 [a0 + 0x1] = a1\n   563: ra = u64 [sp + 0x20]\n   566: s0 = u64 [sp + 0x18]\n   569: s1 = u64 [sp + 0x10]\n   572: sp = sp + 0x28\n   575: ret\n      : @6 (gas: 48)\n   577: sp = sp + 0xffffffffffffffa0\n   580: u64 [sp + 0x58] = ra\n   583: u64 [sp + 0x50] = s0\n   586: u64 [sp + 0x48] = s1\n   589: s0 = sp + 0x60\n   592: sp = sp & 0xffffffffffffffe0\n   595: s1 = a0\n   597: a0 = u64 [a1 + 0x18]\n   600: a2 = u64 [a1 + 0x10]\n   603: a3 = u64 [a1 + 0x8]\n   606: a1 = u64 [a1]\n   608: a0 = reverse a0\n   610: a2 = reverse a2\n   612: a3 = reverse a3\n   614: a1 = reverse a1\n   616: u64 [sp + 0x18] = a1\n   619: u64 [sp + 0x10] = a3\n   622: u64 [sp + 0x8] = a2\n   625: u64 [sp] = a0\n   627: u64 [sp + 56] = 0\n   630: u64 [sp + 48] = 0\n   633: u64 [sp + 40] = 0\n   636: u64 [sp + 32] = 0\n   639: u32 [sp + 64] = 0x20\n   643: i32 a1 = sp + 0\n   645: i32 a3 = sp + 0x20\n   648: i32 a4 = sp + 0x40\n   651: a2 = 0xffffffffffffffff\n   654: a0 = 0\n   656: ecalli 4 // 'get_storage'\n   658: a0 = u64 [sp + 0x38]\n   661: a1 = u64 [sp + 0x30]\n   664: a2 = u64 [sp + 0x28]\n   667: a3 = u64 [sp + 0x20]\n   670: a0 = reverse a0\n   672: a1 = reverse a1\n   674: a2 = reverse a2\n   676: a3 = reverse a3\n   678: u64 [s1 + 0x18] = a3\n   681: u64 [s1 + 0x10] = a2\n   684: u64 [s1 + 0x8] = a1\n   687: u64 [s1] = a0\n   689: sp = s0 + 0xffffffffffffffa0\n   692: ra = u64 [sp + 0x58]\n   695: s0 = u64 [sp + 0x50]\n   698: s1 = u64 [sp + 0x48]\n   701: sp = sp + 0x60\n   704: ret\n      : @7 (gas: 40)\n   706: sp = sp + 0xffffffffffffffa0\n   709: u64 [sp + 0x58] = ra\n   712: u64 [sp + 0x50] = s0\n   715: s0 = sp + 0x60\n   718: sp = sp & 0xffffffffffffffe0\n   721: t0 = u64 [a0]\n   723: a3 = u64 [a0 + 0x8]\n   726: a4 = u64 [a0 + 0x10]\n   729: a0 = u64 [a0 + 0x18]\n   732: t1 = u64 [a1]\n   734: a2 = u64 [a1 + 0x8]\n   737: a5 = u64 [a1 + 0x10]\n   740: a1 = u64 [a1 + 0x18]\n   743: t2 = reverse a0\n   745: a4 = reverse a4\n   747: a3 = reverse a3\n   749: a0 = reverse t0\n   751: t0 = reverse a1\n   753: a5 = reverse a5\n   755: a2 = reverse a2\n   757: a1 = reverse t1\n   759: u64 [sp + 0x18] = a0\n   762: u64 [sp + 0x10] = a3\n   765: u64 [sp + 0x8] = a4\n   768: u64 [sp] = t2\n   770: u64 [sp + 0x38] = a1\n   773: u64 [sp + 0x30] = a2\n   776: u64 [sp + 0x28] = a5\n   779: u64 [sp + 0x20] = t0\n   782: i32 a1 = sp + 0\n   784: i32 a3 = sp + 0x20\n   787: a2 = 0xffffffffffffffff\n   790: a4 = 0x20\n   793: a0 = 0\n   795: ecalli 7 // 'set_storage'\n   797: sp = s0 + 0xffffffffffffffa0\n   800: ra = u64 [sp + 0x58]\n   803: s0 = u64 [sp + 0x50]\n   806: sp = sp + 0x60\n   809: ret\n      : @8 [@dyn 3] (gas: 2)\n   811: u64 [sp + 0x38] = a1\n   814: ra = 8, jump @10\n      : @9 [@dyn 4] (gas: 46)\n   819: a1 = reverse s1\n   821: u64 [sp + 0x78] = a1\n   824: a1 = u64 [sp]\n   826: a1 = reverse a1\n   828: u64 [sp + 0x70] = a1\n   831: a1 = u64 [sp + 0x8]\n   834: a1 = reverse a1\n   836: u64 [sp + 0x68] = a1\n   839: a1 = u64 [sp + 0x10]\n   842: a1 = reverse a1\n   844: u64 [sp + 0x60] = a1\n   847: a1 = u64 [sp + 0x18]\n   850: a1 = reverse a1\n   852: u64 [sp + 0x98] = a1\n   856: a1 = u64 [sp + 0x20]\n   859: a1 = reverse a1\n   861: u64 [sp + 0x90] = a1\n   865: a1 = u64 [sp + 0x28]\n   868: a1 = reverse a1\n   870: u64 [sp + 0x88] = a1\n   874: a1 = u64 [sp + 0x30]\n   877: a1 = reverse a1\n   879: u64 [sp + 0x80] = a1\n   883: a1 = u64 [sp + 0x40]\n   886: a1 = reverse a1\n   888: u64 [sp + 0xb8] = a1\n   892: a1 = u64 [sp + 0x48]\n   895: a1 = reverse a1\n   897: u64 [sp + 0xb0] = a1\n   901: a1 = u64 [sp + 0x50]\n   904: a1 = reverse a1\n   906: u64 [sp + 0xa8] = a1\n   910: a1 = u64 [sp + 0x58]\n   913: a1 = reverse a1\n   915: u64 [sp + 0xa0] = a1\n   919: i32 a2 = a0 + 0\n   921: a3 = i32 [sp + 0x38]\n   924: i32 a0 = sp + 0x60\n   927: a1 = 0x3\n   930: ecalli 3 // 'deposit_event'\n   932: sp = s0 + 0xffffffffffffff20\n   936: ra = u64 [sp + 0xd8]\n   940: s0 = u64 [sp + 0xd0]\n   944: s1 = u64 [sp + 0xc8]\n   948: sp = sp + 0xe0\n   952: ret\n      : @10 (gas: 2)\n   954: i32 a2 = a0 >> 0x10\n   957: jump @15 if a2 != 0\n      : @11 (gas: 4)\n   960: a1 = a1 + a0\n   963: i32 a1 = a1 + 0x1f\n   966: a1 = a1 & 0xffffffffffffffe0\n   969: jump @15 if a1 >u 65536\n      : @12 (gas: 3)\n   975: a2 = 0x20024\n   980: a3 = i32 [0x20024]\n   985: jump @14 if a3 >=u a1\n      : @13 (gas: 2)\n   988: u32 [0x20024] = a1\n   993: fallthrough\n      : @14 (gas: 4)\n   994: a1 = 0x20030\n   999: i32 a0 = a0 + 0\n  1001: a0 = a0 + a1\n  1004: ret\n      : @15 (gas: 1)\n  1006: trap\n      : @16 (gas: 6)\n  1007: sp = sp + 0xfffffffffffffff0\n  1010: u64 [sp + 0x8] = ra\n  1013: u64 [sp] = s0\n  1015: s0 = a0 & 0x1\n  1018: ecalli 2 // 'call_data_size'\n  1020: fallthrough\n      : @17 (gas: 2)\n  1021: u32 [0x20020] = a0\n  1026: jump @19 if s0 == 0\n      : @18 (gas: 1)\n  1029: ra = 10, jump @20\n      : @19 [@dyn 5] (gas: 1)\n  1033: ra = 12, jump @41\n      : @20 [@dyn 6] (gas: 13)\n  1038: sp = sp + 0xfffffffffffffec0\n  1042: u64 [sp + 0x138] = ra\n  1046: u64 [sp + 0x130] = s0\n  1050: u64 [sp + 0x128] = s1\n  1054: s0 = sp + 0x140\n  1058: sp = sp & 0xffffffffffffffe0\n  1061: u64 [sp + 184] = 0\n  1065: u64 [sp + 176] = 0\n  1069: u64 [sp + 168] = 0\n  1073: u64 [sp + 160] = 0\n  1077: i32 a0 = sp + 0xa0\n  1081: ecalli 8 // 'value_transferred'\n  1083: fallthrough\n      : @21 (gas: 8)\n  1084: a0 = u64 [sp + 0xb0]\n  1088: a1 = u64 [sp + 0xb8]\n  1092: a2 = u64 [sp + 0xa8]\n  1096: a3 = u64 [sp + 0xa0]\n  1100: a1 = a1 | a2\n  1103: a0 = a0 | a3\n  1106: a0 = a0 | a1\n  1109: jump @33 if a0 != 0\n      : @22 (gas: 15)\n  1113: s1 = i32 [0x20020]\n  1118: a0 = s1 << 0x20\n  1121: a0 = a0 >> 0x20\n  1124: a0 = a0 + 0x1f\n  1127: a0 = a0 & 0xffffffffffffffe0\n  1130: a1 = a0 + 0x80\n  1134: a0 = a1 <u a0\n  1137: u64 [sp + 0x80] = a1\n  1141: u64 [sp + 0x88] = a0\n  1145: a0 = 0 if a0 != 0\n  1147: u64 [sp + 0x90] = a0\n  1151: a0 = 0x40\n  1154: a1 = sp + 0x80\n  1158: u64 [sp + 152] = 0\n  1162: ra = 14, jump @4\n      : @23 [@dyn 7] (gas: 3)\n  1167: a0 = 0x80\n  1171: a1 = s1\n  1173: ra = 16, jump @10\n      : @24 [@dyn 8] (gas: 5)\n  1178: i32 a0 = a0 + 0\n  1180: a1 = s1\n  1182: a2 = 0\n  1184: ecalli 0 // 'call_data_copy'\n  1185: fallthrough\n      : @25 (gas: 1)\n  1186: jump @34 if s1 <=u 31\n      : @26 (gas: 3)\n  1191: a0 = sp + 0x60\n  1194: a1 = 0x80\n  1198: ra = 18, jump @2\n      : @27 [@dyn 9] (gas: 12)\n  1203: a0 = u64 [sp + 0x78]\n  1206: a1 = u64 [sp + 0x70]\n  1209: s1 = u64 [sp + 0x60]\n  1212: a2 = u64 [sp + 0x68]\n  1215: u64 [sp + 0x18] = a0\n  1218: u64 [sp + 0x10] = a1\n  1221: a0 = a0 | a1\n  1224: a1 = s1 <u 0x2\n  1227: u64 [sp + 0x8] = a2\n  1230: a1 = 0 if a2 != 0\n  1232: a1 = 0 if a0 != 0\n  1234: jump @35 if a1 == 0\n      : @28 (gas: 7)\n  1238: u64 [sp + 216] = 0\n  1242: u64 [sp + 208] = 0\n  1246: u64 [sp + 200] = 0\n  1250: u64 [sp + 192] = 0\n  1254: a0 = sp + 0x40\n  1257: a1 = sp + 0xc0\n  1261: ra = 20, jump @6\n      : @29 [@dyn 10] (gas: 23)\n  1266: a0 = u64 [sp + 0x40]\n  1269: a1 = u64 [sp + 0x58]\n  1272: a2 = u64 [sp + 0x48]\n  1275: a3 = u64 [sp + 0x50]\n  1278: a0 = a0 & 0xffffffffffffff00\n  1282: a0 = a0 | s1\n  1285: a4 = u64 [sp + 0x8]\n  1288: a2 = a2 | a4\n  1291: a4 = u64 [sp + 0x10]\n  1294: a3 = a3 | a4\n  1297: a4 = u64 [sp + 0x18]\n  1300: a1 = a1 | a4\n  1303: u64 [sp + 248] = 0\n  1307: u64 [sp + 240] = 0\n  1311: u64 [sp + 232] = 0\n  1315: u64 [sp + 224] = 0\n  1319: u64 [sp + 0x118] = a1\n  1323: u64 [sp + 0x110] = a3\n  1327: u64 [sp + 0x108] = a2\n  1331: u64 [sp + 0x100] = a0\n  1335: a0 = sp + 0xe0\n  1339: a1 = sp + 0x100\n  1343: ra = 22, jump @7\n      : @30 [@dyn 11] (gas: 3)\n  1348: a0 = sp + 0x20\n  1351: a1 = 0x40\n  1354: ra = 24, jump @2\n      : @31 [@dyn 12] (gas: 12)\n  1359: a0 = u64 [sp + 0x38]\n  1362: a1 = u64 [sp + 0x30]\n  1365: a2 = u64 [sp + 0x28]\n  1368: s1 = u64 [sp + 0x20]\n  1371: a0 = a0 | a2\n  1374: a2 = s1 | a1\n  1377: a2 = a2 | a0\n  1380: a2 = a2 >> 0x20\n  1383: a0 = a0 | a1\n  1386: a0 = a0 << 0x20\n  1389: a0 = a0 | a2\n  1392: jump @36 if a0 == 0\n      : @32 (gas: 1)\n  1395: trap\n      : @33 (gas: 4)\n  1396: a1 = 0x20030\n  1401: i32 a1 = a1 + 0\n  1403: a0 = 0x1\n  1406: jump @40\n      : @34 (gas: 4)\n  1408: a1 = 0x20030\n  1413: i32 a1 = a1 + 0\n  1415: a0 = 0x1\n  1418: jump @40\n      : @35 (gas: 4)\n  1420: a1 = 0x20030\n  1425: i32 a1 = a1 + 0\n  1427: a0 = 0x1\n  1430: jump @40\n      : @36 (gas: 3)\n  1432: a0 = s1\n  1434: a1 = 0\n  1436: ra = 26, jump @10\n      : @37 [@dyn 13] (gas: 5)\n  1441: i32 a0 = a0 + 0\n  1443: a1 = 0\n  1445: a2 = 0\n  1447: ecalli 0 // 'call_data_copy'\n  1448: jump @0\n      : @38 (gas: 3)\n  1451: a0 = s1\n  1453: a1 = 0\n  1455: ra = 28, jump @10\n      : @39 [@dyn 14] (gas: 6)\n  1460: i32 a1 = a0 + 0\n  1462: a0 = 0\n  1464: a2 = 0\n  1466: ra = 0x1e\n  1469: ecalli 5 // 'seal_return'\n  1471: jump @41\n      : @40 (gas: 4)\n  1473: a2 = 0\n  1475: ra = 0x1e\n  1478: ecalli 5 // 'seal_return'\n  1480: fallthrough\n      : @41 [@dyn 15] (gas: 13)\n  1481: sp = sp + 0xfffffffffffffe00\n  1485: u64 [sp + 0x1f8] = ra\n  1489: u64 [sp + 0x1f0] = s0\n  1493: u64 [sp + 0x1e8] = s1\n  1497: s0 = sp + 0x200\n  1501: sp = sp & 0xffffffffffffffe0\n  1504: u64 [sp + 248] = 0\n  1508: u64 [sp + 240] = 0\n  1512: u64 [sp + 224] = 0x80\n  1518: a0 = 0x40\n  1521: a1 = sp + 0xe0\n  1525: u64 [sp + 232] = 0\n  1529: ra = 32, jump @4\n      : @42 [@dyn 16] (gas: 3)\n  1534: s1 = 0x20020\n  1539: a0 = i32 [0x20020]\n  1544: jump @49 if a0 <u 4\n      : @43 (gas: 4)\n  1548: i32 a0 = sp + 0x100\n  1552: a1 = 0\n  1554: ecalli 1 // 'call_data_load'\n  1556: fallthrough\n      : @44 (gas: 2)\n  1557: a0 = i32 [sp + 0x11c]\n  1561: jump @51 if a0 == 3454332841\n      : @45 (gas: 1)\n  1568: jump @49 if a0 != 1833756220\n      : @46 (gas: 7)\n  1575: u64 [sp + 312] = 0\n  1579: u64 [sp + 304] = 0\n  1583: u64 [sp + 296] = 0\n  1587: u64 [sp + 288] = 0\n  1591: i32 a0 = sp + 0x120\n  1595: ecalli 8 // 'value_transferred'\n  1597: fallthrough\n      : @47 (gas: 8)\n  1598: a0 = u64 [sp + 0x130]\n  1602: a1 = u64 [sp + 0x138]\n  1606: a2 = u64 [sp + 0x128]\n  1610: a3 = u64 [sp + 0x120]\n  1614: a1 = a1 | a2\n  1617: a0 = a0 | a3\n  1620: a0 = a0 | a1\n  1623: jump @54 if a0 == 0\n      : @48 (gas: 6)\n  1626: a1 = 0x20030\n  1631: i32 a1 = a1 + 0\n  1633: a0 = 0x1\n  1636: a2 = 0\n  1638: ecalli 5 // 'seal_return'\n  1640: jump @51\n      : @49 (gas: 6)\n  1642: a1 = 0x20030\n  1647: i32 a1 = a1 + 0\n  1649: a0 = 0x1\n  1652: a2 = 0\n  1654: ecalli 5 // 'seal_return'\n  1656: jump @51\n      : @50 (gas: 5)\n  1658: i32 a1 = a1 + 0\n  1660: a0 = 0x1\n  1663: a2 = 0\n  1665: ecalli 5 // 'seal_return'\n  1667: fallthrough\n      : @51 (gas: 7)\n  1668: u64 [sp + 376] = 0\n  1672: u64 [sp + 368] = 0\n  1676: u64 [sp + 360] = 0\n  1680: u64 [sp + 352] = 0\n  1684: i32 a0 = sp + 0x160\n  1688: ecalli 8 // 'value_transferred'\n  1690: fallthrough\n      : @52 (gas: 8)\n  1691: a0 = u64 [sp + 0x170]\n  1695: a1 = u64 [sp + 0x178]\n  1699: a2 = u64 [sp + 0x168]\n  1703: a3 = u64 [sp + 0x160]\n  1707: a1 = a1 | a2\n  1710: a0 = a0 | a3\n  1713: a0 = a0 | a1\n  1716: jump @56 if a0 == 0\n      : @53 (gas: 2)\n  1719: a1 = 0x20030\n  1724: jump @50\n      : @54 (gas: 2)\n  1726: a0 = i32 [0x20020]\n  1731: jump @58 if a0 >u 3\n      : @55 (gas: 2)\n  1735: a1 = 0x20030\n  1740: jump @50\n      : @56 (gas: 2)\n  1742: a0 = i32 [s1]\n  1744: jump @63 if a0 >u 3\n      : @57 (gas: 2)\n  1748: a1 = 0x20030\n  1753: jump @50\n      : @58 (gas: 7)\n  1755: u64 [sp + 344] = 0\n  1759: u64 [sp + 336] = 0\n  1763: u64 [sp + 328] = 0\n  1767: u64 [sp + 320] = 0\n  1771: a0 = sp + 0x40\n  1774: a1 = sp + 0x140\n  1778: ra = 34, jump @6\n      : @59 [@dyn 17] (gas: 9)\n  1783: a0 = u8 [sp + 0x40]\n  1786: a0 = a0 >u 0\n  1788: u64 [sp + 56] = 0\n  1791: u64 [sp + 48] = 0\n  1794: u64 [sp + 0x20] = a0\n  1797: a0 = 0x80\n  1801: a1 = sp + 0x20\n  1804: u64 [sp + 40] = 0\n  1807: ra = 36, jump @4\n      : @60 [@dyn 18] (gas: 2)\n  1812: a1 = i32 [0x20024]\n  1817: jump @62 if a1 >u 159\n      : @61 (gas: 2)\n  1822: u32 [0x20024] = 0xa0\n  1829: fallthrough\n      : @62 (gas: 6)\n  1830: a0 = 0x20030\n  1835: i32 a1 = a0 + 0x80\n  1839: a2 = 0x20\n  1842: a0 = 0\n  1844: ecalli 5 // 'seal_return'\n  1846: fallthrough\n      : @63 (gas: 7)\n  1847: u64 [sp + 408] = 0\n  1851: u64 [sp + 400] = 0\n  1855: u64 [sp + 392] = 0\n  1859: u64 [sp + 384] = 0\n  1863: a0 = sp + 0xc0\n  1867: a1 = sp + 0x180\n  1871: ra = 38, jump @6\n      : @64 [@dyn 19] (gas: 21)\n  1876: a0 = u64 [sp + 0xc0]\n  1880: a1 = u64 [sp + 0xc8]\n  1884: a2 = u64 [sp + 0xd0]\n  1888: a3 = u64 [sp + 0xd8]\n  1892: a4 = a0 & 0xff\n  1896: a5 = a4 >u 0\n  1898: u64 [sp + 0x18] = a5\n  1901: s1 = a4 <u 0x1\n  1904: a0 = a0 & 0xffffffffffffff00\n  1908: a0 = a0 | s1\n  1911: u64 [sp + 440] = 0\n  1915: u64 [sp + 432] = 0\n  1919: u64 [sp + 424] = 0\n  1923: u64 [sp + 416] = 0\n  1927: u64 [sp + 0x1d8] = a3\n  1931: u64 [sp + 0x1d0] = a2\n  1935: u64 [sp + 0x1c8] = a1\n  1939: u64 [sp + 0x1c0] = a0\n  1943: a0 = sp + 0x1a0\n  1947: a1 = sp + 0x1c0\n  1951: ra = 40, jump @7\n      : @65 [@dyn 20] (gas: 39)\n  1956: u64 [sp + 120] = 0\n  1959: u64 [sp + 112] = 0\n  1962: u64 [sp + 104] = 0\n  1965: u64 [sp + 0x60] = s1\n  1968: u64 [sp + 152] = 0\n  1972: u64 [sp + 144] = 0\n  1976: u64 [sp + 136] = 0\n  1980: a0 = u64 [0x20000]\n  1985: a1 = u64 [0x20008]\n  1990: a2 = u64 [0x20010]\n  1995: a3 = u64 [sp + 0x18]\n  1998: u64 [sp + 0x80] = a3\n  2002: u64 [sp + 0xb8] = a0\n  2006: u64 [sp + 0xb0] = a1\n  2010: u64 [sp + 0xa8] = a2\n  2014: a0 = u64 [0x20018]\n  2019: a2 = sp + 0xa0\n  2023: a3 = sp + 0x80\n  2027: a4 = sp + 0x60\n  2030: u64 [sp + 0xa0] = a0\n  2034: a0 = 0\n  2036: a1 = 0\n  2038: ra = 0x2a\n  2041: sp = sp + 0xffffffffffffff20\n  2045: u64 [sp + 0xd8] = ra\n  2049: u64 [sp + 0xd0] = s0\n  2053: u64 [sp + 0xc8] = s1\n  2057: s0 = sp + 0xe0\n  2061: sp = sp & 0xffffffffffffffe0\n  2064: a5 = u64 [a4]\n  2066: u64 [sp + 0x40] = a5\n  2069: a5 = u64 [a4 + 0x8]\n  2072: u64 [sp + 0x48] = a5\n  2075: a5 = u64 [a4 + 0x10]\n  2078: u64 [sp + 0x50] = a5\n  2081: a4 = u64 [a4 + 0x18]\n  2084: u64 [sp + 0x58] = a4\n  2087: t0 = 0x6\n  2090: jump @69\n      : @66 [@dyn 21] (gas: 6)\n  2092: a1 = 0x20030\n  2097: i32 a1 = a1 + 0\n  2099: a0 = 0\n  2101: a2 = 0\n  2103: ecalli 5 // 'seal_return'\n  2105: jump @51\n      : @67 [export #0: 'call'] (gas: 2)\n  2108: a0 = 0\n  2110: ra = 44, jump @16\n      : @68 [@dyn 22] [export #1: 'deploy'] (gas: 2)\n  2115: a0 = 0x1\n  2118: ra = 46, jump @16\n      : @69 [@dyn 23] (gas: 16)\n  2123: a4 = u64 [a3]\n  2125: u64 [sp + 0x18] = a4\n  2128: a4 = u64 [a3 + 0x8]\n  2131: u64 [sp + 0x20] = a4\n  2134: a4 = u64 [a3 + 0x10]\n  2137: u64 [sp + 0x28] = a4\n  2140: a3 = u64 [a3 + 0x18]\n  2143: u64 [sp + 0x30] = a3\n  2146: s1 = u64 [a2]\n  2148: a3 = u64 [a2 + 0x8]\n  2151: u64 [sp] = a3\n  2153: a3 = u64 [a2 + 0x10]\n  2156: u64 [sp + 0x8] = a3\n  2159: a2 = u64 [a2 + 0x18]\n  2162: u64 [sp + 0x10] = a2\n  2165: jump [t0]\n","bytecode":{"linkReferences":{},"object":"50564d0000aa0a000000000000010700c15000c000800320ea5d5d4f892c0a1b0f11579548fc27d70242254b4038b231155c5560e95689950480a009000000000e0000001c0000002a00000037000000420000004d0000005f0000006a00000063616c6c5f646174615f636f707963616c6c5f646174615f6c6f616463616c6c5f646174615f73697a656465706f7369745f6576656e746765745f73746f726167657365616c5f72657475726e7365745f696d6d757461626c655f646174617365745f73746f7261676576616c75655f7472616e73666572726564051102883c0463616c6c8843066465706c6f790689b8170288772b0073012b03330309040e048f049a04b304f20444054f05a105b405c905fe05f70614075407a4072c0843084b0839082800025108a605330750000383770a062899059511f07b10087b1564896475330820649750100294037c78017c797c7a027c7b03978808d4980897aa1097bb18d4ba0ad4a8087c79057c7a047c7b067c7c07979908d4a90997bb1097cc18d4cb0bd4b909979920d489027c79097c7a087c7b0a7c7c0b979908d4a90997bb1097cc18d4cb0bd4b9097c7a0d7c7b0c7c7c0e7c780f97aa08d4ba0a97cc10978818d4c808d4a808978820d498037c78117c7a107c7b127c7c13978808d4a80897bb1097cc18d4cb0bd4b8087c7a157c7b147c7c167c791797aa08d4ba0a97cc10979918d4c909d4a909979920d4890a7c78197c79187c7b1a7c7c1b978808d4980897bb1097cc18d4cb0bd4b8087c791d7c7b1c7c7c1e7c771f979908d4b90997cc10977718d4c707d49707977720d487076f776fa86f396f2a7b5a187b59107b58087b57821008821595111032009511d87b10207b15187b161082897b19088289087b198285108286183308205010044c026f686f59821a6faa821b086fbb787b18787a10787908787898bc38787c1f98bc30787c1e98bc28787c1d98bc20787c1c98bc18787c1b98bc10787c1a98bb08787b1998ab38787b1798ab30787b1698ab28787b1598ab20787b1498ab18787b1398ab10787b1298aa08787a11989a38787a0f989a30787a0e989a28787a0d989a20787a0c989a18787a0b989a10787a0a98990878790998893878790798893078790698892878790598892078790498891878790398891078790298880878780182102082151882161095112832009511a07b10587b15507b16489515608411e06476828718828910828a0882886f776f996faa6f887b18187b1a107b19087b17491138491130491128491120481140208318831a20831b403309ff33070a04821738821830821928821a206f776f886f996faa7b6a187b69107b68087b679551a082105882155082164895116032009511a07b10587b15509515608411e08272827a08827b108277188283828908828c108288186f746fbb6faa6f276f826fcc6f996f387b17187b1a107b1b087b147b18387b19307b1c287b12208318831a203309ff330b2033070a079551a082105882155095116032007b18385010088c006f687b187882186f887b18708218086f887b18688218106f887b18608218186f887b1898008218206f887b1890008218286f887b1888008218306f887b1880008218406f887b18b8008218486f887b18b0008218506f887b18a8008218586f887b18a0008379811a388317603308030a03955120ff8210d8008215d0008216c8009511e00032008b7910520931c8780883881f8488e05638000001253309240002390a240002ae8a093d082400020133083000028377c887073200009511f07b10087b158475010a02013d0720000251050750100a0950100cc0019511c0fe7b1038017b1530017b162801951540018411e04921b8004921b0004921a8004921a0008317a0000a08018217b0008218b8008219a800821aa000d49808d4a707d4870752071f01390620000297672098772095771f8477e095788000d878077b1880007b17880094777b179000330740951880004921980050100ec5fc33078000646850101025ff8377646833090a0154161fde009517603308800050101267fb8217788218708216608219687b17187b1810d487078868027b1908949894785108ba004921d8004921d0004921c8004921c0009517409518c00050101454fd821740821858821948821a50847700ffd46707821b08d4b909821b10d4ba0a821b18d4b8084921f8004921f0004921e8004921e0007b1818017b1a10017b1908017b1700019517e0009518000150101683fd951720330840501018cbfa821738821830821928821620d49707d48609d47909989920d48707977720d497075107280033083000028388330701284333083000028388330701283733083000028388330701282b6467330850101a1efe8377330833090a2858fa6467330850101c0bfe83783307330933001e0a05280a330933001e0a0501951100fe7b10f8017b15f0017b16e801951500028411e04921f8004921f0004921e00080003307409518e0004921e80050102056fb33062000023907200002531704628317000133080a010181171c015147a9efe4cd6b52473ce64c6d4a49213801492130014921280149212001831720010a0801821730018218380182192801821a2001d49808d4a707d487075107673308300002838833070133090a05281c3308300002838833070133090a05280c838833070133090a050149217801492170014921680149216001831760010a0801821770018218780182196801821a6001d49808d4a707d4870751071a330830000228be390720000256170318330830000228ae816756170367330830000228a149215801492150014921480149214001951740951840015010224ffb7c17408e774911384911307b17203307800095182049112850102440fa390824000256289f000d2003240002a0000133073000028378800033092033070a0501492198014921900149218801492180019517c00095188001501026f2fa8217c0008218c8008219d000821ad800847bff008ebc7b1c1888b601847700ffd467074921b8014921b0014921a8014921a0017b1ad8017b19d0017b18c8017b17c0019517a0019518c00150102823fb4911784911704911687b16604921980049219000492188003a070000023a080800023a09100002821a187b1a80007b17b8007b18b0007b19a8003a071800029519a000951a8000951b607b17a0003307330833002a951120ff7b10d8007b15d0007b16c8009515e0008411e082bc7b1c4082bc087b1c4882bc107b1c5082bb187b1b58330206282133083000028388330733090a05284bfe330750102cb1fb33070150102ea9fb82ab7b1b1882ab087b1b2082ab107b1b2882aa187b1a308296829a087b1a829a107b1a088299187b19103202214225a952484992244992244992244992244992244992244992244992244992244992244992542529a524292949a84a494a922449922449922449922449922449922449922449929224294955494a92284925495592922425494a5292aaaa242549492a494a28959494142952a4489122458a92141111254982101286d2a434244244442422221a119124429244228a448428548744489224494544442224492449928888888888908424499224194aa1144a15aaa950a54a23222211412242081135028188886844449284528552951a11118d884892508850118a88488494249210426088d488888810111125918888888888902411114248444488485422222225499214aa524828499294922400","opcodes":""},"methodIdentifiers":{"flip()":"cde4efa9","get()":"6d4ce63c"}},"hash":"de58e3878769c1264da95771ac922284f0db2f914024ac92a578951d3142b8e5","factoryDependencies":{}}}}