{
  "_format": "hh-sol-artifact-1",
  "contractName": "FeeOnTransferToken",
  "sourceName": "contracts/ReefSwap/test/FeeOnTransferToken.sol",
  "abi": [
    {
      "inputs": [
        {
          "internalType": "string",
          "name": "tokenName",
          "type": "string"
        },
        {
          "internalType": "string",
          "name": "tokenSymbol",
          "type": "string"
        },
        {
          "internalType": "uint256",
          "name": "initialSupply",
          "type": "uint256"
        },
        {
          "internalType": "uint256",
          "name": "feeBasisPoints",
          "type": "uint256"
        }
      ],
      "stateMutability": "nonpayable",
      "type": "constructor"
    },
    {
      "inputs": [
        {
          "internalType": "address",
          "name": "spender",
          "type": "address"
        },
        {
          "internalType": "uint256",
          "name": "allowance",
          "type": "uint256"
        },
        {
          "internalType": "uint256",
          "name": "needed",
          "type": "uint256"
        }
      ],
      "name": "ERC20InsufficientAllowance",
      "type": "error"
    },
    {
      "inputs": [
        {
          "internalType": "address",
          "name": "sender",
          "type": "address"
        },
        {
          "internalType": "uint256",
          "name": "balance",
          "type": "uint256"
        },
        {
          "internalType": "uint256",
          "name": "needed",
          "type": "uint256"
        }
      ],
      "name": "ERC20InsufficientBalance",
      "type": "error"
    },
    {
      "inputs": [
        {
          "internalType": "address",
          "name": "approver",
          "type": "address"
        }
      ],
      "name": "ERC20InvalidApprover",
      "type": "error"
    },
    {
      "inputs": [
        {
          "internalType": "address",
          "name": "receiver",
          "type": "address"
        }
      ],
      "name": "ERC20InvalidReceiver",
      "type": "error"
    },
    {
      "inputs": [
        {
          "internalType": "address",
          "name": "sender",
          "type": "address"
        }
      ],
      "name": "ERC20InvalidSender",
      "type": "error"
    },
    {
      "inputs": [
        {
          "internalType": "address",
          "name": "spender",
          "type": "address"
        }
      ],
      "name": "ERC20InvalidSpender",
      "type": "error"
    },
    {
      "anonymous": false,
      "inputs": [
        {
          "indexed": true,
          "internalType": "address",
          "name": "owner",
          "type": "address"
        },
        {
          "indexed": true,
          "internalType": "address",
          "name": "spender",
          "type": "address"
        },
        {
          "indexed": false,
          "internalType": "uint256",
          "name": "value",
          "type": "uint256"
        }
      ],
      "name": "Approval",
      "type": "event"
    },
    {
      "anonymous": false,
      "inputs": [
        {
          "indexed": true,
          "internalType": "address",
          "name": "from",
          "type": "address"
        },
        {
          "indexed": true,
          "internalType": "address",
          "name": "to",
          "type": "address"
        },
        {
          "indexed": false,
          "internalType": "uint256",
          "name": "value",
          "type": "uint256"
        }
      ],
      "name": "Transfer",
      "type": "event"
    },
    {
      "inputs": [
        {
          "internalType": "address",
          "name": "owner",
          "type": "address"
        },
        {
          "internalType": "address",
          "name": "spender",
          "type": "address"
        }
      ],
      "name": "allowance",
      "outputs": [
        {
          "internalType": "uint256",
          "name": "",
          "type": "uint256"
        }
      ],
      "stateMutability": "view",
      "type": "function"
    },
    {
      "inputs": [
        {
          "internalType": "address",
          "name": "spender",
          "type": "address"
        },
        {
          "internalType": "uint256",
          "name": "value",
          "type": "uint256"
        }
      ],
      "name": "approve",
      "outputs": [
        {
          "internalType": "bool",
          "name": "",
          "type": "bool"
        }
      ],
      "stateMutability": "nonpayable",
      "type": "function"
    },
    {
      "inputs": [
        {
          "internalType": "address",
          "name": "account",
          "type": "address"
        }
      ],
      "name": "balanceOf",
      "outputs": [
        {
          "internalType": "uint256",
          "name": "",
          "type": "uint256"
        }
      ],
      "stateMutability": "view",
      "type": "function"
    },
    {
      "inputs": [],
      "name": "decimals",
      "outputs": [
        {
          "internalType": "uint8",
          "name": "",
          "type": "uint8"
        }
      ],
      "stateMutability": "view",
      "type": "function"
    },
    {
      "inputs": [],
      "name": "feeBps",
      "outputs": [
        {
          "internalType": "uint256",
          "name": "",
          "type": "uint256"
        }
      ],
      "stateMutability": "view",
      "type": "function"
    },
    {
      "inputs": [],
      "name": "name",
      "outputs": [
        {
          "internalType": "string",
          "name": "",
          "type": "string"
        }
      ],
      "stateMutability": "view",
      "type": "function"
    },
    {
      "inputs": [],
      "name": "symbol",
      "outputs": [
        {
          "internalType": "string",
          "name": "",
          "type": "string"
        }
      ],
      "stateMutability": "view",
      "type": "function"
    },
    {
      "inputs": [],
      "name": "totalSupply",
      "outputs": [
        {
          "internalType": "uint256",
          "name": "",
          "type": "uint256"
        }
      ],
      "stateMutability": "view",
      "type": "function"
    },
    {
      "inputs": [
        {
          "internalType": "address",
          "name": "to",
          "type": "address"
        },
        {
          "internalType": "uint256",
          "name": "value",
          "type": "uint256"
        }
      ],
      "name": "transfer",
      "outputs": [
        {
          "internalType": "bool",
          "name": "",
          "type": "bool"
        }
      ],
      "stateMutability": "nonpayable",
      "type": "function"
    },
    {
      "inputs": [
        {
          "internalType": "address",
          "name": "from",
          "type": "address"
        },
        {
          "internalType": "address",
          "name": "to",
          "type": "address"
        },
        {
          "internalType": "uint256",
          "name": "value",
          "type": "uint256"
        }
      ],
      "name": "transferFrom",
      "outputs": [
        {
          "internalType": "bool",
          "name": "",
          "type": "bool"
        }
      ],
      "stateMutability": "nonpayable",
      "type": "function"
    }
  ],
  "bytecode": "0x60a060405234801561001057600080fd5b50604051611cc0380380611cc083398181016040528101906100329190610606565b8383816003908161004391906108bc565b50806004908161005391906108bc565b505050612710811061009a576040517f08c379a0000000000000000000000000000000000000000000000000000000008152600401610091906109eb565b60405180910390fd5b80608081815250506100b233836100bb60201b60201c565b50505050610c01565b600073ffffffffffffffffffffffffffffffffffffffff168273ffffffffffffffffffffffffffffffffffffffff160361012d5760006040517fec442f050000000000000000000000000000000000000000000000000000000081526004016101249190610a4c565b60405180910390fd5b61013f6000838361014360201b60201c565b5050565b600073ffffffffffffffffffffffffffffffffffffffff168373ffffffffffffffffffffffffffffffffffffffff1614806101aa5750600073ffffffffffffffffffffffffffffffffffffffff168273ffffffffffffffffffffffffffffffffffffffff16145b806101b757506000608051145b156101d2576101cd83838361023660201b60201c565b610231565b6000612710608051836101e59190610a96565b6101ef9190610b07565b9050600081836101ff9190610b38565b905061021285858361023660201b60201c565b600082111561022e5761022d8560008461023660201b60201c565b5b50505b505050565b600073ffffffffffffffffffffffffffffffffffffffff168373ffffffffffffffffffffffffffffffffffffffff160361028857806002600082825461027c9190610b6c565b9250508190555061035b565b60008060008573ffffffffffffffffffffffffffffffffffffffff1673ffffffffffffffffffffffffffffffffffffffff16815260200190815260200160002054905081811015610314578381836040517fe450d38c00000000000000000000000000000000000000000000000000000000815260040161030b93929190610baf565b60405180910390fd5b8181036000808673ffffffffffffffffffffffffffffffffffffffff1673ffffffffffffffffffffffffffffffffffffffff16815260200190815260200160002081905550505b600073ffffffffffffffffffffffffffffffffffffffff168273ffffffffffffffffffffffffffffffffffffffff16036103a457806002600082825403925050819055506103f1565b806000808473ffffffffffffffffffffffffffffffffffffffff1673ffffffffffffffffffffffffffffffffffffffff168152602001908152602001600020600082825401925050819055505b8173ffffffffffffffffffffffffffffffffffffffff168373ffffffffffffffffffffffffffffffffffffffff167fddf252ad1be2c89b69c2b068fc378daa952ba7f163c4a11628f55a4df523b3ef8360405161044e9190610be6565b60405180910390a3505050565b6000604051905090565b600080fd5b600080fd5b600080fd5b600080fd5b6000601f19601f8301169050919050565b7f4e487b7100000000000000000000000000000000000000000000000000000000600052604160045260246000fd5b6104c282610479565b810181811067ffffffffffffffff821117156104e1576104e061048a565b5b80604052505050565b60006104f461045b565b905061050082826104b9565b919050565b600067ffffffffffffffff8211156105205761051f61048a565b5b61052982610479565b9050602081019050919050565b60005b83811015610554578082015181840152602081019050610539565b60008484015250505050565b600061057361056e84610505565b6104ea565b90508281526020810184848401111561058f5761058e610474565b5b61059a848285610536565b509392505050565b600082601f8301126105b7576105b661046f565b5b81516105c7848260208601610560565b91505092915050565b6000819050919050565b6105e3816105d0565b81146105ee57600080fd5b50565b600081519050610600816105da565b92915050565b600080600080608085870312156106205761061f610465565b5b600085015167ffffffffffffffff81111561063e5761063d61046a565b5b61064a878288016105a2565b945050602085015167ffffffffffffffff81111561066b5761066a61046a565b5b610677878288016105a2565b9350506040610688878288016105f1565b9250506060610699878288016105f1565b91505092959194509250565b600081519050919050565b7f4e487b7100000000000000000000000000000000000000000000000000000000600052602260045260246000fd5b600060028204905060018216806106f757607f821691505b60208210810361070a576107096106b0565b5b50919050565b60008190508160005260206000209050919050565b60006020601f8301049050919050565b600082821b905092915050565b6000600883026107727fffffffffffffffffffffffffffffffffffffffffffffffffffffffffffffffff82610735565b61077c8683610735565b95508019841693508086168417925050509392505050565b6000819050919050565b60006107b96107b46107af846105d0565b610794565b6105d0565b9050919050565b6000819050919050565b6107d38361079e565b6107e76107df826107c0565b848454610742565b825550505050565b600090565b6107fc6107ef565b6108078184846107ca565b505050565b5b8181101561082b576108206000826107f4565b60018101905061080d565b5050565b601f8211156108705761084181610710565b61084a84610725565b81016020851015610859578190505b61086d61086585610725565b83018261080c565b50505b505050565b600082821c905092915050565b600061089360001984600802610875565b1980831691505092915050565b60006108ac8383610882565b9150826002028217905092915050565b6108c5826106a5565b67ffffffffffffffff8111156108de576108dd61048a565b5b6108e882546106df565b6108f382828561082f565b600060209050601f8311600181146109265760008415610914578287015190505b61091e85826108a0565b865550610986565b601f19841661093486610710565b60005b8281101561095c57848901518255600182019150602085019450602081019050610937565b868310156109795784890151610975601f891682610882565b8355505b6001600288020188555050505b505050505050565b600082825260208201905092915050565b7f4665654f6e5472616e73666572546f6b656e3a20494e56414c49445f46454500600082015250565b60006109d5601f8361098e565b91506109e08261099f565b602082019050919050565b60006020820190508181036000830152610a04816109c8565b9050919050565b600073ffffffffffffffffffffffffffffffffffffffff82169050919050565b6000610a3682610a0b565b9050919050565b610a4681610a2b565b82525050565b6000602082019050610a616000830184610a3d565b92915050565b7f4e487b7100000000000000000000000000000000000000000000000000000000600052601160045260246000fd5b6000610aa1826105d0565b9150610aac836105d0565b9250828202610aba816105d0565b91508282048414831517610ad157610ad0610a67565b5b5092915050565b7f4e487b7100000000000000000000000000000000000000000000000000000000600052601260045260246000fd5b6000610b12826105d0565b9150610b1d836105d0565b925082610b2d57610b2c610ad8565b5b828204905092915050565b6000610b43826105d0565b9150610b4e836105d0565b9250828203905081811115610b6657610b65610a67565b5b92915050565b6000610b77826105d0565b9150610b82836105d0565b9250828201905080821115610b9a57610b99610a67565b5b92915050565b610ba9816105d0565b82525050565b6000606082019050610bc46000830186610a3d565b610bd16020830185610ba0565b610bde6040830184610ba0565b949350505050565b6000602082019050610bfb6000830184610ba0565b92915050565b608051611096610c2a60003960008181610319015281816108b301526108f001526110966000f3fe608060405234801561001057600080fd5b506004361061009e5760003560e01c8063313ce56711610066578063313ce5671461015d57806370a082311461017b57806395d89b41146101ab578063a9059cbb146101c9578063dd62ed3e146101f95761009e565b806306fdde03146100a3578063095ea7b3146100c157806318160ddd146100f157806323b872dd1461010f57806324a9d8531461013f575b600080fd5b6100ab610229565b6040516100b89190610c14565b60405180910390f35b6100db60048036038101906100d69190610ccf565b6102bb565b6040516100e89190610d2a565b60405180910390f35b6100f96102de565b6040516101069190610d54565b60405180910390f35b61012960048036038101906101249190610d6f565b6102e8565b6040516101369190610d2a565b60405180910390f35b610147610317565b6040516101549190610d54565b60405180910390f35b61016561033b565b6040516101729190610dde565b60405180910390f35b61019560048036038101906101909190610df9565b610344565b6040516101a29190610d54565b60405180910390f35b6101b361038c565b6040516101c09190610c14565b60405180910390f35b6101e360048036038101906101de9190610ccf565b61041e565b6040516101f09190610d2a565b60405180910390f35b610213600480360381019061020e9190610e26565b610441565b6040516102209190610d54565b60405180910390f35b60606003805461023890610e95565b80601f016020809104026020016040519081016040528092919081815260200182805461026490610e95565b80156102b15780601f10610286576101008083540402835291602001916102b1565b820191906000526020600020905b81548152906001019060200180831161029457829003601f168201915b5050505050905090565b6000806102c66104c8565b90506102d38185856104d0565b600191505092915050565b6000600254905090565b6000806102f36104c8565b90506103008582856104e2565b61030b858585610577565b60019150509392505050565b7f000000000000000000000000000000000000000000000000000000000000000081565b60006012905090565b60008060008373ffffffffffffffffffffffffffffffffffffffff1673ffffffffffffffffffffffffffffffffffffffff168152602001908152602001600020549050919050565b60606004805461039b90610e95565b80601f01602080910402602001604051908101604052809291908181526020018280546103c790610e95565b80156104145780601f106103e957610100808354040283529160200191610414565b820191906000526020600020905b8154815290600101906020018083116103f757829003601f168201915b5050505050905090565b6000806104296104c8565b9050610436818585610577565b600191505092915050565b6000600160008473ffffffffffffffffffffffffffffffffffffffff1673ffffffffffffffffffffffffffffffffffffffff16815260200190815260200160002060008373ffffffffffffffffffffffffffffffffffffffff1673ffffffffffffffffffffffffffffffffffffffff16815260200190815260200160002054905092915050565b600033905090565b6104dd838383600161066b565b505050565b60006104ee8484610441565b90507fffffffffffffffffffffffffffffffffffffffffffffffffffffffffffffffff8110156105715781811015610561578281836040517ffb8f41b200000000000000000000000000000000000000000000000000000000815260040161055893929190610ed5565b60405180910390fd5b6105708484848403600061066b565b5b50505050565b600073ffffffffffffffffffffffffffffffffffffffff168373ffffffffffffffffffffffffffffffffffffffff16036105e95760006040517f96c6fd1e0000000000000000000000000000000000000000000000000000000081526004016105e09190610f0c565b60405180910390fd5b600073ffffffffffffffffffffffffffffffffffffffff168273ffffffffffffffffffffffffffffffffffffffff160361065b5760006040517fec442f050000000000000000000000000000000000000000000000000000000081526004016106529190610f0c565b60405180910390fd5b610666838383610842565b505050565b600073ffffffffffffffffffffffffffffffffffffffff168473ffffffffffffffffffffffffffffffffffffffff16036106dd5760006040517fe602df050000000000000000000000000000000000000000000000000000000081526004016106d49190610f0c565b60405180910390fd5b600073ffffffffffffffffffffffffffffffffffffffff168373ffffffffffffffffffffffffffffffffffffffff160361074f5760006040517f94280d620000000000000000000000000000000000000000000000000000000081526004016107469190610f0c565b60405180910390fd5b81600160008673ffffffffffffffffffffffffffffffffffffffff1673ffffffffffffffffffffffffffffffffffffffff16815260200190815260200160002060008573ffffffffffffffffffffffffffffffffffffffff1673ffffffffffffffffffffffffffffffffffffffff16815260200190815260200160002081905550801561083c578273ffffffffffffffffffffffffffffffffffffffff168473ffffffffffffffffffffffffffffffffffffffff167f8c5be1e5ebec7d5bd14f71427d1e84f3dd0314c0f7b2291e5b200ac8c7c3b925846040516108339190610d54565b60405180910390a35b50505050565b600073ffffffffffffffffffffffffffffffffffffffff168373ffffffffffffffffffffffffffffffffffffffff1614806108a95750600073ffffffffffffffffffffffffffffffffffffffff168273ffffffffffffffffffffffffffffffffffffffff16145b806108d4575060007f0000000000000000000000000000000000000000000000000000000000000000145b156108e9576108e483838361095f565b61095a565b60006127107f00000000000000000000000000000000000000000000000000000000000000008361091a9190610f56565b6109249190610fc7565b9050600081836109349190610ff8565b905061094185858361095f565b6000821115610957576109568560008461095f565b5b50505b505050565b600073ffffffffffffffffffffffffffffffffffffffff168373ffffffffffffffffffffffffffffffffffffffff16036109b15780600260008282546109a5919061102c565b92505081905550610a84565b60008060008573ffffffffffffffffffffffffffffffffffffffff1673ffffffffffffffffffffffffffffffffffffffff16815260200190815260200160002054905081811015610a3d578381836040517fe450d38c000000000000000000000000000000000000000000000000000000008152600401610a3493929190610ed5565b60405180910390fd5b8181036000808673ffffffffffffffffffffffffffffffffffffffff1673ffffffffffffffffffffffffffffffffffffffff16815260200190815260200160002081905550505b600073ffffffffffffffffffffffffffffffffffffffff168273ffffffffffffffffffffffffffffffffffffffff1603610acd5780600260008282540392505081905550610b1a565b806000808473ffffffffffffffffffffffffffffffffffffffff1673ffffffffffffffffffffffffffffffffffffffff168152602001908152602001600020600082825401925050819055505b8173ffffffffffffffffffffffffffffffffffffffff168373ffffffffffffffffffffffffffffffffffffffff167fddf252ad1be2c89b69c2b068fc378daa952ba7f163c4a11628f55a4df523b3ef83604051610b779190610d54565b60405180910390a3505050565b600081519050919050565b600082825260208201905092915050565b60005b83811015610bbe578082015181840152602081019050610ba3565b60008484015250505050565b6000601f19601f8301169050919050565b6000610be682610b84565b610bf08185610b8f565b9350610c00818560208601610ba0565b610c0981610bca565b840191505092915050565b60006020820190508181036000830152610c2e8184610bdb565b905092915050565b600080fd5b600073ffffffffffffffffffffffffffffffffffffffff82169050919050565b6000610c6682610c3b565b9050919050565b610c7681610c5b565b8114610c8157600080fd5b50565b600081359050610c9381610c6d565b92915050565b6000819050919050565b610cac81610c99565b8114610cb757600080fd5b50565b600081359050610cc981610ca3565b92915050565b60008060408385031215610ce657610ce5610c36565b5b6000610cf485828601610c84565b9250506020610d0585828601610cba565b9150509250929050565b60008115159050919050565b610d2481610d0f565b82525050565b6000602082019050610d3f6000830184610d1b565b92915050565b610d4e81610c99565b82525050565b6000602082019050610d696000830184610d45565b92915050565b600080600060608486031215610d8857610d87610c36565b5b6000610d9686828701610c84565b9350506020610da786828701610c84565b9250506040610db886828701610cba565b9150509250925092565b600060ff82169050919050565b610dd881610dc2565b82525050565b6000602082019050610df36000830184610dcf565b92915050565b600060208284031215610e0f57610e0e610c36565b5b6000610e1d84828501610c84565b91505092915050565b60008060408385031215610e3d57610e3c610c36565b5b6000610e4b85828601610c84565b9250506020610e5c85828601610c84565b9150509250929050565b7f4e487b7100000000000000000000000000000000000000000000000000000000600052602260045260246000fd5b60006002820490506001821680610ead57607f821691505b602082108103610ec057610ebf610e66565b5b50919050565b610ecf81610c5b565b82525050565b6000606082019050610eea6000830186610ec6565b610ef76020830185610d45565b610f046040830184610d45565b949350505050565b6000602082019050610f216000830184610ec6565b92915050565b7f4e487b7100000000000000000000000000000000000000000000000000000000600052601160045260246000fd5b6000610f6182610c99565b9150610f6c83610c99565b9250828202610f7a81610c99565b91508282048414831517610f9157610f90610f27565b5b5092915050565b7f4e487b7100000000000000000000000000000000000000000000000000000000600052601260045260246000fd5b6000610fd282610c99565b9150610fdd83610c99565b925082610fed57610fec610f98565b5b828204905092915050565b600061100382610c99565b915061100e83610c99565b925082820390508181111561102657611025610f27565b5b92915050565b600061103782610c99565b915061104283610c99565b925082820190508082111561105a57611059610f27565b5b9291505056fea2646970667358221220b6b792b93a79c1d90330bb82aac6bd4e416ba8a980f128ea4d7f442da6fc9a6664736f6c634300081c0033",
  "linkReferences": {},
  "deployedLinkReferences": {}
}