{
  "_format": "hh-sol-artifact-1",
  "contractName": "Create2Factory",
  "sourceName": "contracts/Create2/Create2Factory.sol",
  "abi": [
    {
      "anonymous": false,
      "inputs": [
        {
          "indexed": false,
          "internalType": "address",
          "name": "addr",
          "type": "address"
        }
      ],
      "name": "Deploy",
      "type": "event"
    },
    {
      "inputs": [
        {
          "internalType": "uint256",
          "name": "_salt",
          "type": "uint256"
        }
      ],
      "name": "deploy",
      "outputs": [],
      "stateMutability": "nonpayable",
      "type": "function"
    },
    {
      "inputs": [
        {
          "internalType": "bytes",
          "name": "bytecode",
          "type": "bytes"
        },
        {
          "internalType": "uint256",
          "name": "_salt",
          "type": "uint256"
        }
      ],
      "name": "getAddress",
      "outputs": [
        {
          "internalType": "address",
          "name": "",
          "type": "address"
        }
      ],
      "stateMutability": "view",
      "type": "function"
    },
    {
      "inputs": [
        {
          "internalType": "address",
          "name": "_owner",
          "type": "address"
        }
      ],
      "name": "getBytecode",
      "outputs": [
        {
          "internalType": "bytes",
          "name": "",
          "type": "bytes"
        }
      ],
      "stateMutability": "pure",
      "type": "function"
    }
  ],
  "bytecode": "0x6080604052348015600f57600080fd5b506109488061001f6000396000f3fe608060405234801561001057600080fd5b50600436106100415760003560e01c80630c6008af1461004657806394ca2cb514610076578063a5e38751146100a6575b600080fd5b610060600480360381019061005b9190610279565b6100c2565b60405161006d9190610336565b60405180910390f35b610090600480360381019061008b91906104c3565b610135565b60405161009d919061052e565b60405180910390f35b6100c060048036038101906100bb9190610549565b61017f565b005b60606000604051806020016100d6906101fa565b6020820181038252601f19601f82011660405250905080836040516020016100fe919061052e565b60405160208183030381529060405260405160200161011e9291906105b2565b604051602081830303815290604052915050919050565b60008060ff60f81b3084868051906020012060405160200161015a94939291906106b7565b6040516020818303038152906040528051906020012090508060001c91505092915050565b60008160001b33604051610192906101fa565b61019c919061052e565b8190604051809103906000f59050801580156101bc573d6000803e3d6000fd5b5090507f55ea6c6b31543d8e2ec6a72f71a79c0f4b72ed0d4757172b043d8f4f4cd84848816040516101ee919061052e565b60405180910390a15050565b61020d8061070683390190565b6000604051905090565b600080fd5b600080fd5b600073ffffffffffffffffffffffffffffffffffffffff82169050919050565b60006102468261021b565b9050919050565b6102568161023b565b811461026157600080fd5b50565b6000813590506102738161024d565b92915050565b60006020828403121561028f5761028e610211565b5b600061029d84828501610264565b91505092915050565b600081519050919050565b600082825260208201905092915050565b60005b838110156102e05780820151818401526020810190506102c5565b60008484015250505050565b6000601f19601f8301169050919050565b6000610308826102a6565b61031281856102b1565b93506103228185602086016102c2565b61032b816102ec565b840191505092915050565b6000602082019050818103600083015261035081846102fd565b905092915050565b600080fd5b600080fd5b7f4e487b7100000000000000000000000000000000000000000000000000000000600052604160045260246000fd5b61039a826102ec565b810181811067ffffffffffffffff821117156103b9576103b8610362565b5b80604052505050565b60006103cc610207565b90506103d88282610391565b919050565b600067ffffffffffffffff8211156103f8576103f7610362565b5b610401826102ec565b9050602081019050919050565b82818337600083830152505050565b600061043061042b846103dd565b6103c2565b90508281526020810184848401111561044c5761044b61035d565b5b61045784828561040e565b509392505050565b600082601f83011261047457610473610358565b5b813561048484826020860161041d565b91505092915050565b6000819050919050565b6104a08161048d565b81146104ab57600080fd5b50565b6000813590506104bd81610497565b92915050565b600080604083850312156104da576104d9610211565b5b600083013567ffffffffffffffff8111156104f8576104f7610216565b5b6105048582860161045f565b9250506020610515858286016104ae565b9150509250929050565b6105288161023b565b82525050565b6000602082019050610543600083018461051f565b92915050565b60006020828403121561055f5761055e610211565b5b600061056d848285016104ae565b91505092915050565b600081905092915050565b600061058c826102a6565b6105968185610576565b93506105a68185602086016102c2565b80840191505092915050565b60006105be8285610581565b91506105ca8284610581565b91508190509392505050565b60007fff0000000000000000000000000000000000000000000000000000000000000082169050919050565b6000819050919050565b61061d610618826105d6565b610602565b82525050565b60008160601b9050919050565b600061063b82610623565b9050919050565b600061064d82610630565b9050919050565b6106656106608261023b565b610642565b82525050565b6000819050919050565b6106866106818261048d565b61066b565b82525050565b6000819050919050565b6000819050919050565b6106b16106ac8261068c565b610696565b82525050565b60006106c3828761060c565b6001820191506106d38286610654565b6014820191506106e38285610675565b6020820191506106f382846106a0565b6020820191508190509594505050505056fe608060405234801561001057600080fd5b5060405161020d38038061020d833981810160405281019061003291906100db565b806000806101000a81548173ffffffffffffffffffffffffffffffffffffffff021916908373ffffffffffffffffffffffffffffffffffffffff16021790555050610108565b600080fd5b600073ffffffffffffffffffffffffffffffffffffffff82169050919050565b60006100a88261007d565b9050919050565b6100b88161009d565b81146100c357600080fd5b50565b6000815190506100d5816100af565b92915050565b6000602082840312156100f1576100f0610078565b5b60006100ff848285016100c6565b91505092915050565b60f7806101166000396000f3fe6080604052348015600f57600080fd5b506004361060285760003560e01c80638da5cb5b14602d575b600080fd5b60336047565b604051603e919060a8565b60405180910390f35b60008054906101000a900473ffffffffffffffffffffffffffffffffffffffff1681565b600073ffffffffffffffffffffffffffffffffffffffff82169050919050565b6000609482606b565b9050919050565b60a281608b565b82525050565b600060208201905060bb6000830184609b565b9291505056fea26469706673582212204ab78dbbb7b3ab9a4298f90d46287a3cac80d5f6fd58c42c49f95742c104ca5064736f6c634300081c0033a26469706673582212205b0a3edc705cb74e40fe01da9b0d2988f9adde4e632eeb8a7720ddd31bb1080664736f6c634300081c0033",
  "linkReferences": {},
  "deployedLinkReferences": {}
}