{
  "_format": "hh-sol-artifact-1",
  "contractName": "Flipper",
  "sourceName": "contracts/Flipper.sol",
  "abi": [
    {
      "inputs": [
        {
          "internalType": "bool",
          "name": "_initialValue",
          "type": "bool"
        }
      ],
      "stateMutability": "nonpayable",
      "type": "constructor"
    },
    {
      "anonymous": false,
      "inputs": [
        {
          "indexed": true,
          "internalType": "bool",
          "name": "oldValue",
          "type": "bool"
        },
        {
          "indexed": true,
          "internalType": "bool",
          "name": "newValue",
          "type": "bool"
        }
      ],
      "name": "Flipped",
      "type": "event"
    },
    {
      "inputs": [],
      "name": "flip",
      "outputs": [],
      "stateMutability": "nonpayable",
      "type": "function"
    },
    {
      "inputs": [],
      "name": "get",
      "outputs": [
        {
          "internalType": "bool",
          "name": "",
          "type": "bool"
        }
      ],
      "stateMutability": "view",
      "type": "function"
    }
  ],
  "bytecode": "0x6080604052348015600f57600080fd5b506040516102103803806102108339818101604052810190602f91906085565b806000806101000a81548160ff0219169083151502179055505060ad565b600080fd5b60008115159050919050565b6065816052565b8114606f57600080fd5b50565b600081519050607f81605e565b92915050565b6000602082840312156098576097604d565b5b600060a4848285016072565b91505092915050565b610154806100bc6000396000f3fe608060405234801561001057600080fd5b50600436106100365760003560e01c80636d4ce63c1461003b578063cde4efa914610059575b600080fd5b610043610063565b6040516100509190610103565b60405180910390f35b610061610079565b005b60008060009054906101000a900460ff16905090565b60008060009054906101000a900460ff16905080156000806101000a81548160ff02191690831515021790555060008054906101000a900460ff1615158115157f1b0a2c894f5d5dead727fc489557110f31b238404b254202958956e960555c1560405160405180910390a350565b60008115159050919050565b6100fd816100e8565b82525050565b600060208201905061011860008301846100f4565b9291505056fea2646970667358221220a1fef11f20a4e6b4cc7ee7f9f0643ee8cb28ed4c67f4efb9793466bbf80c933264736f6c634300081c0033",
  "linkReferences": {},
  "deployedLinkReferences": {}
}